:100000000C9446000C9465000C9465000C946500FB
:100010000C9465000C9465000C9465000C946500CC
:100020000C9465000C9465000C9465000C946500BC
:100030000C9465000C9465000C9465000C946500AC
:100040000C9465000C9465000C9465000C9465009C
:100050000C9465000C9465000C9465000C9465008C
:100060000C9465000C9465000C9465000C9465007C
:100070000C9465000C9465000C9465000C9465006C
:100080000C9465000C9465000C94650011241FBE4F
:10009000CFEFD0E1DEBFCDBF11E0A0E0B1E0ECE6F4
:1000A000F2E000E00BBF02C007900D92A031B10753
:1000B000D9F721E0A0E1B1E001C01D92A232B20760
:1000C000E1F70E9403010C9434010C940000482FC6
:1000D000E82FF0E099B3EE0FFF1FE05FFE4F2081A5
:1000E0003181220F331F306E892F90E002C0959529
:1000F00087954A95E2F781709927282B392B318310
:10010000208381E02115304F09F080E00895CF93DE
:10011000DF9340912001509121018FEF8ABB8BBB6F
:10012000C0E0DFEF88B38F7888BB98B3EC2FF0E0A6
:10013000E050FF4F8081892B88BBDBBB9A01ADEC7F
:10014000BCEC0E9425019695879596958795969586
:100150008795BC01660F771F9C01220F331F220F6A
:10016000331F220F331F260F371F421B530BFA0179
:10017000EA5FFE4F20812BBBE3ECF9E03197F1F70A
:1001800000C00000CF5FAC01892B61F680E688BB20
:10019000DF91CF91089590E798BB1ABA9FEF9BBB70
:1001A000E82FF0E099B3EE0FFF1FE05FFE4F2081D4
:1001B0003181220F331FA901506E292F30E0082E04
:1001C00002C0359527950A94E2F721703327242B36
:1001D000352B318320832115304F09F0089520916C
:1001E00020013091210141E050E0BA0102C0660FC8
:1001F000771F8A95E2F7CB01820F931F909321011D
:1002000080932001089510922101109220018FEF18
:100210008ABB90EF97BB8BBB80E788BB01E010E007
:100220000E948700C0E08C2F0E94CB00CF5FC830B7
:10023000D1F780912001909121018115944080F3A4
:100240001093210100932001EBCFA29FB001B39F37
:10025000C001A39F700D811D1124911DB29F700DCF
:0C026000811D1124911D0895F894FFCF1A
:10026C00001030401070C0F9A4B0999283F88098B7
:00000001FF
