:1000000019C033C032C031C030C02FC02EC02DC087
:100010002CC02BC02AC029C028C027C026C025C09C
:1000200024C023C022C021C020C01FC01EC01DC0CC
:100030001CC01BC011241FBECFEFD2E0DEBFCDBF5E
:1000400011E0A0E0B1E0E2E1F2E002C005900D9223
:10005000A430B107D9F721E0A4E0B1E001C01D92BE
:10006000AB35B207E1F76CD0D2C0CACF84B187609C
:1000700084B98CB580658CBD8DB581608DBD0895CA
:100080001F920F920FB60F9211240F900FBE0F9078
:100090001F9018959091C00095FFFCCF8093C600EB
:1000A0008091C00085FFFCCF0895FC0120812223B0
:1000B00071F031969091C00095FFFCCF2093C6005F
:1000C0009091C00095FFFCCF21912111F3CF0895AD
:1000D0009C01C901F9014491442399F02F5F3F4FDE
:1000E000FC0184919091C00095FFFCCF8093C600E5
:1000F0009091C00095FFFCCFC901F90144914111D5
:10010000EDCF0895E1ECF0E0808188618083E2EC3E
:10011000F0E08081866080831092C50083E3809345
:10012000C400089580E89EE302C0019739F0209151
:10013000C00027FFFACF8091C600089580E008959F
:10014000E1DF84B1876084B98CB580658CBD8DB5E5
:1001500081608DBD78948091050180E091E0A5DFFC
:10016000809104014AE067E071E090E01DD087E0F3
:1001700091E09BDF80E08EDF109206012FEF80E799
:1001800092E0215080409040E1F700C00000809153
:1001900006018F5F809306018B3080F3809104010C
:1001A0008F5F80930401D7CFBB274A3031F4992366
:1001B00022F4BDE2909581959F4F01C0BB27FB01C2
:1001C0005527AA27880F991FAA1FA41710F0A41B50
:1001D00083955051B9F7A05DAA3308F0A95DA193AA
:1001E000009779F7B111B1931192CB0100C0DC01F6
:1001F000FC01672F71917723E1F7329704C07C915E
:100200006D9370836291AE17BF07C8F30895F89499
:02021000FFCF1E
:040212003130000087
:00000001FF
