S00C00006C6162342E73726563B5
S11300000C9418020C9437020C9437020C943702A7
S11300100C9437020C9437020C9437020C94370278
S11300200C9437020C9437020C9451050C9437024B
S11300300C949B050C9437020C9437020C943702F1
S11300400C94DA050C9437020C945B050C9437027B
S11300500C9437020C9489050C9437020C943702E3
S11300600C9437020C9437020C9437020C94370228
S11300700C9437020C9437020C9437020C94370218
S11300800C9437020C941A0A0C9437025B0A320A55
S1130090320A320A320A320A320A320A5B0A320A53
S11300A0320A320A320A320A320A320A650A320A39
S11300B0320A320A320A320A320A320A320A320A5C
S11300C0320A320A320A320A320A320A650A320A19
S11300D0320A320A320A320A320A320A320A320A3C
S11300E0320A320A320A320A320A320A7C0A320AE2
S11300F0320A320A320A320A320A320A800A320ACE
S1130100320A320A320A320A320A320A320A320A0B
S1130110320A320A320A320A320A320A8E0A320A9F
S1130120320A320A320A320A320A320A4C0A140BEE
S11301301E0B280B320B3D0B480B530B000B0A0B09
S1130140A90CA10C9C0CC60CB90CC10CB10C7A0CFA
S1130150720C6D0C650CCE0C820C580C400CEE0C21
S1130160970C8F0C870C0E0D480CFE0C500C1B0DBD
S1130170E60C060D600CDE0CD60CF60C3B0C090CE0
S1130180010C110C130DF40BEC0B160CCF0B330CF0
S1130190FC0BDF0BD70B230CE70B1B0CC70BAD0BB6
S11301A02B0C9D0B950BBA0BB20BBF0B900BA50B35
S11301B0780B880B730B6B0B630B5E0B800B250E9C
S11301C0430E1F0E310E130E190E130E190E490E87
S11301D0250E430E1F0E310E2B0E0D0E2B0E0D0E83
S11301E0730EAF0E670EDF0E670EA30E9D0E0D0E7F
S11301F0790E0D0E8B0E370ECD0E130EC10E4F0E53
S1130200C70E550ED30E970E3D0E370E7F0E5B0EA6
S1130210250E430E1F0E310E130E190E130E190E5A
S1130220490E250EA90E3D0E1F0E2B0E0D0E2B0E84
S11302300D0E730EB50E850E490EBB0E790E4F0EC4
S1130240550E370E3D0ED90E5B0EF70E1B0FF10E39
S1130250150F990F930FF10E1B0F210FFD0EA50F14
S1130260F10EF70E150FF10E5D0FF10E090FF70EDB
S1130270390F210FFD0E330FB70F090F270FC30FCF
S1130280750F270F8D0FF10EF70E150FF10E570F87
S1130290FD0E1B0FF10E090FF70E390F210FFD0E86
S11302A0B10F4B0F450F0F0F3F0F2D0F0F0F810F86
S11302B0870F7B0F4B0F450F0F0F3F0F2D0F9F0F16
S11302C0AB0F330F630F690F731467146114551464
S11302D04F1443143D14371431142B141F141914E0
S11302E0131407140114F513EF13E313DD13D113DF
S11302F0CB13C513BF13B913AD13A713A1139B13CA
S1130300951389138313771371136B13651359139F
S113031053134713411335132F1323131D131113B1
S11303200B13FF12F912F312ED12E712DB12D512BE
S1130330CF12C912C312B712B112A5129F12991289
S11303409312871281127B1275126F1263125D125F
S113035051124B1245123F1233122D122712211241
S113036015120F1209120312FD11F111EB11DF1115
S1130370D911CD11C711BB11B511A911A3119D112B
S11303809711911185117F1173116D11671161110D
S113039055114F11491143113711311125111F11F5
S11303A013110D110111FB10EF10E910DD10D7101E
S11303B0CB10C510BF10B910B310A710A1109B101B
S11303C08F1089107D1077106B1065105910531021
S11303D04D1047103B103510291023101710111021
S11303E00510FF0FF90FF30FED0FE10FDB0FD50F22
S11303F07914A3149114A3149114A3149114C7147D
S11304009114C714AF149D14DF149D14CD14BB14A0
S1130410A9149114A9149114A9149114C114911438
S1130420C114AF14D314D91491149D14E514BB143E
S113043011241FBECFEFD0E1DEBFCDBF11E0A0E09D
S1130440B1E0EEE8FDE200E00BBF02C007900D92C0
S1130450A435B107D9F722E0A4E5B1E001C01D92AB
S1130460AF38B207E1F70E9435150C94C5160C9409
S1130470000087B3876087BB8DB180658DB9709AA2
S113048008950E94F10789E291E00E94210881E920
S113049091E00E9421080E9407088BE291E00E94EB
S11304A021088BE991E00E9421088EE20E941D0838
S11304B084E891E00E94210810927C010E94FC07CC
S11304C0089542E068E872E080E90E94BE0AE8E824
S11304D0F2E0808190E0982F88272181822B9093ED
S11304E0800180937F0160E870E00E94FF159B010A
S11304F06093B2017093B3018093B4019093B501FA
S11305004AE06BE971E0C9010E9490168091B40140
S11305109091B50160E870E024E6AC01249FC0012D
S1130520259F900D11240E94FF159B016093960155
S11305307093970180939801909399014AE064E83D
S113054071E0C9010E9490160895CF9310925A0148
S11305508FEF8ABB8BBBE0912301F0E0F0937A012B
S1130560E093790110928B01CFEF9F01ADECBCECCD
S11305700E943B16AC01569547955695479556955E
S11305804795CA01880F991F440F551F440F551FE3
S1130590440F551F480F591FE41BF50BE0939A01B4
S11305A018BA98B3E0915A01F0E0E050FF4F80810F
S11305B0892B88BBCBBBE0919A01F0E0EA5EFE4F49
S11305C080818BBB81EE94E00197F1F700C00000BD
S11305D080915A018F5F80935A0120917901309163
S11305E07A010E943B16FC01F695E795F695E7958E
S11305F0F695E795F0937A01E093790180918B0168
S11306008F5F80938B01823008F4AFCF4091240137
S113061050E050937A0140937901CFEF9A01ADEC09
S1130620BCEC0E943B169695879596958795969572
S113063087959C01220F331F880F991F880F991FDC
S1130640880F991F820F931F481B590B40939A01DF
S113065018BA98B3E0915A01F0E0E050FF4F80815E
S1130660892B88BBCBBBE0919A01F0E0EA5EFE4F98
S113067080818BBB81EE94E00197F1F700C000000C
S113068080915A018F5F80935A01209179013091B2
S11306907A010E943B16AC015695479556954795AD
S11306A05695479550937A01409379014115510528
S11306B009F0B4CF80E688BBCF910895CF93109210
S11306C05A018FEF8ABB8BBBE0915C01F0E0F093A1
S11306D07A01E093790110928B01CFEF9F01ADEC89
S11306E0BCEC0E943B16AC01569547955695479530
S11306F056954795CA01880F991F440F551F440FFB
S1130700551F440F551F480F591FE41BF50BE09369
S11307109A0118BA98B3E0915A01F0E0E050FF4F03
S11307208081892B88BBCBBBE0919A01F0E0EA5E23
S1130730FE4F80818BBB81EE94E00197F1F700C0FE
S1130740000080915A018F5F80935A0120917901B2
S113075030917A010E943B16FC01F695E795F695D7
S1130760E795F695E795F0937A01E0937901809106
S11307708B018F5F80938B01823008F4AFCF40915F
S1130780250150E050937A0140937901CFEF9A010B
S1130790ADECBCEC0E943B16969587959695879593
S11307A0969587959C01220F331F880F991F880FF8
S11307B0991F880F991F820F931F481B590B409351
S11307C09A0118BA98B3E0915A01F0E0E050FF4F53
S11307D08081892B88BBCBBBE0919A01F0E0EA5E73
S11307E0FE4F80818BBB81EE94E00197F1F700C04E
S11307F0000080915A018F5F80935A012091790102
S113080030917A010E943B16AC0156954795569556
S113081047955695479550937A0140937901411530
S1130820510509F0B4CF80E688BBCF91089599B300
S113083080912701891B8430C9F180F4813059F1FA
S11308408230E9F420917B0191E0922790937B011F
S1130850909162018927809362010895883081F024
S1130860803161F42091550191E0922790935501D4
S113087090916201892780936201089508950895F3
S1130880909123019B5F90932301909162018927AA
S11308908093620108959091B00198279093B001DC
S11308A090916201892780936201089520918301C8
S11308B091E092279093830190916201892780931C
S11308C06201089530915F013093610120915E01CE
S11308D02093600180918F0190919001482F437083
S11308E040935F018C709927969587959695879587
S11308F0982F80935E01341721F0313041F132306A
S113090049F0291731F02130B1F0223011F493303D
S113091079F108954330A9F78091B00130917B01BA
S1130920432F482371F7882369F180912501815071
S113093080932501E6CF933061F7809186009091F2
S11309408700C29690938700809386000895433071
S1130950C1F68091B00130917B01432F482389F681
S11309608823C9F0809125018F5F80932501C9CF29
S11309708091860090918700C2979093870080931E
S113098086000895332309F4BCCF80915C01815023
S113099080935C01B6CF332309F4B3CF80915C011B
S11309A08F5F80935C01ADCF80915D018C33B1F09A
S11309B080915C018C33D9F0809125018D3001F157
S11309C08091200190912101813D974030F080ED8C
S11309D097E09093210180932001089510925D0186
S11309E080915C018F5F80935C018C3329F71092B6
S11309F05C01809125018F5F809325018D3001F783
S1130A0081E080932501DCCF909125018091240120
S1130A10981719F010925B01089590915C018091F0
S1130A2023019813F7CF81E080935B0108958091AF
S1130A305501811115C060EA71E089E691E00E94D8
S1130A408016892B09F4089569E671E080EA91E043
S1130A500E9489160E94F10789E691E00C9421080E
S1130A606BE971E089E691E00E94891660EA71E021
S1130A7089E691E00E948016892B29F369E671E0EA
S1130A8080EA91E00E9489160E94F10789E691E0CC
S1130A900E9421088EE20E941D0884E891E00C94D3
S1130AA021081F920F920FB60F9211240F900FBEC0
S1130AB00F901F9018951F920F920FB60F9211244A
S1130AC00BB60F928F939F93EF93FF938CB1809308
S1130AD0B101E091660191E09E0F90936601F0E010
S1130AE0EF56FE4F8083811109C081E080937C0121
S1130AF080E280838183828310926601FF91EF916B
S1130B009F918F910F900BBE0F900FBE0F901F906F
S1130B1018951F920F920FB60F9211248F939F93E3
S1130B2084B195B1809322019F918F910F900FBE54
S1130B300F901F9018951F920F920FB60F921124C9
S1130B400BB60F922F933F934F935F936F937F93C3
S1130B508F939F93AF93BF93EF93FF9382B3805888
S1130B6082BB2091890130918A0180918101909109
S1130B7082012817390758F080917D018F5F809397
S1130B807D0160917D0180917E010E94EB14FF91B3
S1130B90EF91BF91AF919F918F917F916F915F91F1
S1130BA04F913F912F910F900BBE0F900FBE0F905E
S1130BB01F9018951F920F920FB60F9211240BB627
S1130BC00F922F933F934F935F936F937F938F93E2
S1130BD09F93AF93BF93EF93FF93809165018F5FD2
S1130BE080936501982F977051F420918901309179
S1130BF08A012F5F3F4F30938A0120938901982FF8
S1130C009F7709F46FC091E0843808F490E02CE7F2
S1130C10929F800D1124811101C0369A1ABA8FEF68
S1130C208BBB80E788BB89EF90E00197F1F700C0A8
S1130C30000089B390E020912701309128018217A8
S1130C40930709F464C080912601811164C089B3BB
S1130C50209163013091640190E08217930739F089
S1130C6089B390E02817390711F00E94170489B35B
S1130C7090E090936401809363018FEF8ABB80E7D7
S1130C8088BB13B880E883B983EF91E00197F1F74B
S1130C9000C00000809162018FB98FB190E0909301
S1130CA0900180938F01779BFECF80EC83B980E421
S1130CB083B981E788BB80E788BB0E946204FF9107
S1130CC0EF91BF91AF919F918F917F916F915F91C0
S1130CD04F913F912F910F900BBE0F900FBE0F902D
S1130CE01F9018950E9461028091040188BB8CEFCB
S1130CF08BBB87EA91E60197F1F700C00000809171
S1130D005D018F5F80935D01809165017CCF81E0FF
S1130D1080932601B2CF0E94170410922601A7CF18
S1130D205D9BFECF8CB95D9BFECF089590919B0097
S1130D3095FFFCCF80939C0080919B0085FFFCCFA6
S1130D400895FC019081992349F031965D9BFECF73
S1130D509CB95D9BFECF91919111F8CF0895FC0150
S1130D602081222371F0319690919B0095FFFCCF56
S1130D7020939C0090919B0095FFFCCF2191211121
S1130D80F3CF08959C01FC014491442369F001963A
S1130D90F90124915D9BFECF2CB95D9BFECF9C0194
S1130DA0FC0144914111F3CF08958AB188698AB94D
S1130DB0E5E9F0E08081866080831092900087E608
S1130DC089B90895EAE9F0E0808188618083EDE9DA
S1130DD0F0E08081866080831092980087E680939B
S1130DE09900089580E89EE302C0019721F05F9B7B
S1130DF0FCCF8CB1089580E0089580E89EE302C0A2
S1130E00019739F020919B0027FFFACF80919C0035
S1130E10089580E0089591E0811101C090E09FB9A8
S1130E20779BFECF6FB9779BFECF8091620088607D
S1130E308093620080916200877F809362000895AE
S1130E40CF93C09167018C0F911DFC01608181E0FB
S1130E500E940B0781E08C0F80936701803189F039
S1130E60803211F0CF91089585ED8A95F1F7000055
S1130E7060E880E00E940B071092670180E0CF9148
S1130E800895F5EDFA95F1F7000060EC80E00E941A
S1130E900B0780916701E4CFEF92FF920F931F93AA
S1130EA0CF93DF931F92CDB7DEB7182F660F660F6F
S1130EB0660F605C80E099830E940B0785ED8A953C
S1130EC0F1F70000E12E9981F92E8701085F1F4F89
S1130ED0F70161917F0181E00E940B07F5EDFA951E
S1130EE0F1F70000E016F10699F70F90DF91CF912A
S1130EF01F910F91FF90EF90089590E4899F600DEA
S1130F001124605C80E00C940B07CF938823B9F123
S1130F10C82F843698F48A30D8F48DECC89F812D7C
S1130F2011248695869586956C2F2AE0829F6019F8
S1130F301124605D81E0CF910C940B0769E2869FD8
S1130F40612D112462956F70605D81E00E940B0732
S1130F5089E2C89F812D112482958F709C2F24E6ED
S1130F60829F901911246DEC969F612D1124669532
S1130F7066956695605D81E00E940B07CECF60E3C5
S1130F8081E0CF910C940B07CF9387FD03C0CF91E1
S1130F900C948507C82F6DE281E00E940B0785ED54
S1130FA08A95F1F700008C2F8195CF910C948507D9
S1130FB06EE080E00C940B076CE080E00C940B076F
S1130FC06EE180E00C940B0768E180E00C940B0761
S1130FD0E2E6F0E08081886080838081877F80837F
S1130FE0089561E080E00E940B078FE19CE1019786
S1130FF0F1F700C00000089562E080E00E940B0752
S11310008FE697E10197F1F700C00000089560ECC6
S113101080E00C940B0760E880E00C940B07CF93FE
S1131020C0E160E281E00E940B0785ED8A95F1F74B
S11310300000C150B1F7CF910895682F81E00C945E
S11310400B070F931F93CF938C0140E050E0C0E057
S1131050F801E40FF51F608181E00E940B0785ED24
S11310608A95F1F70000CF5F4C2F50E0F801019012
S11310700020E9F79F01201B310B2250310924176E
S1131080350730F7CF911F910F9108958FEF99EFA6
S11310900197F1F700C0000088E08093610060E3ED
S11310A080E00E940B078FE59DE60197F1F700C0F1
S11310B0000060E380E00E940B078FE59DE6019746
S11310C0F1F700C0000060E380E00E940B078FE5A9
S11310D09DE60197F1F700C0000068E380E00E94FC
S11310E00B078FE19EE40197F1F700C0000068E070
S11310F080E00E940B078FE19EE40197F1F700C0A6
S1131100000061E080E00E940B078FE19EE40197FC
S1131110F1F700C0000066E080E00E940B078FE159
S11311209EE40197F1F700C000006CE080E00E94AB
S11311300B078FE19EE40197F1F700C000000895CA
S11311408F929F92AF92BF92CF92DF92EF92FF92D3
S11311500F931F93CF93DF93CDB7DEB769970FB685
S1131160F894DEBF0FBECDBFF42E122F002359F02A
S11311704B015C018824B7FC83949924AA24BB24E2
S1131180082D97FD8FC0112309F484C09E012F5FA1
S11311903F4F6901590188248A94810E912C3FEFB5
S11311A0831A930A8C0C9D1C2AE030E040E050E046
S11311B00E941316E62F2A8B3B8B4C8B5D8B6A891E
S11311C07B898C899D8920E32E0FF50121935F0192
S11311D0E815F90549F7BB24B394B10EF601E10F04
S11311E0F11D2EE220832AE030E040E050E00E942E
S11311F01316E62F2A8B3B8B4C8B5D8B6E8B7F8B70
S1131200888F998F6A897B898C899D8911E01B0D50
S1131210D601AB0DB11DE05DEC93B12E61157105E6
S11312208105910501F7FF2061F0E11039C080E2EA
S11312301F1538F4F601E10FF11D80831F5F1F11A4
S1131240F9CF002331F0F601E10FF11D8DE2808327
S11312501F5F1150F601E10FF11D608181E00E94D2
S11312600B0735ED3A95F1F700001111F2CF6996AD
S11312700FB6F894DEBF0FBECDBFDF91CF911F91A3
S11312800F91FF90EF90DF90CF90BF90AF909F9021
S11312908F900895B12C9E012F5F3F4F6901A3CF1A
S11312A080E3C6CF90958095709561957F4F8F4F61
S11312B09F4F69CF5F926F927F928F929F92AF926E
S11312C0BF92CF92DF92EF92FF920F931F93CF932F
S11312D0DF93CDB7DEB761970FB6F894DEBF0FBECC
S11312E0CDBFA62E542E622E792E771C7724771C20
S11312F0B72CC72CD12CEE27FF27EC19FD098E271C
S11313009F27FC01EC0DFD1D442309F48EC0CE0182
S113131001967C018C0188248A94840E912C9FEF81
S1131320891A990A8E0C9F1C6AE070E0CF010E9412
S1131330FF15262FE22FF72F805DD8018D938D01A5
S1131340A815B90589F701E0050DD701A50DB11D53
S11313508EE28C936AE070E0CF010E94FF15262F85
S1131360E22FF72F11E0100FD701A00FB11D805D00
S11313708C93012F309771F7611015C0772039F0E5
S113138011E0100FF701E00FF11D8DE28083AA2018
S113139041F1812F90E02A2D30E0821793070CF55C
S11313A0B12C40E20CC0AA20A1F0812F90E02A2D9C
S11313B030E02C193D09821793075CF440E31F5F6A
S11313C0F701E80FF91F4083812F90E082179307FC
S11313D0B4F3BB2031F0F701E10FF11D8DE28083FE
S11313E01F5F1150F701E10FF11D608181E00E9440
S11313F00B0795ED9A95F1F700001111F2CF619664
S11314000FB6F894DEBF0FBECDBFDF91CF911F9111
S11314100F91FF90EF90DF90CF90BF90AF909F908F
S11314208F907F906F905F90089500E0CE010196B9
S11314307C0190CF1F920F920FB60F9211240BB61E
S11314400F922F933F938F939F93AF93BF93EF93F9
S1131450FF93E09171008E2F90E0FC013897E13505
S1131460F105B0F08091710080938A0284E080934A
S11314707400FF91EF91BF91AF919F918F913F9134
S11314802F910F900BBE0F900FBE0F901F901895C9
S1131490EA5BFF4F0C94321680916801E0918B0255
S11314A0F0918C02E80FF11D80917300808384E930
S11314B080937400DECF80918D028093730010922C
S11314C0680185E880937400D4CF8091680190917D
S11314D08E02891760F7E0918B02F0918C0291E003
S11314E0980F90936801E80FF11D80818093730039
S11314F085E880937400BDCF85EA80937400B9CFEA
S11315002091680180918E0230E090E001972817C5
S11315103907DCF485EC80937400ABCFE0918B0247
S1131520F0918C028091680121E0280F20936801DA
S1131530E80FF11D80917300808380918E0230E06A
S113154090E00197281739072CF385E880937400FD
S113155090CF80917400817008959091740090FDF3
S1131560FCCF8E7F80938D0270938C0260938B02EC
S113157040938E0285EA80937400089590917400DC
S113158090FDFCCF816080938D0270938C026093F8
S11315908B0240938E0285EA8093740008958FEF46
S11315A080937300109271008CE080937000089512
S11315B0929A10928A011092890190E0909382018C
S11315C0809381010895582F929810928A01109265
S11315D0890130E03093820120938101842F90E0CF
S11315E08930910518F01BBC1ABC089589569F4F89
S11315F0FC01852F550F990BAA0BBB0B0C943216CB
S1131600FC01E154F109E730F10578F7E056FF4FAA
S11316100C943216FC01E154F109E730F10528F786
S1131620E955FF4F0C943216FC01E154F109E730FF
S1131630F105D8F6E255FF4F0C943216FC01E15443
S1131640F109E730F10588F6EB54FF4F0C9432169C
S1131650FC01E154F109E730F10538F6E454FF4F99
S11316600C943216FC01E154F109E730F10508F05D
S1131670BCCFED53FF4F0C943216FC01E154F10939
S1131680E730F10508F0B1CFE653FF4F0C94321662
S1131690FC01E154F109E730F10508F0A6CFEF525F
S11316A0FF4F0C943216FC01E154F109E730F105C7
S11316B008F09BCFE852FF4F0C94321688E590E077
S11316C09BBD8ABD0895662309F40FC283E690E0AA
S11316D09BBD8ABD0895662309F411C28FE690E08C
S11316E09BBD8ABD089586E790E09BBD8ABD0895A1
S11316F0662309F4FFC18AE490E09BBD8ABD089586
S1131700662309F401C283E590E09BBD8ABD089578
S1131710662309F4B8C182E490E09BBD8ABD0895B4
S113172081EB90E09BBD8ABD0895662309F4D3C183
S113173085E890E09BBD8ABD0895662309F4C1C184
S113174085E990E09BBD8ABD0895662309F4BEC176
S113175087EA90E09BBD8ABD089584E691E09BBD35
S11317608ABD0895662309F4BBC180EE90E09BBD59
S11317708ABD08958DEE90E09BBD8ABD08956623D1
S113178009F48BC187EC90E09BBD8ABD0895662364
S113179009F474C180E991E09BBD8ABD0895662374
S11317A009F4CBC184E893E09BBD8ABD0895662308
S11317B009F4AFC18BE291E09BBD8ABD0895662315
S11317C009F4B1C182EA92E09BBD8ABD08958CED13
S11317D091E09BBD8ABD0895662309F459C187E150
S11317E092E09BBD8ABD0895662309F4B0C188E5E3
S11317F092E09BBD8ABD08958AEC92E09BBD8ABDB0
S11318000895662309F435C186E496E09BBD8ABD3C
S11318100895662309F482C18AE097E09BBD8ABDDE
S1131820089586E995E09BBD8ABD08958AEB93E00F
S11318309BBD8ABD0895662309F47AC181EC91E0C9
S11318409BBD8ABD0895662309F47CC18BE091E0B9
S11318509BBD8ABD0895662309F47EC180E591E0AD
S11318609BBD8ABD0895662309F4ADC182E293E06D
S11318709BBD8ABD089586E797E09BBD8ABD089508
S1131880662309F40FC18EEC92E19BBD8ABD0895D5
S1131890662309F47AC18DE195E19BBD8ABD089563
S11318A0662309F4DCC080E698E09BBD8ABD0895F8
S11318B0662309F492C180E190E09BBD8ABD08953E
S11318C08EE29BE09BBD8ABD0895662309F449C15D
S11318D08BE190E09BBD8ABD08958CE190E09BBDB7
S11318E08ABD0895662309F441C187E090E09BBD59
S11318F08ABD0895662309F4DAC08BE090E09BBDAD
S11319008ABD089582E190E09BBD8ABD0895662357
S113191009F49BC089E199E19BBD8ABD08956623C2
S113192009F429C180E39CE19BBD8ABD08958CED37
S11319309DE19BBD8ABD08958AE390E09BBD8ABD6D
S11319400895662309F435C180E290E09BBD8ABD09
S11319500895662309F432C184E290E09BBD8ABDF8
S11319600895662309F476C089E290E09BBD8ABDA0
S11319700895662309F478C081E390E09BBD8ABD95
S113198008958BE290E09BBD8ABD0895662309F417
S113199093C087E390E09BBD8ABD0895662309F454
S11319A04FC088E190E09BBD8ABD0895662309F489
S11319B0F6C082EB94E09BBD8ABD0895662309F4CA
S11319C016C18DE89AE09BBD8ABD0895662309F48B
S11319D0D7C086E19EE09BBD8ABD0895662309F4C5
S11319E0F7C080EC90E19BBD8ABD0895662309F49D
S11319F0D1C08FE294E09BBD8ABD0895662309F4AB
S1131A00F1C087E699E09BBD8ABD0895662309F479
S1131A10CBC08DE89CE09BBD8ABD08958DE596E121
S1131A209BBD8ABD0895662309F4E6C086E495E06B
S1131A309BBD8ABD08958DEE9EE09BBD8ABD089531
S1131A4085E190E09BBD8ABD089582EB97E19BBD43
S1131A508ABD089586E290E09BBD8ABD089587EE15
S1131A6097E09BBD8ABD08958EE290E09BBD8ABD40
S1131A7008958BEE95E09BBD8ABD08958AE791E0B9
S1131A809BBD8ABD08958EE390E09BBD8ABD0895F9
S1131A9089EF91E09BBD8ABD08958CEB90E09BBDDE
S1131AA08ABD089580EC91E19BBD8ABD089589E0CB
S1131AB090E09BBD8ABD089584E390E09BBD8ABD00
S1131AC008958DE890E09BBD8ABD08958EE990E06D
S1131AD09BBD8ABD08958DE790E09BBD8ABD0895A6
S1131AE083ED90E09BBD8ABD08958DE590E09BBD9C
S1131AF08ABD089586E490E09BBD8ABD089589E679
S1131B0090E09BBD8ABD08958EE490E09BBD8ABDA4
S1131B1008958BE191E09BBD8ABD089585EA96E026
S1131B209BBD8ABD08958CE792E09BBD8ABD089554
S1131B3088EA91E09BBD8ABD089582E593E09BBD50
S1131B408ABD08958CEF90E09BBD8ABD089587E31C
S1131B5092E09BBD8ABD08958DE391E09BBD8ABD53
S1131B60089589E190E09BBD8ABD089585E090E0E9
S1131B709BBD8ABD08958AE99AE19BBD8ABD0895FB
S1131B808CE49DE09BBD8ABD08958DEE93E19BBDE1
S1131B908ABD089583EF93E09BBD8ABD08958FE6C7
S1131BA094E09BBD8ABD089588ED9BE09BBD8ABDF2
S1131BB008958EE190E09BBD8ABD089582E290E095
S1131BC09BBD8ABD089585EF92E09BBD8ABD0895B3
S1131BD080ED9FE09BBD8ABD08958DE090E09BBDA4
S1131BE08ABD08958FED98E09BBD8ABD089586EF68
S1131BF099E09BBD8ABD08958AEF94E09BBD8ABDA0
S1131C0008958634910520F08FEF80937D01089527
S1131C10FC01E152FF4F0C94321622E044E060E0F4
S1131C2081E40C94E30A26E044E060E081E40C944F
S1131C30E30A22E044E061E081E40C94E30A28E052
S1131C4044E060E084E40C94E30A28E044E060E0CB
S1131C5086E40C94E30A26E044E061E082E40C9418
S1131C60E30A28E044E060E083E40C94E30A28E01B
S1131C7044E060E081E40C94E30A28E044E060E09E
S1131C8087E40C94E30A28E044E060E085E40C94E3
S1131C90E30A20E144E060E081E40C94E30A24E0F8
S1131CA045E060E083E40C94E30A24E045E060E06E
S1131CB084E40C94E30A929A10928A0110928901A6
S1131CC088E090E090938201809381010895929A34
S1131CD010928A011092890181E090E09093820130
S1131CE080938101089520E144E061E082E40C9452
S1131CF0E30A28E044E061E082E40C94E30A28E18A
S1131D0044E060E087E40C94E30A20E145E060E00D
S1131D1084E40C94E30A929A10928A011092890145
S1131D2082E090E09093820180938101089524E001
S1131D3044E060E081E40C94E30A26E044E060E0DF
S1131D4087E40C94E30A24E044E061E087E40C9423
S1131D50E30A28E044E061E087E40C94E30A23E02A
S1131D6044E060E087E40C94E30A20E144E060E0AE
S1131D7084E40C94E30A20E145E060E083E40C94FD
S1131D80E30A22E044E061E082E40C94E30A24E004
S1131D9045E061E084E40C94E30A24E044E061E07B
S1131DA081E40C94E30A28E044E060E082E40C94CB
S1131DB0E30A28E144E060E086E40C94E30A27E0C7
S1131DC044E060E087E40C94E30A8F33910520F04B
S1131DD08FEF80937D010895FC01EB5DFE4F0C9421
S1131DE0321624E044E060E083E40C94E30A28E043
S1131DF044E060E085E40C94E30A929A10928A012C
S1131E001092890181E090E0909382018093810196
S1131E10089528E044E060E084E40C94E30A20E1BF
S1131E2043E060E083E40C94E30A24E044E060E0EF
S1131E3084E40C94E30A24E043E060E082E40C943C
S1131E40E30A27E043E060E081E40C94E30A24E041
S1131E5044E060E086E40C94E30A20E142E060E0C0
S1131E6082E40C94E30A20E143E060E081E40C9412
S1131E70E30A28E044E060E083E40C94E30A20E110
S1131E8043E060E084E40C94E30A20E143E060E092
S1131E9085E40C94E30A929A10928A0110928901C3
S1131EA088E090E09093820180938101089527E077
S1131EB043E060E082E40C94E30A2CE043E060E059
S1131EC082E40C94E30A20E143E061E081E40C94B1
S1131ED0E30A929A10928A011092890180E190E0BB
S1131EE09093820180938101089524E044E060E0AE
S1131EF087E40C94E30A28E042E060E082E40C9476
S1131F00E30A20E142E060E081E40C94E30A20E18A
S1131F1042E061E081E40C94E30A2CE044E060E0F8
S1131F2085E40C94E30A22E044E060E084E40C9449
S1131F30E30A22E044E060E085E40C94E30A28E04C
S1131F4043E060E083E40C94E30A24E043E060E0CF
S1131F5081E40C94E30A28E043E060E085E40C9417
S1131F60E30A28E043E060E081E40C94E30A929AF7
S1131F7010928A011092890184E090E0909382018A
S1131F8080938101089528E044E060E081E40C94AA
S1131F90E30A8539910520F08FEF80937D01089540
S1131FA0FC01EC59FE4F0C94321624E043E060E04F
S1131FB087E40C94E30A22E043E060E081E40C94BB
S1131FC0E30A929A10928A011092890182E090E0C9
S1131FD09093820180938101089522E044E060E0BF
S1131FE083E40C94E30A22E044E060E085E40C948A
S1131FF0E30A24E044E060E084E40C94E30A22E091
S113200044E060E083E40C94E30A929A10928A011B
S11320101092890182E090E0909382018093810183
S1132020089522E044E060E083E40C94E30A929A89
S113203010928A011092890182E090E090938201CB
S113204080938101089522E044E060E083E40C94ED
S1132050E30A929A10928A011092890181E090E039
S11320609093820180938101089522E044E060E02E
S113207083E40C94E30A929A10928A0110928901E3
S113208080E190E09093820180938101089522E0A1
S113209044E060E085E40C94E30A22E044E060E07C
S11320A084E40C94E30A22E044E060E083E40C94CA
S11320B0E30A929A10928A011092890182E090E0D8
S11320C09093820180938101089522E044E060E0CE
S11320D083E40C94E30A929A10928A011092890183
S11320E082E090E09093820180938101089522E040
S11320F044E060E083E40C94E30A929A10928A012B
S11321001092890181E090E0909382018093810193
S1132110089522E044E060E083E40C94E30A929A98
S113212010928A011092890184E090E090938201D8
S113213080938101089524E043E060E087E40C94F7
S1132140E30A22E043E060E081E40C94E30A929A1B
S113215010928A011092890182E090E090938201AA
S113216080938101089522E044E060E083E40C94CC
S1132170E30A22E044E060E085E40C94E30A24E00E
S113218044E060E084E40C94E30A22E044E060E08C
S113219083E40C94E30A929A10928A0110928901C2
S11321A082E090E09093820180938101089522E07F
S11321B044E060E083E40C94E30A929A10928A016A
S11321C01092890182E090E09093820180938101D2
S11321D0089522E044E060E083E40C94E30A929AD8
S11321E010928A011092890181E090E0909382011B
S11321F080938101089522E044E060E083E40C943C
S1132200E30A929A10928A01109289018AE090E07E
S11322109093820180938101089524E044E060E07A
S113222083E40C94E30A929A10928A011092890131
S113223084E090E09093820180938101089522E0EC
S113224044E060E084E40C94E30A929A10928A01D8
S11322501092890182E090E0909382018093810141
S1132260089524E044E061E085E40C94E30A929A42
S113227010928A011092890184E090E09093820187
S113228080938101089522E044E060E084E40C94AA
S1132290E30A22E044E060E083E40C94E30A22E0F1
S11322A043E060E081E40C94E30A929A10928A017C
S11322B01092890182E090E09093820180938101E1
S11322C0089522E044E060E083E40C94E30A22E011
S11322D043E060E081E40C94E30A22E043E061E03F
S11322E081E40C94E30A929A10928A011092890173
S11322F082E090E09093820180938101089522E02E
S113230044E060E085E40C94E30A929A10928A0116
S11323101092890182E090E0909382018093810180
S1132320089522E044E061E085E40C94E30A22E0AD
S113233044E060E086E40C94E30A22E044E061E0D7
S113234087E40C94E30A22E044E060E087E40C9420
S1132350E30A929A10928A011092890188E090E02F
S11323609093820180938101089524E044E060E029
S113237087E40C94E30A929A10928A0110928901DC
S113238081E090E09093820180938101089521E09F
S113239044E060E087E40C94E30A929A10928A0184
S11323A01092890182E090E09093820180938101F0
S11323B0089522E044E060E087E40C94E30A929AF2
S11323C010928A011092890182E090E09093820138
S11323D080938101089522E043E060E085E40C9459
S11323E0E30A929A10928A011092890182E090E0A5
S11323F09093820180938101089522E043E061E09B
S113240085E40C94E30A22E043E060E086E40C9463
S1132410E30A22E043E061E087E40C94E30A22E06B
S113242043E060E087E40C94E30A929A10928A01F4
S11324301092890184E090E090938201809381015D
S1132440089522E044E060E084E40C94E30A22E08E
S113245044E060E083E40C94E30A22E043E060E0BB
S113246081E40C94E30A929A10928A0110928901F1
S113247082E090E09093820180938101089522E0AC
S113248044E060E083E40C94E30A22E043E060E08B
S113249081E40C94E30A22E043E061E081E40C94DB
S11324A0E30A929A10928A011092890182E090E0E4
S11324B09093820180938101089522E044E060E0DA
S11324C085E40C94E30A929A10928A01109289018D
S11324D082E090E09093820180938101089522E04C
S11324E044E061E085E40C94E30A22E044E060E027
S11324F086E40C94E30A22E044E061E087E40C946F
S1132500E30A22E044E060E087E40C94E30A929A50
S113251010928A011092890188E090E090938201E0
S113252080938101089522E043E060E082E40C940A
S1132530E30A22E044E060E084E40C94E30A22E04D
S113254044E060E083E40C94E30A929A10928A01D6
S11325501092890182E090E090938201809381013E
S1132560089522E044E060E085E40C94E30A929A42
S113257010928A011092890182E090E09093820186
S113258080938101089522E044E060E087E40C94A4
S1132590E30A22E044E060E086E40C94E30A24E0E9
S11325A044E060E081E40C94E30A22E044E060E06B
S11325B087E40C94E30A929A10928A01109289019A
S11325C081E090E09093820180938101089522E05C
S11325D044E060E085E40C94E30A23E043E060E037
S11325E087E40C94E30A24E043E060E081E40C9483
S11325F0E30A22E043E061E082E40C94E30A929A65
S113260010928A011092890182E090E090938201F5
S113261080938101089522E043E060E082E40C9419
S1132620E30A929A10928A011092890182E090E062
S11326309093820180938101089522E043E060E059
S113264081E40C94E30A929A10928A01109289010F
S113265082E090E09093820180938101089524E0C8
S113266043E060E085E40C94E30A929A10928A01B4
S11326701092890183E090E090938201809381011C
S1132680089522E043E060E087E40C94E30A929A20
S113269010928A011092890182E090E09093820165
S11326A080938101089525E044E060E083E40C9484
S11326B0E30A929A10928A011092890184E090E0D0
S11326C09093820180938101089522E043E060E0C9
S11326D082E40C94E30A22E044E060E084E40C9495
S11326E0E30A22E044E060E083E40C94E30A929A73
S11326F010928A011092890182E090E09093820105
S113270080938101089522E044E060E085E40C9424
S1132710E30A929A10928A011092890182E090E071
S11327209093820180938101089522E044E060E067
S113273087E40C94E30A22E044E060E086E40C942D
S1132740E30A24E044E060E081E40C94E30A22E03C
S113275044E060E087E40C94E30A929A10928A01C0
S11327601092890181E090E090938201809381012D
S1132770089522E044E060E085E40C94E30A23E059
S113278043E060E087E40C94E30A24E043E060E083
S113279081E40C94E30A22E043E061E082E40C94D7
S11327A0E30A929A10928A011092890182E090E0E1
S11327B09093820180938101089522E043E060E0D8
S11327C082E40C94E30A929A10928A01109289018D
S11327D082E090E09093820180938101089522E049
S11327E043E060E081E40C94E30A929A10928A0137
S11327F01092890182E090E090938201809381019C
S1132800089524E043E060E085E40C94E30A929A9E
S113281010928A011092890184E090E090938201E1
S113282080938101089522E043E060E087E40C9402
S1132830E30A25E044E060E083E40C94E30A929A1E
S113284010928A011092890188E090E090938201AD
S113285080938101089528E042E060E087E40C94CD
S1132860E30A28E044E060E087E40C94E30A24E00F
S113287044E060E085E40C94E30A22E044E060E094
S113288083E40C94E30A929A10928A0110928901CB
S113289082E090E09093820180938101089522E088
S11328A044E060E085E40C94E30A929A10928A0171
S11328B01092890181E090E09093820180938101DC
S11328C0089523E044E060E085E40C94E30A929ADE
S11328D010928A011092890181E090E09093820124
S11328E080938101089521E044E060E085E40C9444
S11328F0E30A929A10928A011092890188E090E08A
S1132900909382018093810108958F31910520F085
S11329108FEF80937D010895FC01E750FE4F0C94E6
S11329203216929A10928A011092890181E090E005
S11329309093820180938101089524E045E060E052
S113294085E40C94E30A27E044E060E085E40C9419
S1132950E30A27E044E061E085E40C94E30A929AF8
S113296010928A011092890185E090E0909382018F
S113297080938101089528E045E060E085E40C94AB
S1132980E30A23E044E061E085E40C94E30A23E0F5
S113299044E060E085E40C94E30A28E045E060E06C
S11329A087E40C94E30A24E045E061E085E40C94B8
S11329B0E30A23E045E060E085E40C94E30A24E0C4
S11329C045E061E087E40C94E30A28E045E061E037
S11329D087E40C94E30A813089F060F0823031F0AE
S11329E0833041F4862F90E00C948514862F90E078
S11329F00C94C90F862F90E00C94010E862F90E062
S1132A000C94E50E10927D018EB58C7F8EBD929A4A
S1132A10089510927D018EB583608EBD9298609169
S1132A207D0180917E010C94EB1487B7806187BF90
S1132A301FBC8EB588608EBD10927A0081E390E051
S1132A409BBD8ABD10927D018EB58C7F8EBD929AFE
S1132A5010928A01109289011092820110928101D0
S1132A6010927D0110927E0108958091610088602A
S1132A70809361000E94D50687B3876087BB8DB1C0
S1132A8080658DB9709A0E94F1070E94FC070E942C
S1132A90CF0A80E98093860242E066E872E00E94F1
S1132AA0AD0A83EF91E00197F1F700C00000CFEF8A
S1132AB0CABB87EF87BB80EC82B990E493B987B730
S1132AC0816087BF83B7816083BF80B7886080BF20
S1132AD085B58B6685BD80916100816080936100BE
S1132AE081E08093620097B98FE886B980E58DB95B
S1132AF0C1BB0E941515139A80918B008268809344
S1132B008B0080918A008A6080938A0080918C0077
S1132B1080938C0088EE93E09093870080938600E6
S1132B200E9446080E94F1078DE291E00E9421086C
S1132B307894CABB80E788BB78940CE018E0CCEBAF
S1132B40D2E0EE24E3948AE0F82E20C00E945E03D3
S1132B50E0E4F1E0A9E6B1E0812F01900D928A95BD
S1132B60E1F7D0932101C09320018091560188237D
S1132B7009F440C00E941705909125018091240119
S1132B80981719F110925B010E94D404809183017B
S1132B90811124C080915B018111D8CF0E945E0312
S1132BA0E8E4F1E0A9E6B1E0802F01900D928A9566
S1132BB0E1F70E940215109256010E9417059091A8
S1132BC02501809124019813DDCF90915C018091BF
S1132BD023019813D7CFE0925B01D6CF0E94A502C0
S1132BE0E6E3F1E0A9E6B1E08F2D01900D928A951C
S1132BF0E1F7C0CF0E940915E0925601BBCF97FBC5
S1132C00072E16F4009407D077FD09D00E944A16C7
S1132C1007FC05D03EF4909581959F4F08957095DB
S1132C2061957F4F0895052E97FB1EF400940E9432
S1132C302A1657FD07D00E945E1607FC03D04EF4F7
S1132C400C942A1650954095309521953F4F4F4F3F
S1132C505F4F089590958095709561957F4F8F4F44
S1132C609F4F0895EE0FFF1F0024001C0BBE07901A
S1132C70F691E02D0994A29FB001B39FC001A39FD8
S1132C80700D811D1124911DB29F700D811D1124A1
S1132C90911D0895AA1BBB1B51E107C0AA1FBB1FAE
S1132CA0A617B70710F0A61BB70B881F991F5A95D4
S1132CB0A9F780959095BC01CD010895A1E21A2E43
S1132CC0AA1BBB1BFD010DC0AA1FBB1FEE1FFF1FCC
S1132CD0A217B307E407F50720F0A21BB30BE40B1C
S1132CE0F50B661F771F881F991F1A9469F7609563
S1132CF07095809590959B01AC01BD01CF0108951D
S1132D00FB01DC018D91019080190110D9F3990B1D
S1132D100895FB01DC0101900D920020E1F7089574
S1132D20BB274A3031F4992322F4BDE29095819572
S1132D309F4F0C949C16BB27FB015527AA27880F8D
S1132D40991FAA1FA41710F0A41B83955051B9F71B
S1132D50A05DAA3308F0A95DA193009779F7B1119A
S1132D60B1931192CB010C94B516DC01FC01672FD1
S1132D7071917723E1F7329704C07C916D9370834E
S1112D806291AE17BF07C8F30895F894FFCF11
S1132D8E001030402070C0F9A4B0999283F8809856
S1132D9E8883C6A1868EC0F9A4B0999283F88098D0
S1132DAE64006E140C0C01FF00610068004D6F6826
S1132DBE616D6D65640073657420616C61726D0084
S1132DCE57616B65205550002020202020202020A4
S1072DDE202020008D
S9030000FC
