S01900006865617274696E745F736B656C65746F6E2E73726563E8
S11300000C9446000C945D000C945D000C945D000F
S11300100C945D000C945D000C945D000C945D00E8
S11300200C945D000C945D000C945D000C945D00D8
S11300300C945D000C945D000C945D000C945D00C8
S11300400C945D000C945D000C945D000C945D00B8
S11300500C945D000C945D000C945D000C945D00A8
S11300600C945D000C945D000C945D000C945D0098
S11300700C945D000C945F000C945D000C945D0086
S11300800C945D000C945D000C945D0011241FBE63
S1130090CFEFD0E1DEBFCDBF11E0A0E0B1E0E8E0FA
S11300A0F1E000E00BBF02C007900D92A431B1074C
S11300B0D9F70E9469000C9482000C9400001F92EE
S11300C00F920FB60F9211240F900FBE0F901F9036
S11300D0189580E187BB8FB58E608FBD8EB58EBDC0
S11300E010927A0080E090EF97BD86BD10928B004D
S11300F082E080938A0010928C008FEF80937D00C1
S10B01007894FFCFF894FFCFBF
S1130108000100A100B1C10000D100E1000F000A04
S1070118000B000CC8
S9030000FC
