S01000006C6162335F6261722E737265631E
S11300000C9446000C9465000C9465000C946500F7
S11300100C9465000C9465000C9465000C946500C8
S11300200C9465000C9465000C9465000C946500B8
S11300300C9465000C9465000C9465000C946500A8
S11300400C9480000C9465000C9465000C9465007D
S11300500C9465000C9465000C9465000C94650088
S11300600C9465000C9465000C9465000C94650078
S11300700C9465000C9465000C9465000C94650068
S11300800C9465000C9465000C94650011241FBE4B
S1130090CFEFD0E1DEBFCDBF11E0A0E0B1E0E8EFEB
S11300A0F3E000E00BBF02C007900D92AA30B10745
S11300B0D9F721E0AAE0B1E001C01D92AD31B20749
S11300C0E1F70E94D6000C94FA010C9400001E98EB
S11300D008951E9A08951F9808951F9A08951E98CA
S11300E01F9A8FE39FE10197F1F700C000008FE0B2
S11300F08FB9779BFECF1E9A1F98C09AC098089517
S11301001F920F920FB60F9211240BB60F922F93DA
S11301103F934F935F936F937F938F939F93AF938B
S1130120BF93EF93FF930E946F00FF91EF91BF91F4
S1130130AF919F918F917F916F915F914F913F917B
S11301402F910F900BBE0F900FBE0F901F9018951C
S1130150482FE82FF0E099B3EE0FFF1FE35FFE4F47
S113016020813181220F331F306E892F90E002C02D
S1130170959587954A95E2F781709927282B392B15
S11301803183208381E02115304F09F080E0089508
S113019080910B0190910C018115944034F081E021
S11301A090E090930C0180930B0108958FEF8ABB2C
S11301B090EF97BB90E798BB8BBB82B1806C82B900
S11301C084E083B913B887B7816087BF83B786603B
S11301D083BF80E58DB9789430910B0120910C0197
S11301E01FEF40E4D42ECAE0D0E050E3F52E00E146
S11301F060E7C62EEE24EA9470EFB72E8824839429
S1130200912C832F922FEABAB7BA18BAEBBAEFE956
S1130210FFE03197F1F700C0000018161906DCF46E
S113022020E030E02115310509F072C018BA1BBB7B
S1130230BE010E94D201FC01E050FF4F80818BBBC4
S1130240CB012F5F3F4FEFE9FFE03197F1F700C09B
S11302500000009739F7C8BA1ABA1BBB80910B018A
S113026090910C01ADE0B1E061E070E040E050E05D
S113027008C06830710509F43FC04F5F5F4F6F5F7E
S11302807F4F29B3ED91FC911197EE0FFF1FF06E94
S113029030E0042E02C0359527950A94E2F72170C8
S11302A033272E2B3F2B2D933D932115304F09F7E8
S11302B04115510509F447C04130510509F460C0A6
S11302C04230510509F468C04330510509F45EC059
S11302D04430510509F447C045305105F1F1463029
S11302E0510509F446C080589F4F90930C018093A8
S11302F00B016830710509F6811524E092070CF4AE
S113030082CF90920C0180920B0131E020E079CFF2
S11303102130310579F02230310579F0233031056F
S113032079F02F5F3F4FEFE9FFE03197F1F700C01D
S1130330000078CF18BA08BB7ACF18BAF8BA77CFCA
S113034018BAD8BA74CF019690930C0180930B011C
S113035080910B0190910C0190CF809690930C01A9
S113036080930B01F5CF409690930C0180930B0181
S1130370EFCF805C9F4F90930C0180930B01E8CFEB
S1130380029690930C0180930B01E2CF0896909310
S11303900C0180930B01DCCF049690930C018093A5
S11303A00B01D6CF97FB072E16F4009407D077FDE8
S11303B009D00E94E60107FC05D03EF49095819592
S11303C09F4F0895709561957F4F0895AA1BBB1B9D
S11303D051E107C0AA1FBB1FA617B70710F0A61B41
S11303E0B70B881F991F5A95A9F780959095BC0162
S10B03F0CD010895F894FFCF3C
S10D03F8C0F9A4B0999283F880982C
S9030000FC
