:100000000C9446000C9465000C9465000C946500FB
:100010000C9465000C9465000C9465000C946500CC
:100020000C9465000C9465000C9465000C946500BC
:100030000C9465000C9465000C9465000C946500AC
:100040000C9465000C9465000C9465000C9465009C
:100050000C9465000C9465000C9465000C9465008C
:100060000C9465000C9465000C9465000C9465007C
:100070000C9465000C9465000C9465000C9465006C
:100080000C9465000C9465000C94650011241FBE4F
:10009000CFEFD0E1DEBFCDBF11E0A0E0B1E0EEECEC
:1000A000FAE000E00BBF02C007900D92AA37B1073B
:1000B000D9F721E0AAE7B1E001C01D92AB3AB2073F
:1000C000E1F70E9490030C9465050C94000087B33F
:1000D000876087BB80E58DB981E08EB9089591E096
:1000E000811101C090E09FB9779BFECF6FB9779BDC
:1000F000FECF8091620088608093620080916200F0
:10010000877F809362000895CF93C0917A018C0F0E
:10011000911DFC01608181E00E946F0081E08C0FE5
:1001200080937A018031A1F0803211F0CF9108954F
:10013000E5EDEA95F1F7000060E880E00E946F00CD
:10014000F5EDFA95F1F7000010927A01CF9108953C
:10015000F5EDFA95F1F7000060EC80E00E946F0089
:1001600085ED8A95F1F7000080917A01DDCFEF925D
:10017000FF920F931F93CF93DF931F92CDB7DEB7FC
:10018000182F660F660F660F605C80E099830E94EF
:100190006F0085ED8A95F1F70000E12E9981F92E27
:1001A0008701085F1F4FF70161917F0181E00E9485
:1001B0006F00F5EDFA95F1F70000E016F10699F7FA
:1001C0000F90DF91CF911F910F91FF90EF900895C5
:1001D00090E4899F600D1124605C80E00C946F00B6
:1001E000CF938823B9F1C82F843698F48A30D8F495
:1001F0008DECC89F812D11248695869586956C2F50
:100200002AE0829F60191124605D81E0CF910C94F7
:100210006F0069E2869F612D112462956F70605DA9
:1002200081E00E946F0089E2C89F812D1124829590
:100230008F709C2F24E6829F901911246DEC969F5D
:10024000612D1124669566956695605D81E00E943A
:100250006F00CECF60E381E0CF910C946F00CF931D
:1002600087FD03C0CF910C94F000C82F6DE281E0B0
:100270000E946F0085ED8A95F1F700008C2F819523
:10028000CF910C94F0006EE080E00C946F006CE075
:1002900080E00C946F006EE180E00C946F0068E1E8
:1002A00080E00C946F00E2E6F0E08081886080835B
:1002B0008081877F8083089561E080E00E946F00E5
:1002C0008FE19CE10197F1F700C00000089562E022
:1002D00080E00E946F008FE697E10197F1F700C080
:1002E0000000089560EC80E00E946F0085ED8A9523
:1002F000F1F70000089560E880E00E946F0085ED4E
:100300008A95F1F700000895CF93C0E160E281E0A3
:100310000E946F0085ED8A95F1F70000C150B1F79A
:10032000CF910895682F81E00C946F000F931F9375
:10033000CF938C0140E050E0C0E0F801E40FF51FDE
:10034000608181E00E946F0085ED8A95F1F70000E1
:10035000CF5F4C2F50E0F80101900020E9F79F019A
:10036000201B310B225031092417350730F7CF916C
:100370001F910F9108958FEF99EF0197F1F700C04A
:10038000000088E08093610060E380E00E946F00DD
:100390008FE59DE60197F1F700C0000060E380E083
:1003A0000E946F008FE59DE60197F1F700C0000005
:1003B00060E380E00E946F008FE59DE60197F1F712
:1003C00000C0000068E380E00E946F008FE19EE4BF
:1003D0000197F1F700C0000068E080E00E946F0024
:1003E0008FE19EE40197F1F700C0000061E080E03A
:1003F0000E946F008FE19EE40197F1F700C00000BA
:1004000066E080E00E946F008FE19EE40197F1F7C3
:1004100000C000006CE080E00E946F008FE19EE46D
:100420000197F1F700C0000008958F929F92AF925C
:10043000BF92CF92DF92EF92FF920F931F93CF93D1
:10044000DF93CDB7DEB769970FB6F894DEBF0FBE66
:10045000CDBFF42E122F002359F04B015C018824EC
:10046000B7FC83949924AA24BB24082D97FD8FC040
:10047000112309F484C09E012F5F3F4F6901590188
:1004800088248A94810E912C3FEF831A930A8C0C56
:100490009D1C2AE030E040E050E00E94B604E62FC8
:1004A0002A8B3B8B4C8B5D8B6A897B898C899D89E0
:1004B00020E32E0FF50121935F01E815F90549F7B7
:1004C000BB24B394B10EF601E10FF11D2EE220839F
:1004D0002AE030E040E050E00E94B604E62F2A8B8C
:1004E0003B8B4C8B5D8B6E8B7F8B888F998F6A8952
:1004F0007B898C899D8911E01B0DD601AB0DB11D47
:10050000E05DEC93B12E611571058105910501F750
:10051000FF2061F0E11039C080E21F1538F4F601C8
:10052000E10FF11D80831F5F1F11F9CF002331F010
:10053000F601E10FF11D8DE280831F5F1150F6017E
:10054000E10FF11D608181E00E946F0035ED3A9569
:10055000F1F700001111F2CF69960FB6F894DEBFE3
:100560000FBECDBFDF91CF911F910F91FF90EF9004
:10057000DF90CF90BF90AF909F908F900895B12C57
:100580009E012F5F3F4F6901A3CF80E3C6CF9095B7
:100590008095709561957F4F8F4F9F4F69CF5F9288
:1005A0006F927F928F929F92AF92BF92CF92DF9283
:1005B000EF92FF920F931F93CF93DF93CDB7DEB7E8
:1005C00061970FB6F894DEBF0FBECDBF662E142F15
:1005D000592E551C5524551C752CA52CB12C2227A1
:1005E00033272A193B09822793279C012A0D3B1D9B
:1005F000442309F490C0CE0101967C016C0188244B
:100600008A94840E912C9FEF891A990A8E0C9F1C54
:100610006AE070E0C9010E948004462F242F372F22
:10062000805DF60181936F01E815F90589F7DD24F6
:10063000D394D10EF701E10FF11D8EE280836AE0C1
:1006400070E0C9010E948004462F242F372F11E04B
:100650001D0DF701ED0DF11D805D8083D12E21155B
:10066000310569F7011115C0552039F011E01D0D54
:10067000F701ED0DF11D8DE28083662041F1812FA0
:1006800090E0262D30E0821793070CF5712C40E2A4
:100690000CC06620A1F0812F90E0262D30E02A19B1
:1006A0003B09821793075CF440E31F5FF701E80FF3
:1006B000F91F4083812F90E082179307B4F37720CE
:1006C00031F0F701E10FF11D8DE280831F5F1150C2
:1006D000F701E10FF11D608181E00E946F0095ED4F
:1006E0009A95F1F700001111F2CF61960FB6F894C8
:1006F000DEBF0FBECDBFDF91CF911F910F91FF9055
:10070000EF90DF90CF90BF90AF909F908F907F90B1
:100710006F905F900895D12CCE0101967C018FCF10
:1007200087B3876087BB80E58DB981E08EB90E9471
:10073000BB01BF9AC79811BA80E090E0C0E0D0E05A
:1007400017E044E4E42EF12C5DE7852E912CA12CDA
:10075000B12C8130910509F454C08130910508F421
:1007600095C08230910509F474C08330910589F7F2
:10077000C798CE01A0E0B0E0880F991FAA1FBB1F49
:10078000880F991FAA1FBB1FBC01CD01660F771FE1
:10079000881F991FA50194010E94940429013A0120
:1007A0000E945C0106B602FC06C0411451046104BB
:1007B000710409F491C006B602FC83C089E491E09B
:1007C0000E9496010E94720100E020E040E063E098
:1007D000C2010E94CF0284E591E00E9496012FEFB2
:1007E00085EA9EE0215080409040E1F700C0000083
:1007F00080B38F3FE9F381E090E08130910509F00B
:10080000ACCF0E94BB0182E191E00E9496010E9460
:10081000720183E291E00E94960183B783BF17BE05
:1008200086B7816086BF13BF0E943405B7010E945E
:100830008004AB0146585F4F06B600FEFDCF86B779
:10084000816086BF41505109B9F713BE82E090E044
:1008500080CF8EB58EBD1FBC87B787BF10927D003D
:1008600086B7816086BF1DBC1CBC8EB585608EBD01
:10087000C79A03C080B38F3F19F406B602FEFACFC1
:10088000CCB5DDB51EBC83E090E063CF0E945C0177
:1008900084E091E00E9496010E94720182E191E061
:1008A0000E9496012FEF81EE94E02150804090400D
:1008B000E1F700C0000080B38F3FE9F381E090E0F2
:1008C0009CCF88E591E00E9496010E94720188E623
:1008D00091E00E94960183CF84E391E00E9496010B
:1008E0000E94720182E491E00E9496012FEF83ED55
:1008F00090E3215080409040E1F700C000006FCFAE
:1009000097FB072E16F4009407D077FD09D00E94BC
:10091000D50407FC05D03EF4909581959F4F08952E
:10092000709561957F4F0895A1E21A2EAA1BBB1BFB
:10093000FD010DC0AA1FBB1FEE1FFF1FA217B307AB
:10094000E407F50720F0A21BB30BE40BF50B661FC1
:10095000771F881F991F1A9469F760957095809585
:1009600090959B01AC01BD01CF010895052E97FB29
:100970001EF400940E94CD0457FD07D00E949404F9
:1009800007FC03D04EF40C94CD045095409530955F
:1009900021953F4F4F4F5F4F0895909580957095EB
:1009A00061957F4F8F4F9F4F0895AA1BBB1B51E14D
:1009B00007C0AA1FBB1FA617B70710F0A61BB70BCF
:1009C000881F991F5A95A9F780959095BC01CD0174
:1009D00008958F929F92AF92BF92CF92DF92EF9243
:1009E000FF92CF93DF93EC01688179818A819B81AB
:1009F000611571058105910521F464E279ED8BE5BE
:100A000097E02DE133EF41E050E00E94B604490148
:100A10005A019B01AC01A7EAB1E40E9443056B01B6
:100A20007C01ACEEB4EFA50194010E945105DC01FC
:100A3000CB018C0D9D1DAE1DBF1DB7FF03C00197DF
:100A4000A109B04888839983AA83BB839F77DF91EC
:100A5000CF91FF90EF90DF90CF90BF90AF909F909D
:100A60008F9008950C94E90480E091E00C94E904DF
:100A7000A0E0B0E08093000190930101A0930201F7
:100A8000B093030108950E945605A59F900DB49F51
:100A9000900DA49F800D911D11240895B7FF0C9413
:100AA00043050E944305821B930B0895A29FB0014A
:100AB000B39FC001A39F700D811D1124911DB29F92
:0E0AC000700D811D1124911D0895F894FFCF33
:100ACE00010000005245464C4558205445535445AC
:100ADE005200507265737320616E79206275747462
:100AEE006F6E006166746572204C4544206C6967B8
:100AFE00687473004E6F206368656174696E672158
:100B0E00210052657472793F00596F7572207469B5
:100B1E006D653A00206D73002054696D6572206515
:100B2E007870697265642E005072657373206274FA
:0A0B3E006E20746F207273740000C3
:00000001FF
