:100000000C9478000C9497000C9497000C94970033
:100010000C9497000C9497000C9497000C94970004
:100020000C9497000C9497000C9497000C949700F4
:100030000C9497000C9497000C9497000C949700E4
:100040000C947F040C9497000C9497000C949700E8
:100050000C9497000C9497000C9497000C949700C4
:100060000C9497000C9497000C9497000C949700B4
:100070000C9497000C9497000C9497000C949700A4
:100080000C9497000C9497000C949700B001B30166
:10009000B601B901BC01BF01C201C501AD01AA0190
:1000A0005802550252024F024C02490246024302D4
:1000B00040025B025802550252024F024C024902B2
:1000C0004602430240025B025802550252024F02AE
:1000D0004C0249024602430240025B0258025502AA
:1000E00052024F024C0249024602430240025B02A6
:1000F00011241FBECFEFD0E1DEBFCDBF11E0A0E0E5
:10010000B1E0EAE3FBE000E00BBF02C007900D9214
:10011000A230B107D9F721E0A2E0B1E001C01D9201
:10012000A633B207E1F70E9458050C949B050C9486
:100130000000C69A88B38F7C88BB089588B380631B
:1001400088BBC6980895C49A88B38F7988BB0895F0
:1001500088B38F7888BB089588B3806788BB08957B
:100160008FEF8ABBC49A88B38F7988BBC69A0895EB
:100170001ABA8FEF8BBB08951E9808951E9A0895A2
:100180001F9808951F9A0895809109019091080180
:10019000292F2823C1F481110CC0911116C0809120
:1001A0000B0190910C01019690930C0180930B012F
:1001B000089580910B0190910C01029690930C018F
:1001C00080930B0108950000089580910B01909198
:1001D0000C01049690930C0180930B01089580917B
:1001E000090190910801292F2823C1F481110CC025
:1001F000911116C080910B0190910C010197909381
:100200000C0180930B01089580910B0190910C01DA
:10021000029790930C0180930B01089500000895BC
:1002200080910B0190910C01049790930C018093A5
:100230000B0108958091090190910801292F28232D
:10024000C1F481110CC0911116C080910B019091E5
:100250000C01019690930C0180930B0108958091FD
:100260000B0190910C01029690930C0180930B016D
:1002700008950000089580910B0190910C0104965F
:1002800090930C0180930B01089580910901909146
:100290000801292F2823C1F481110CC0911116C027
:1002A00080910B0190910C01019790930C01809328
:1002B0000B01089580910B0190910C01029790938E
:1002C0000C0180930B0108950000089580910B01AB
:1002D00090910C01049790930C0180930B01089569
:1002E0008FEF8ABBC49A88B38F7988BBC69A80EF98
:1002F00087BB87B3876087BBE1E1F1E010821182A1
:100300001282138214821582168217821086118639
:10031000128613861486158616861786108A118A09
:10032000128A138A82B1806C82B91E9A1F9808952E
:1003300087B7816087BF83B7866083BF089580E5F4
:100340008DB908958A30910538F4FC01EA5BFF4FBE
:100350000C94830588E98BBB089580E88BBB0895D6
:1003600080EC8BBB089589EF8BBB089584EA8BBB2F
:10037000089580EB8BBB089589E98BBB089582E9D2
:100380008BBB089582E88BBB089588EF8BBB0895E3
:100390008FEF8BBB0895823009F445C038F183306C
:1003A00099F0843009F06AC088B38F7888BB81E205
:1003B0008A95F1F70000E0912101F0912201EA30E5
:1003C000F10508F44BC00895C49A88B38F7988BBAF
:1003D00021E22A95F1F7000080910B0190910C0128
:1003E0000A9708F03FC08FEF8BBB0895813009F06A
:1003F00046C0C69A88B38F7C88BB21E22A95F1F764
:10040000000080910B0190910C01883E934058F3BD
:10041000E0911501F0911601EA30F105A0F6E05BDC
:10042000FF4F0C94830588B3806388BBC69881E234
:100430008A95F1F7000080910B0190910C018436B0
:10044000910588F2E0911901F0911A01EA30F10565
:1004500008F0B9CFE65AFF4F0C948305EC59FF4FD3
:100460000C948305E0911D01F0911E01EA30F10525
:1004700008F0A9CFE259FF4F0C9483050895089521
:1004800080E88BBB089588EF8BBB089582E88BBB17
:10049000089582E98BBB089589E98BBB089580EBB1
:1004A0008BBB089584EA8BBB089589EF8BBB0895BD
:1004B00080EC8BBB089588E98BBB089589B3809548
:1004C000813079F0823061F42091080191E0922727
:1004D0009093080190910201892780930201089569
:1004E0000895909109019827909309019091020134
:1004F00089278093020108954F925F926F927F92B5
:100500008F929F92AF92BF92CF92DF92EF92FF9223
:10051000C0900B01D0900C01C601945080319342E1
:1005200008F09EC083E0D8222FEFC21AD20AD092E0
:100530000C01C0920B019601ADECBCEC0E948C0545
:100540002C0156944794569447945694479492019C
:10055000220F331FC201880F991F880F991F880F20
:10056000991F820F931FC81AD90AE12CF12C92010E
:100570000E948C054C019694879496948794969447
:1005800087949401220F331FC401880F991F880F8D
:10059000991F880F991F820F931F481A590A612CBF
:1005A000712C94010E948C05AC0156954795569587
:1005B0004795569547959A01220F331FCA01880F18
:1005C000991F880F991F880F991F820F931F881AF0
:1005D000990AA12CB12C9A010E948C0596958795B9
:1005E00096958795969587959C01220F331F880FC6
:1005F000991F880F991F880F991F820F931F481BFF
:10060000590B60E070E0C0922101D0922201E0928B
:100610002301F092240140921D0150921E0160922C
:100620001F01709220018092190190921A01A092EC
:100630001B01B0921C014093150150931601609369
:10064000170170931801FF90EF90DF90CF90BF904B
:10065000AF909F908F907F906F905F904F90089594
:1006600081E1C81687E2D80608F465CF8FEF93E0E2
:1006700090930C0180930B0141E050E060E070E04A
:10068000812C912C540182E0482E512C612C712C2C
:1006900093E0C92ED12CE12CF12CB5CF1ABA8FEFF3
:1006A0008BBB88B3806788BB00C000C0000089B3E3
:1006B0008F3F41F18091010181112FC089B32091B9
:1006C00006013091070190E08217930759F189B331
:1006D00090E02817390741F00E945E0281E090E027
:1006E000909305018093040189B390E090930701F2
:1006F000809306018FEF8ABBC49A88B38F7988BB39
:10070000C69A089581E0809301018FEF8ABBC49A55
:1007100088B38F7988BBC69A08950E945E021092B2
:100720000101E2CF8091040190910501019690931F
:10073000050180930401D8CF1E981F9A0000000085
:10074000809102018FB98FB180930001779BFECF1A
:1007500081E0809303011E9A1F98C09AC098089563
:100760003091100130930F0120910E0120930D0163
:1007700080910001482F4370409310018C7090E0ED
:100780009595879595958795982F80930E013417A9
:1007900029F0313009F43DC0323051F0291739F0D9
:1007A0002130F9F0223019F4933009F44BC0089548
:1007B0004330A1F78091090130910801432F48236C
:1007C00009F057C040910B0150910C01811178C084
:1007D000311187C04150510950930C0140930B01D6
:1007E000DDCF933021F78091090190910801292FE5
:1007F000282309F03CC0811152C0911168C080913A
:100800000B0190910C01019690930C0180930B01C8
:100810000895433009F0C2CF809109013091080159
:10082000432F482331F540910B0150910C01811168
:1008300040C031115DC04F5F5F4F50930C0140933A
:100840000B01ACCF8091090190910801292F282339
:1008500071F4811110C0911118C080910B01909119
:100860000C01019790930C0180930B0108950000F7
:100870000895000093CF80910B0190910C01029795
:1008800090930C0180930B01089580910B0190913E
:100890000C01049790930C0180930B0108958091B3
:1008A0000B0190910C01029690930C0180930B0127
:1008B00008954E5F5F4F50930C0140930B016ECF34
:1008C0004250510950930C0140930B0167CF809126
:1008D0000B0190910C01049690930C0180930B01F5
:1008E00008954450510950930C0140930B0156CF89
:1008F0004C5F5F4F50930C0140930B014FCF1F9201
:100900000F920FB60F9211240BB60F922F933F93B5
:100910004F935F936F937F938F939F93AF93BF9307
:10092000EF93FF931ABA8FEF8BBB88B3806788BBB6
:1009300000C000C0000089B38F3F09F450C080910F
:100940000101811150C089B3209106013091070146
:1009500090E08217930709F44BC089B390E0281701
:10096000390741F00E945E0281E090E0909305011A
:100970008093040189B390E090930701809306016E
:100980008FEF8ABBC49A88B38F7988BBC69A1E98AA
:100990001F9A00000000809102018FB98FB18093EF
:1009A0000001779BFECF81E0809303011E9A1F9880
:1009B000C09AC0980E94B003FF91EF91BF91AF9190
:1009C0009F918F917F916F915F914F913F912F9167
:1009D0000F900BBE0F900FBE0F901F90189581E0E7
:1009E00080930101CDCF0E945E0210920101C2CF1F
:1009F00080910401909105010196909305018093E7
:100A00000401B8CF8091090190910801292F282372
:100A1000C1F481110CC0911116C080910B0190910D
:100A20000C01019690930C0180930B010895809125
:100A30000B0190910C01029690930C0180930B0195
:100A400008950000089580910B0190910C01049687
:100A500090930C0180930B0108958091090190916E
:100A60000801292F2823C1F481110CC0911116C04F
:100A700080910B0190910C01019790930C01809350
:100A80000B01089580910B0190910C0102979093B6
:100A90000C0180930B0108950000089580910B01D3
:100AA00090910C01049790930C0180930B01089591
:100AB0000E94700187B7816087BF83B7866083BF5C
:100AC00080E58DB978948FEF8ABBC49A88B38F790B
:100AD00088BBC69ADFEF0FE010E0C1E080E18A95A5
:100AE000F1F700C08C2F0E94CB018BE28A95F1F7C1
:100AF0000000DBBBCF5FC53089F70150110969F7F2
:100B00000E947C02E8CFEE0FFF1F0024001C0BBEEA
:100B10000790F691E02D0994A29FB001B39FC00108
:100B2000A39F700D811D1124911DB29F700D811D19
:0A0B30001124911D0895F894FFCFE1
:020B3A001301A5
:00000001FF
