S00C00006C6162342E73726563B5
S11300000C94C7010C94E6010C94E6010C94E601EF
S11300100C94E6010C94E6010C94E6010C94E601C0
S11300200C94E6010C94E6010C9462040C94E60131
S11300300C947E040C94E6010C94E6010C94E60105
S11300400C94BD040C94E6010C94E6010C94E601B6
S11300500C94E6010C946C040C94E6010C94E601F7
S11300600C94E6010C94E6010C94E6010C94E60170
S11300700C94E6010C94E6010C94E6010C94E60160
S11300800C94E6010C94E6010C94E601AD05B70569
S1130090C105CB05D605E105EC059905A305420785
S11300A03A0735075F0752075A074A0713070B0732
S11300B00607FE0667071B07F106D9068707300700
S11300C028072007A707E1069707E906B4077F0773
S11300D09F07F90677076F078F07D406A2069A06CB
S11300E0AA06AC078D068506AF066806CC069506FB
S11300F078067006BC068006B40660064606C4068A
S113010036062E0653064B06580629063E061106E9
S113011021060C060406FC05F7051906BE08DC08D2
S1130120B808CA08AC08B208AC08B208E208BE08AD
S1130130DC08B808CA08C408A608C408A6080C093C
S113014048090009780900093C093609A60812097A
S1130150A6082409D0086609AC085A09E808600909
S1130160EE086C093009D608D0081809F408BE084E
S1130170DC08B808CA08AC08B208AC08B208E2083F
S1130180BE084209D608B808C408A608C408A608C8
S11301900C094E091E09E20854091209E808EE0880
S11301A0D008D6087209F4089009B4098A09AE097E
S11301B0320A2C0A8A09B409BA0996093E0A8A093C
S11301C09009AE098A09F6098A09A2099009D20997
S11301D0BA099609CC09500AA209C0095C0A0E0A98
S11301E0C009260A8A099009AE098A09F009960904
S11301F0B4098A09A2099009D209BA0996094A0AD6
S1130200E409DE09A809D809C609A8091A0A200AB6
S1130210140AE409DE09A809D809C609380A440AF7
S1130220CC09FC09020A0C0F000FFA0EEE0EE80EC0
S1130230DC0ED60ED00ECA0EC40EB80EB20EAC0E24
S1130240A00E9A0E8E0E880E7C0E760E6A0E640E2A
S11302505E0E580E520E460E400E3A0E340E2E0E00
S1130260220E1C0E100E0A0E040EFE0DF20DEC0DE5
S1130270E00DDA0DCE0DC80DBC0DB60DAA0DA40D02
S1130280980D920D8C0D860D800D740D6E0D680DFC
S1130290620D5C0D500D4A0D3E0D380D320D2C0DC6
S11302A0200D1A0D140D0E0D080DFC0CF60CEA0CA5
S11302B0E40CDE0CD80CCC0CC60CC00CBA0CAE0C86
S11302C0A80CA20C9C0C960C8A0C840C780C720C56
S11302D0660C600C540C4E0C420C3C0C360C300C6E
S11302E02A0C1E0C180C0C0C060C000CFA0BEE0B52
S11302F0E80BE20BDC0BD00BCA0BBE0BB80BAC0B40
S1130300A60B9A0B940B880B820B760B700B640B69
S11303105E0B580B520B4C0B400B3A0B340B280B57
S1130320220B160B100B040BFE0AF20AEC0AE60A67
S1130330E00AD40ACE0AC20ABC0AB00AAA0A9E0A71
S1130340980A920A8C0A860A7A0A740A6E0A120FAA
S11303503C0F2A0F3C0F2A0F3C0F2A0F600F2A0F65
S1130360600F480F360F780F360F660F540F420F89
S11303702A0F420F2A0F420F2A0F5A0F2A0F5A0F21
S1130380480F6C0F720F2A0F360F7E0F540F112473
S11303901FBECFEFD0E1DEBFCDBF11E0A0E0B1E0E2
S11303A0E2E4F8E200E00BBF02C007900D92A03532
S11303B0B107D9F721E0A0E5B1E001C01D92A03C4E
S11303C0B207E1F70E94DD120C941F140C94000094
S11303D0CF93109254018FEF8ABB8BBBE091230122
S11303E0F0E0F0937201E093710110927B01CFEF82
S11303F09F01ADECBCEC0E94CA13AC015695479525
S11304005695479556954795CA01880F991F440FED
S1130410551F440F551F440F551F480F591FE41B08
S1130420F50BE0937E0118BA98B3E0915401F0E023
S1130430E050FF4F8081892B88BBCBBBE0917E01CC
S1130440F0E0EA5EFE4F80818BBB81EE94E0019781
S1130450F1F700C00000809154018F5F8093540134
S113046020917101309172010E94CA13FC01F6952A
S1130470E795F695E795F695E795F0937201E09385
S1130480710180917B018F5F80937B01823008F43E
S1130490AFCF4091240150E0509372014093710119
S11304A0CFEF9A01ADECBCEC0E94CA1396958795E8
S11304B096958795969587959C01220F331F880FF3
S11304C0991F880F991F880F991F820F931F481B2C
S11304D0590B40937E0118BA98B3E0915401F0E0AF
S11304E0E050FF4F8081892B88BBCBBBE0917E011C
S11304F0F0E0EA5EFE4F80818BBB81EE94E00197D1
S1130500F1F700C00000809154018F5F8093540183
S113051020917101309172010E94CA13AC01569569
S11305204795569547955695479550937201409334
S113053071014115510509F0B4CF80E688BBCF9114
S11305400895CF93109254018FEF8ABB8BBBE09137
S11305505601F0E0F0937201E093710110927B0177
S1130560CFEF9F01ADECBCEC0E94CA13AC015695D1
S113057047955695479556954795CA01880F991FF3
S1130580440F551F440F551F440F551F480F591F43
S1130590E41BF50BE0937E0118BA98B3E091540183
S11305A0F0E0E050FF4F8081892B88BBCBBBE0910A
S11305B07E01F0E0EA5EFE4F80818BBB81EE94E029
S11305C00197F1F700C00000809154018F5F809380
S11305D0540120917101309172010E94CA13FC01EF
S11305E0F695E795F695E795F695E795F0937201FC
S11305F0E093710180917B018F5F80937B01823056
S113060008F4AFCF4091250150E05093720140931C
S11306107101CFEF9A01ADECBCEC0E94CA13969520
S1130620879596958795969587959C01220F331FFC
S1130630880F991F880F991F880F991F820F931F86
S1130640481B590B40937E0118BA98B3E0915401AA
S1130650F0E0E050FF4F8081892B88BBCBBBE09159
S11306607E01F0E0EA5EFE4F80818BBB81EE94E078
S11306700197F1F700C00000809154018F5F8093CF
S1130680540120917101309172010E94CA13AC018E
S113069056954795569547955695479550937201AB
S11306A0409371014115510509F0B4CF80E688BB30
S11306B0CF91089599B380912701891B823051F11C
S11306C0E0F0843071F0883089F5809123018B5FEC
S11306D08093230190915C0180E2892780935C01DF
S11306E008952091780191E0922790937801909158
S11306F05C01892780935C0108958130C1F4909155
S11307008F01982790938F0190915C0189278093A2
S11307105C0108952091730191E0922790937301F5
S113072090915C01892780935C0108950895089550
S11307303091590130935B012091580120935A0163
S113074080917C0190917D01482F43704093590121
S11307508C7099279695879596958795982F809371
S11307605801341721F0313041F1323049F0291762
S113077031F02130B1F0223011F4933079F1089541
S11307804330A9F780918F0130917301432F48239F
S113079071F7882369F180912501815080932501A7
S11307A0E6CF933061F78091860090918700C296DE
S11307B0909387008093860008954330C1F680911A
S11307C08F0130917301432F482389F68823C9F0A0
S11307D0809125018F5F80932501C9CF8091860088
S11307E090918700C2979093870080938600089524
S11307F0332309F4BCCF8091560181508093560174
S1130800B6CF332309F4B3CF809156018F5F809321
S11308105601ADCF809157018C33B1F080915601D0
S11308208C33D9F0809125018D3001F18091200124
S113083090912101813D974030F080ED97E09093B5
S1130840210180932001089510925701809156014F
S11308508F5F809356018C3329F710925601809153
S113086025018F5F809325018D3001F781E080930E
S11308702501DCCF9091250180912401981719F06E
S11308801092550108959091560180912301981377
S1130890F7CF81E08093550108956FE771E081E619
S11308A091E00E940F14892B09F4089561E671E028
S11308B08FE791E00E9418140E94B41081E691E041
S11308C00C94E4101F920F920FB60F9211240F9004
S11308D00FBE0F901F9018951F920F920FB60F9294
S11308E011248F939F9384B195B1809322019F919A
S11308F08F910F900FBE0F901F9018951F920F921B
S11309000FB60F9211240BB60F922F933F934F9370
S11309105F936F937F938F939F93AF93BF93EF9363
S1130920FF9382B3805882BB2091790130917A0180
S113093080917601909177012817390758F08091BA
S113094074018F5F809374016091740180917501CB
S11309500E94840FFF91EF91BF91AF919F918F916E
S11309607F916F915F914F913F912F910F900BBEAB
S11309700F900FBE0F901F9018951F920F920FB6F5
S11309800F9211240BB60F922F933F934F935F93C3
S11309906F937F938F939F93AF93BF93EF93FF9343
S11309A080915F018F5F80935F01982F977051F45E
S11309B02091790130917A012F5F3F4F30937A0172
S11309C020937901982F9F7709F46FC091E08438C0
S11309D008F490E02CE7929F800D1124811101C04E
S11309E0369A1ABA8FEF8BBB80E788BB89EF90E009
S11309F00197F1F700C0000089B390E0209127012E
S1130A00309128018217930709F462C0809126016E
S1130A10811162C089B320915D0130915E0190E043
S1130A208217930739F089B390E02817390711F03A
S1130A300E945A0389B390E090935E0180935D0114
S1130A408FEF8ABB80E788BB13B880E883B983EF54
S1130A5091E00197F1F700C0000080915C018FB92B
S1130A608FB190E090937D0180937C01779BFECFC2
S1130A7080EC83B980E483B981E788BB80E788BBD5
S1130A800E949803FF91EF91BF91AF919F918F9135
S1130A907F916F915F914F913F912F910F900BBE7A
S1130AA00F900FBE0F901F9018958091040188BB82
S1130AB08CEF8BBB87EA91E60197F1F700C0000049
S1130AC0809157018F5F8093570180915F017ECFA2
S1130AD081E080932601B4CF0E945A03109226012C
S1130AE0A9CF929A10927A011092790190E0909392
S1130AF07701809376010895582F929810927A0185
S1130B001092790130E03093770120937601842F9D
S1130B1090E08930910518F01BBC1ABC08958A5BDB
S1130B209F4FFC01852F550F990BAA0BBB0B0C94FF
S1130B30C113FC01E154F109E730F10578F7E15BF9
S1130B40FF4F0C94C113FC01E154F109E730F105A6
S1130B5028F7EA5AFF4F0C94C113FC01E154F10940
S1130B60E730F105D8F6E35AFF4F0C94C113FC01AA
S1130B70E154F109E730F10588F6EC59FF4F0C9484
S1130B80C113FC01E154F109E730F10538F6E559E8
S1130B90FF4F0C94C113FC01E154F109E730F10556
S1130BA008F0BCCFEE58FF4F0C94C113FC01E15484
S1130BB0F109E730F10508F0B1CFE758FF4F0C9485
S1130BC0C113FC01E154F109E730F10508F0A6CFA7
S1130BD0E058FF4F0C94C113FC01E154F109E730D4
S1130BE0F10508F09BCFE957FF4F0C94C11388E53A
S1130BF090E09BBD8ABD0895662309F40FC283E685
S1130C0090E09BBD8ABD0895662309F411C28FE666
S1130C1090E09BBD8ABD089586E790E09BBD8ABDA8
S1130C200895662309F4FFC18AE490E09BBD8ABD60
S1130C300895662309F401C283E590E09BBD8ABD53
S1130C400895662309F4B8C182E490E09BBD8ABD8F
S1130C50089581EB90E09BBD8ABD0895662309F455
S1130C60D3C185E890E09BBD8ABD0895662309F44D
S1130C70C1C185E990E09BBD8ABD0895662309F44E
S1130C80BEC187EA90E09BBD8ABD089584E691E0E9
S1130C909BBD8ABD0895662309F4BBC180EE90E034
S1130CA09BBD8ABD08958DEE90E09BBD8ABD0895DD
S1130CB0662309F48BC187EC90E09BBD8ABD08953F
S1130CC0662309F474C180E991E09BBD8ABD08954F
S1130CD0662309F4CBC184E893E09BBD8ABD0895E3
S1130CE0662309F4AFC18BE291E09BBD8ABD0895F0
S1130CF0662309F4B1C182EA92E09BBD8ABD0895DE
S1130D008CED91E09BBD8ABD0895662309F459C119
S1130D1087E192E09BBD8ABD0895662309F4B0C1C2
S1130D2088E592E09BBD8ABD08958AEC92E09BBD64
S1130D308ABD0895662309F435C186E496E09BBD17
S1130D408ABD0895662309F482C18AE097E09BBDB9
S1130D508ABD089586E995E09BBD8ABD08958AEB16
S1130D6093E09BBD8ABD0895662309F47AC181ECA2
S1130D7091E09BBD8ABD0895662309F47CC18BE094
S1130D8091E09BBD8ABD0895662309F47EC180E588
S1130D9091E09BBD8ABD0895662309F4ADC182E24A
S1130DA093E09BBD8ABD089586E797E09BBD8ABD0D
S1130DB00895662309F40FC18EEC92E19BBD8ABDB0
S1130DC00895662309F47AC18DE195E19BBD8ABD3E
S1130DD00895662309F4DCC080E698E09BBD8ABDD3
S1130DE00895662309F492C180E190E09BBD8ABD19
S1130DF008958EE29BE09BBD8ABD0895662309F4A5
S1130E0049C18BE190E09BBD8ABD08958CE190E0DF
S1130E109BBD8ABD0895662309F441C187E090E033
S1130E209BBD8ABD0895662309F4DAC08BE090E087
S1130E309BBD8ABD089582E190E09BBD8ABD089563
S1130E40662309F49BC089E199E19BBD8ABD08959D
S1130E50662309F429C180E39CE19BBD8ABD089502
S1130E608CED9DE19BBD8ABD08958AE390E09BBD16
S1130E708ABD0895662309F435C180E290E09BBDE4
S1130E808ABD0895662309F432C184E290E09BBDD3
S1130E908ABD0895662309F476C089E290E09BBD7B
S1130EA08ABD0895662309F478C081E390E09BBD70
S1130EB08ABD08958BE290E09BBD8ABD08956623A8
S1130EC009F493C087E390E09BBD8ABD089566232F
S1130ED009F44FC088E190E09BBD8ABD0895662364
S1130EE009F4F6C082EB94E09BBD8ABD08956623A5
S1130EF009F416C18DE89AE09BBD8ABD0895662366
S1130F0009F4D7C086E19EE09BBD8ABD089566239F
S1130F1009F4F7C080EC90E19BBD8ABD0895662377
S1130F2009F4D1C08FE294E09BBD8ABD0895662385
S1130F3009F4F1C087E699E09BBD8ABD0895662354
S1130F4009F4CBC08DE89CE09BBD8ABD08958DE576
S1130F5096E19BBD8ABD0895662309F4E6C086E444
S1130F6095E09BBD8ABD08958DEE9EE09BBD8ABD34
S1130F70089585E190E09BBD8ABD089582EB97E1D9
S1130F809BBD8ABD089586E290E09BBD8ABD08950D
S1130F9087EE97E09BBD8ABD08958EE290E09BBDED
S1130FA08ABD08958BEE95E09BBD8ABD08958AE7BE
S1130FB091E09BBD8ABD08958EE390E09BBD8ABD00
S1130FC0089589EF91E09BBD8ABD08958CEB90E074
S1130FD09BBD8ABD089580EC91E19BBD8ABD0895B7
S1130FE089E090E09BBD8ABD089584E390E09BBDB9
S1130FF08ABD08958DE890E09BBD8ABD08958EE971
S113100090E09BBD8ABD08958DE790E09BBD8ABDAD
S1131010089583ED90E09BBD8ABD08958DE590E031
S11310209BBD8ABD089586E490E09BBD8ABD08956A
S113103089E690E09BBD8ABD08958EE490E09BBD57
S11310408ABD08958BE191E09BBD8ABD089585EA30
S113105096E09BBD8ABD08958CE792E09BBD8ABD56
S1131060089588EA91E09BBD8ABD089582E593E0E6
S11310709BBD8ABD08958CEF90E09BBD8ABD089509
S113108087E392E09BBD8ABD08958DE391E09BBD0B
S11310908ABD089589E190E09BBD8ABD089585E0ED
S11310A090E09BBD8ABD08958AE99AE19BBD8ABD03
S11310B008958CE49DE09BBD8ABD08958DEE93E177
S11310C09BBD8ABD089583EF93E09BBD8ABD0895BF
S11310D08FE694E09BBD8ABD089588ED9BE09BBD9F
S11310E08ABD08958EE190E09BBD8ABD089582E299
S11310F090E09BBD8ABD089585EF92E09BBD8ABDBB
S1131100089580ED9FE09BBD8ABD08958DE090E039
S11311109BBD8ABD08958FED98E09BBD8ABD08955F
S113112086EF99E09BBD8ABD08958AEF94E09BBD4C
S11311308ABD08958634910520F08FEF8093740161
S11311400895FC01E257FF4F0C94C11322E044E0E0
S113115060E081E40C947C0526E044E060E081E4F6
S11311600C947C0522E044E061E081E40C947C056D
S113117028E044E060E084E40C947C0528E044E04A
S113118060E086E40C947C0526E044E061E082E4BF
S11311900C947C0528E044E060E083E40C947C0536
S11311A028E044E060E081E40C947C0528E044E01D
S11311B060E087E40C947C0528E044E060E085E48A
S11311C00C947C0520E144E060E081E40C947C050F
S11311D024E045E060E083E40C947C0524E045E0F1
S11311E060E084E40C947C05929A10927A01109247
S11311F0790188E090E090937701809376010895D7
S1131200929A10927A011092790181E090E0909381
S1131210770180937601089520E144E061E082E45F
S11312200C947C0528E044E061E082E40C947C05A5
S113123028E144E060E087E40C947C0520E145E08B
S113124060E084E40C947C05929A10927A011092E6
S1131250790182E090E0909377018093760108957C
S113126024E044E060E081E40C947C0526E044E062
S113127060E087E40C947C0524E044E061E087E4CA
S11312800C947C0528E044E061E087E40C947C0540
S113129023E044E060E087E40C947C0520E144E032
S11312A060E084E40C947C0520E145E060E083E4A4
S11312B00C947C0522E044E061E082E40C947C051B
S11312C024E045E061E084E40C947C0524E044E0FF
S11312D061E081E40C947C0528E044E060E082E471
S11312E00C947C0528E144E060E086E40C947C05E1
S11312F027E044E060E087E40C947C058F3391059B
S113130020F08FEF809374010895FC01EC52FF4F9D
S11313100C94C11324E044E060E083E40C947C0565
S113132028E044E060E085E40C947C05929A1092F5
S11313307A011092790181E090E090937701809393
S11313407601089528E044E060E084E40C947C0590
S113135020E143E060E083E40C947C0524E044E075
S113136060E084E40C947C0524E043E060E082E4E3
S11313700C947C0527E043E060E081E40C947C0558
S113138024E044E060E086E40C947C0520E142E043
S113139060E082E40C947C0520E143E060E081E4B9
S11313A00C947C0528E044E060E083E40C947C0524
S11313B020E143E060E084E40C947C0520E143E018
S11313C060E085E40C947C05929A10927A01109264
S11313D0790188E090E090937701809376010895F5
S11313E027E043E060E082E40C947C052CE043E0D9
S11313F060E082E40C947C0520E143E061E081E458
S11314000C947C05929A10927A011092790180E1F1
S113141090E09093770180937601089524E044E06E
S113142060E087E40C947C0528E042E060E082E41C
S11314300C947C0520E142E060E081E40C947C059E
S113144020E142E061E081E40C947C052CE044E07E
S113145060E085E40C947C0522E044E060E084E4F0
S11314600C947C0522E044E060E085E40C947C0567
S113147028E043E060E083E40C947C0524E043E04E
S113148060E081E40C947C0528E043E060E085E4BE
S11314900C947C0528E043E060E081E40C947C0536
S11314A0929A10927A011092790184E090E09093DC
S11314B0770180937601089528E044E060E081E4B8
S11314C00C947C058539910520F08FEF809374018D
S11314D00895FC01ED5EFE4F0C94C11324E043E03B
S11314E060E087E40C947C0522E043E060E081E462
S11314F00C947C05929A10927A011092790182E000
S113150090E09093770180937601089522E044E07F
S113151060E083E40C947C0522E044E060E085E430
S11315200C947C0524E044E060E084E40C947C05A5
S113153022E044E060E083E40C947C05929A1092EB
S11315407A011092790182E090E090937701809380
S11315507601089522E044E060E083E40C947C0585
S1131560929A10927A011092790182E090E090931D
S1131570770180937601089522E044E060E083E4FB
S11315800C947C05929A10927A011092790181E070
S113159090E09093770180937601089522E044E0EF
S11315A060E083E40C947C05929A10927A01109284
S11315B0790180E190E0909377018093760108951A
S11315C022E044E060E085E40C947C0522E044E001
S11315D060E084E40C947C0522E044E060E083E471
S11315E00C947C05929A10927A011092790182E00F
S11315F090E09093770180937601089522E044E08F
S113160060E083E40C947C05929A10927A01109223
S1131610790182E090E090937701809376010895B8
S113162022E044E060E083E40C947C05929A1092FA
S11316307A011092790181E090E090937701809390
S11316407601089522E044E060E083E40C947C0594
S1131650929A10927A011092790184E090E090932A
S1131660770180937601089524E043E060E087E405
S11316700C947C0522E043E060E081E40C947C055A
S1131680929A10927A011092790182E090E09093FC
S1131690770180937601089522E044E060E083E4DA
S11316A00C947C0522E044E060E085E40C947C0525
S11316B024E044E060E084E40C947C0522E044E00F
S11316C060E083E40C947C05929A10927A01109263
S11316D0790182E090E090937701809376010895F8
S11316E022E044E060E083E40C947C05929A10923A
S11316F07A011092790182E090E0909377018093CF
S11317007601089522E044E060E083E40C947C05D3
S1131710929A10927A011092790181E090E090936C
S1131720770180937601089522E044E060E083E449
S11317300C947C05929A10927A01109279018AE0B5
S113174090E09093770180937601089524E044E03B
S113175060E083E40C947C05929A10927A011092D2
S1131760790184E090E09093770180937601089565
S113177022E044E060E084E40C947C05929A1092A8
S11317807A011092790182E090E09093770180933E
S11317907601089524E044E061E085E40C947C053E
S11317A0929A10927A011092790184E090E09093D9
S11317B0770180937601089522E044E060E084E4B8
S11317C00C947C0522E044E060E083E40C947C0506
S11317D022E043E060E081E40C947C05929A10924C
S11317E07A011092790182E090E0909377018093DE
S11317F07601089522E044E060E083E40C947C05E3
S113180022E043E060E081E40C947C0522E043E0C4
S113181061E081E40C947C05929A10927A01109212
S1131820790182E090E090937701809376010895A6
S113183022E044E060E085E40C947C05929A1092E6
S11318407A011092790182E090E09093770180937D
S11318507601089522E044E061E085E40C947C057F
S113186022E044E060E086E40C947C0522E044E05D
S113187061E087E40C947C0522E044E060E087E4C6
S11318800C947C05929A10927A011092790188E066
S113189090E09093770180937601089524E044E0EA
S11318A060E087E40C947C05929A10927A0110927D
S11318B0790181E090E09093770180937601089517
S11318C021E044E060E087E40C947C05929A109255
S11318D07A011092790182E090E0909377018093ED
S11318E07601089522E044E060E087E40C947C05EE
S11318F0929A10927A011092790182E090E090938A
S1131900770180937601089522E043E060E085E466
S11319100C947C05929A10927A011092790182E0DB
S113192090E09093770180937601089522E043E05C
S113193061E085E40C947C0522E043E060E086E409
S11319400C947C0522E043E061E087E40C947C0580
S113195022E043E060E087E40C947C05929A1092C4
S11319607A011092790184E090E09093770180935A
S11319707601089522E044E060E084E40C947C0560
S113198022E044E060E083E40C947C0522E043E040
S113199060E081E40C947C05929A10927A01109292
S11319A0790182E090E09093770180937601089525
S11319B022E044E060E083E40C947C0522E043E010
S11319C060E081E40C947C0522E043E061E081E482
S11319D00C947C05929A10927A011092790182E01B
S11319E090E09093770180937601089522E044E09B
S11319F060E085E40C947C05929A10927A0110922E
S1131A00790182E090E090937701809376010895C4
S1131A1022E044E061E085E40C947C0522E044E0AB
S1131A2060E086E40C947C0522E044E061E087E415
S1131A300C947C0522E044E060E087E40C947C058F
S1131A40929A10927A011092790188E090E0909332
S1131A50770180937601089522E043E060E082E418
S1131A600C947C0522E044E060E084E40C947C0562
S1131A7022E044E060E083E40C947C05929A1092A6
S1131A807A011092790182E090E09093770180933B
S1131A907601089522E044E060E085E40C947C053E
S1131AA0929A10927A011092790182E090E09093D8
S1131AB0770180937601089522E044E060E087E4B2
S1131AC00C947C0522E044E060E086E40C947C0500
S1131AD024E044E060E081E40C947C0522E044E0EE
S1131AE060E087E40C947C05929A10927A0110923B
S1131AF0790181E090E090937701809376010895D5
S1131B0022E044E060E085E40C947C0523E043E0BB
S1131B1060E087E40C947C0524E043E060E081E429
S1131B200C947C0522E043E061E082E40C947C05A3
S1131B30929A10927A011092790182E090E0909347
S1131B40770180937601089522E043E060E082E427
S1131B500C947C05929A10927A011092790182E099
S1131B6090E09093770180937601089522E043E01A
S1131B7060E081E40C947C05929A10927A011092B0
S1131B80790182E090E09093770180937601089543
S1131B9024E043E060E085E40C947C05929A109282
S1131BA07A011092790183E090E090937701809319
S1131BB07601089522E043E060E087E40C947C051C
S1131BC0929A10927A011092790182E090E09093B7
S1131BD0770180937601089525E044E060E083E492
S1131BE00C947C05929A10927A011092790184E007
S1131BF090E09093770180937601089522E043E08A
S1131C0060E082E40C947C0522E044E060E084E43B
S1131C100C947C0522E044E060E083E40C947C05B1
S1131C20929A10927A011092790182E090E0909356
S1131C30770180937601089522E044E060E085E432
S1131C400C947C05929A10927A011092790182E0A8
S1131C5090E09093770180937601089522E044E028
S1131C6060E087E40C947C0522E044E060E086E4D4
S1131C700C947C0524E044E060E081E40C947C0551
S1131C8022E044E060E087E40C947C05929A109290
S1131C907A011092790181E090E09093770180932A
S1131CA07601089522E044E060E085E40C947C052C
S1131CB023E043E060E087E40C947C0524E043E007
S1131CC060E081E40C947C0522E043E061E082E47E
S1131CD00C947C05929A10927A011092790182E018
S1131CE090E09093770180937601089522E043E099
S1131CF060E082E40C947C05929A10927A0110922E
S1131D00790182E090E090937701809376010895C1
S1131D1022E043E060E081E40C947C05929A109206
S1131D207A011092790182E090E090937701809398
S1131D307601089524E043E060E085E40C947C059A
S1131D40929A10927A011092790184E090E0909333
S1131D50770180937601089522E043E060E087E410
S1131D600C947C0525E044E060E083E40C947C055D
S1131D70929A10927A011092790188E090E09093FF
S1131D80770180937601089528E042E060E087E4DB
S1131D900C947C0528E044E060E087E40C947C0526
S1131DA024E044E060E085E40C947C0522E044E017
S1131DB060E083E40C947C05929A10927A0110926C
S1131DC0790182E090E09093770180937601089501
S1131DD022E044E060E085E40C947C05929A109241
S1131DE07A011092790181E090E0909377018093D9
S1131DF07601089523E044E060E085E40C947C05DA
S1131E00929A10927A011092790181E090E0909375
S1131E10770180937601089521E044E060E085E451
S1131E200C947C05929A10927A011092790188E0C0
S1131E3090E0909377018093760108958F31910516
S1131E4020F08FEF809374010895FC01E855FE4F54
S1131E500C94C113929A10927A011092790181E044
S1131E6090E09093770180937601089524E045E013
S1131E7060E085E40C947C0527E044E060E085E4C0
S1131E800C947C0527E044E061E085E40C947C0537
S1131E90929A10927A011092790185E090E09093E1
S1131EA0770180937601089528E045E060E085E4B9
S1131EB00C947C0523E044E061E085E40C947C050B
S1131EC023E044E060E085E40C947C0528E045E0F0
S1131ED060E087E40C947C0524E045E061E085E45F
S1131EE00C947C0523E045E060E085E40C947C05DB
S1131EF024E045E061E087E40C947C0528E045E0BB
S1131F0061E087E40C947C05813089F060F08230D4
S1131F1031F0833041F4862F90E00C941E0F862F0D
S1131F2090E00C94620A862F90E00C949A08862F15
S1131F3090E00C947E09109274018EB58C7F8EBD56
S1131F40929A0895109274018EB583608EBD929812
S1131F5060917401809175010C94840F87B780613E
S1131F6087BF1FBC8EB588608EBD10927A0081E356
S1131F7090E09BBD8ABD109274018EB58C7F8EBD9E
S1131F80929A10927A01109279011092770110922C
S1131F9076011092740110927501089591E08111F7
S1131FA001C090E09FB9779BFECF6FB9779BFECFBE
S1131FB08091620088608093620080916200877FD4
S1131FC0809362000895CF93C09160018C0F911D9E
S1131FD0FC01608181E00E94CE0F81E08C0F809330
S1131FE06001803189F0803211F0CF91089585ED40
S1131FF08A95F1F7000060E880E00E94CE0F10920D
S1132000600180E0CF910895F5EDFA95F1F70000B5
S113201060EC80E00E94CE0F80916001E4CFEF92EB
S1132020FF920F931F93CF93DF931F92CDB7DEB729
S1132030182F660F660F660F605C80E099830E941C
S1132040CE0F85ED8A95F1F70000E12E9981F92EE6
S11320508701085F1F4FF70161917F0181E00E94B2
S1132060CE0FF5EDFA95F1F70000E016F10699F7B9
S11320700F90DF91CF911F910F91FF90EF900895F2
S113208090E4899F600D1124605C80E00C94CE0F75
S1132090CF938823B9F1C82F843698F48A30D8F4C2
S11320A08DECC89F812D11248695869586956C2F7D
S11320B02AE0829F60191124605D81E0CF910C9425
S11320C0CE0F69E2869F612D112462956F70605D69
S11320D081E00E94CE0F89E2C89F812D1124829550
S11320E08F709C2F24E6829F901911246DEC969F8B
S11320F0612D1124669566956695605D81E00E9468
S1132100CE0FCECF60E381E0CF910C94CE0FCF936E
S113211087FD03C0CF910C944810C82F6DE281E075
S11321200E94CE0F85ED8A95F1F700008C2F8195E2
S1132130CF910C9448106EE080E00C94CE0F6CE0CC
S113214080E00C94CE0F6EE180E00C94CE0F68E139
S113215080E00C94CE0FE2E6F0E08081886080831A
S11321608081877F8083089561E080E00E94CE0FA4
S11321708FE19CE10197F1F700C00000089562E04F
S113218080E00E94CE0F8FE697E10197F1F700C03F
S11321900000089560EC80E00C94CE0F60E880E0CD
S11321A00C94CE0FCF93C0E160E281E00E94CE0F89
S11321B085ED8A95F1F70000C150B1F7CF910895EC
S11321C0682F81E00C94CE0F0F931F93CF938C0153
S11321D040E050E0C0E0F801E40FF51F608181E0C9
S11321E00E94CE0F85ED8A95F1F70000CF5F4C2F4A
S11321F050E0F80101900020E9F79F01201B310B0A
S1132200225031092417350730F7CF911F910F91D0
S113221008958FEF99EF0197F1F700C0000088E06F
S11322208093610060E380E00E94CE0F8FE59DE61D
S11322300197F1F700C0000060E380E00E94CE0F38
S11322408FE59DE60197F1F700C0000060E380E0B0
S11322500E94CE0F8FE59DE60197F1F700C00000C4
S113226068E380E00E94CE0F8FE19EE40197F1F7CE
S113227000C0000068E080E00E94CE0F8FE19EE481
S11322800197F1F700C0000061E080E00E94CE0FEA
S11322908FE19EE40197F1F700C0000066E080E062
S11322A00E94CE0F8FE19EE40197F1F700C0000079
S11322B06CE080E00E94CE0F8FE19EE40197F1F77D
S11322C000C0000008958F929F92AF92BF92CF9268
S11322D0DF92EF92FF920F931F93CF93DF93CDB7CB
S11322E0DEB769970FB6F894DEBF0FBECDBFF42EEC
S11322F0122F002359F04B015C018824B7FC83940E
S11323009924AA24BB24082D97FD8FC0112309F416
S113231084C09E012F5F3F4F6901590188248A942C
S1132320810E912C3FEF831A930A8C0C9D1C2AE09A
S113233030E040E050E00E94A213E62F2A8B3B8B52
S11323404C8B5D8B6A897B898C899D8920E32E0F58
S1132350F50121935F01E815F90549F7BB24B3940E
S1132360B10EF601E10FF11D2EE220832AE030E0E8
S113237040E050E00E94A213E62F2A8B3B8B4C8B4B
S11323805D8B6E8B7F8B888F998F6A897B898C8913
S11323909D8911E01B0DD601AB0DB11DE05DEC93E1
S11323A0B12E611571058105910501F7FF2061F0DA
S11323B0E11039C080E21F1538F4F601E10FF11D78
S11323C080831F5F1F11F9CF002331F0F601E10F65
S11323D0F11D8DE280831F5F1150F601E10FF11DA5
S11323E0608181E00E94CE0F35ED3A95F1F700004F
S11323F01111F2CF69960FB6F894DEBF0FBECDBFB0
S1132400DF91CF911F910F91FF90EF90DF90CF90CC
S1132410BF90AF909F908F900895B12C9E012F5F35
S11324203F4F6901A3CF80E3C6CF90958095709507
S113243061957F4F8F4F9F4F69CF5F926F927F92CD
S11324408F929F92AF92BF92CF92DF92EF92FF92C0
S11324500F931F93CF93DF93CDB7DEB761970FB67A
S1132460F894DEBF0FBECDBFA62E542E622E792E59
S1132470771C7724771CB72CC72CD12CEE27FF2789
S1132480EC19FD098E279F27FC01EC0DFD1D44234B
S113249009F48EC0CE0101967C018C0188248A94B3
S11324A0840E912C9FEF891A990A8E0C9F1C6AE066
S11324B070E0CF010E948E13262FE22FF72F805D4C
S11324C0D8018D938D01A815B90589F701E0050D93
S11324D0D701A50DB11D8EE28C936AE070E0CF01A7
S11324E00E948E13262FE22FF72F11E0100FD70131
S11324F0A00FB11D805D8C93012F309771F761108F
S113250015C0772039F011E0100FF701E00FF11D2D
S11325108DE28083AA2041F1812F90E02A2D30E0C2
S1132520821793070CF5B12C40E20CC0AA20A1F04D
S1132530812F90E02A2D30E02C193D098217930752
S11325405CF440E31F5FF701E80FF91F4083812F1C
S113255090E082179307B4F3BB2031F0F701E10F49
S1132560F11D8DE280831F5F1150F701E10FF11D12
S1132570608181E00E94CE0F95ED9A95F1F70000FD
S11325801111F2CF61960FB6F894DEBF0FBECDBF26
S1132590DF91CF911F910F91FF90EF90DF90CF903B
S11325A0BF90AF909F908F907F906F905F900895B1
S11325B000E0CE0101967C0190CFCFEFCABB87EF3C
S11325C087BB80EC82B990E493B987B7816087BFF9
S11325D083B7816083BF80B7886080BF85B58B6611
S11325E085BD8091610081608093610081E080936A
S11325F0620097B98FE886B980E58DB9C1BB0E94A6
S1132600AE0F139A80918B00826880938B00809127
S11326108A008A6080938A0080918C0080938C0069
S113262088EE93E090938700809386000E940911BE
S11326300E94B41089E291E00E94E4107894CABB2D
S113264080E788BB8CE0F82E08E0CCEBD2E0DD24F8
S1132650D3949AE0E92E12ED0DC013BC0E944D04F0
S11326609091250180912401981771F110925501E0
S11326700E940A048091780181113FC08091550124
S1132680882359F10E94A102ECE3F1E0A1E6B1E054
S1132690802F01900D928A95E1F7D0932101C09388
S11326A02001809150018823A1F184B195B18093D8
S11326B02201863990F213BD0E944D0490912501A8
S11326C0809124019813D2CF9091560180912301D7
S11326D09813CCCFD0925501CBCF0E94A102E4E451
S11326E0F1E0A1E6B1E08F2D01900D928A95E1F71A
S11326F00E949B0F10925001D8CF0E94E801E2E3A0
S1132700F1E0A1E6B1E08E2D01900D928A95E1F7FA
S1132710CCCF0E94A20FD0925001C7CF97FB072EB7
S113272016F4009407D077FD09D00E94D91307FC52
S113273005D03EF4909581959F4F089570956195CD
S11327407F4F0895052E97FB1EF400940E94B91341
S113275057FD07D00E94ED1307FC03D04EF40C94F0
S1132760B91350954095309521953F4F4F4F5F4F8A
S1132770089590958095709561957F4F8F4F9F4FE9
S11327800895EE0FFF1F0024001C0BBE0790F69166
S1132790E02D0994A29FB001B39FC001A39F700DC7
S11327A0811D1124911DB29F700D811D1124911D55
S11327B00895AA1BBB1B51E107C0AA1FBB1FA61784
S11327C0B70710F0A61BB70B881F991F5A95A9F7D6
S11327D080959095BC01CD010895A1E21A2EAA1B03
S11327E0BB1BFD010DC0AA1FBB1FEE1FFF1FA217BD
S11327F0B307E407F50720F0A21BB30BE40BF50BBA
S1132800661F771F881F991F1A9469F76095709542
S1132810809590959B01AC01BD01CF010895FB010A
S1132820DC018D91019080190110D9F3990B089561
S1132830FB01DC0101900D920020E1F70895F8946A
S1052840FFCFC4
S1132842001030402070C0F9A4B0999283F88098A7
S11328528883C6A1868EC0F9A4B0999283F8809821
S113286264006E140C0C01FF004D6F68616D6D65A0
S1132872640073657420616C61726D0057616B65ED
S1132882205550002020202020202020202020001D
S9030000FC
