S0110000756172745F727874782E7372656322
S11300006AC084C083C082C081C080C07FC07EC0FB
S11300107DC07CC07BC07AC079C078C077C076C010
S113002075C074C073C072C071C070C06FC06EC040
S1130030D8C06CC012C1EBC0EAC0E9C0E8C0E7C0D8
S1130040E6C0E5C00AC1E3C0E2C0E1C0E0C0DFC071
S1130050DEC0DDC00CC1DBC0DAC0D9C0D8C0D7C097
S1130060D6C0D5C0D4C0D3C0D2C0D1C0D0C0CFC0F8
S1130070CEC0CDC0FCC0CBC0CAC0C9C0C8C0C7C0F8
S1130080C6C0C5C0C4C0C3C0C2C0C1C0C0C0BFC058
S1130090BEC0BDC003C1BBC0BAC0B9C0B8C0B7C040
S11300A0B6C0B5C0FFC0B3C0B2C0B1C0B0C0AFC06D
S11300B0AEC0ADC0ACC0ABC0AAC0A9C0A8C0A7C0E8
S11300C0A6C0A5C0FDC0A3C0A2C0A1C0A0C09FC0BF
S11300D09EC09DC0B3C011241FBECFEFD2E0DEBFCF
S11300E0CDBF11E0A0E0B1E0EAEDF4E002C005907C
S11300F00D92A230B107D9F721E0A2E0B1E001C02E
S11301001D92AB38B207E1F725D1E5C179CF84B1AF
S1130110876084B98CB580658CBD8DB581608DBDDB
S113012008951F920F920FB60F9211240F900FBED5
S11301300F901F9018959091C00095FFFCCF80936D
S1130140C6008091C00085FFFCCF0895FC0120818A
S1130150222371F031969091C00095FFFCCF20933B
S1130160C6009091C00095FFFCCF21912111F3CFDF
S113017008959C01C901F9014491442399F02F5F2A
S11301803F4FFC0184919091C00095FFFCCF809378
S1130190C6009091C00095FFFCCFC901F9014491BC
S11301A04111EDCF0895E1ECF0E080818861808316
S11301B0E2ECF0E08081866080831092C50083E3E6
S11301C08093C400089580E89EE302C0019739F04B
S11301D02091C00027FFFACF8091C600089580E0E7
S11301E008951F920F920FB60F9211242F933F93ED
S11301F08F939F93AF93BF93EF93FF93E091B900D5
S11302008E2F90E0FC013897E135F105A0F0809144
S1130210B9008093860184E08093BC00FF91EF9144
S1130220BF91AF919F918F913F912F910F900FBEEE
S11302300F901F901895E65EFF4F0994809103017B
S1130240E0918701F0918801E80FF11D8091BB00D6
S1130250808384E98093BC00E1CF809189018093FD
S1130260BB001092030185E88093BC00D7CF809136
S1130270030190918A01891760F7E0918701F09159
S1130280880191E0980F90930301E80FF11D80819C
S11302908093BB0085E88093BC00C0CF85EA80933F
S11302A0BC00BCCF2091030180918A0130E090E032
S11302B0019728173907DCF485EC8093BC00AECF96
S11302C0E0918701F09188018091030121E0280FDA
S11302D020930301E80FF11D8091BB00808380917E
S11302E08A0130E090E00197281739072CF385E85C
S11302F08093BC0093CF8091BC008170089590914D
S1130300BC0090FDFCCF8E7F80938901709388019F
S11303106093870140938A0185EA8093BC00089525
S11303209091BC0090FDFCCF816080938901709313
S113033088016093870140938A0185EA8093BC0019
S113034008958FEF8093BB001092B90082E08093F0
S1130350B800089528DF84B1876084B98CB58065BE
S11303608CBD8DB581608DBDECDF789410928201D7
S113037042E062E871E080E9C2DF8FE99FE0019723
S1130380F1F700C00000C4E68091040144E064E891
S113039071E080E9C5DF8FE99FE00197F1F700C0C4
S11303A000008091840190E0982F88272091850196
S11303B060E870E0822B35D09B0160932E0170932E
S11303C02F0180933001909331014AE06DE171E097
S11303D0C9014ED0809130019091310160E870E004
S11303E09C01C29FC001C39F900D11241AD09B0190
S11303F06093190170931A0180931B0190931C015F
S11304004AE065E071E0C90133D08DE191E09EDE00
S113041080E091E09BDE85E091E098DE80E08BDE79
S1130420B3CF97FB072E16F4009406D077FD08D0BF
S11304300BD007FC05D03EF4909581959F4F08950D
S1130440709561957F4F0895AA1BBB1B51E107C0AE
S1130450AA1FBB1FA617B70710F0A61BB70B881F50
S1130460991F5A95A9F780959095BC01CD010895DF
S1130470BB274A3031F4992322F4BDE2909581954B
S11304809F4F01C0BB27FB015527AA27880F991F3F
S1130490AA1FA41710F0A41B83955051B9F7A05DAF
S11304A0AA3308F0A95DA193009779F7B111B1932C
S11304B01192CB0100C0DC01FC01672F71917723FD
S11304C0E1F7329704C07C916D9370836291AE170B
S10D04D0BF07C8F30895F894FFCFA6
S10504DA2E00EE
S9030000FC
