S00C00006C6162342E73726563B5
S11300000C9446000C9465000C9465000C946500F7
S11300100C9465000C9465000C9465000C946500C8
S11300200C9465000C9465000C9465000C946500B8
S11300300C9409020C9465000C9465000C94650002
S11300400C946B010C9465000C9465000C94650091
S11300500C9465000C9423020C9465000C946500C8
S11300600C9465000C9465000C9465000C94650078
S11300700C9465000C9465000C9465000C94650068
S11300800C9465000C9465000C94650011241FBE4B
S1130090CFEFD0E1DEBFCDBF11E0A0E0B1E0E8E3F7
S11300A0F2E200E00BBF02C007900D92A83CB1073A
S11300B0D9F722E0A8ECB1E001C01D92AC38B20738
S11300C0E1F70E946E0C0C941A110C940000C59A6E
S11300D088B38F7A88BB0895C69A88B38F7C88BB0F
S11300E0089588B3806388BBC6980895C49A88B37A
S11300F08F7988BB089588B38F7888BB089588B3B7
S1130100806788BB08958FEF8ABBC49A88B38F79C0
S113011088BBC69A08958FEF8BBB1ABA08951E98B0
S113012008951E9A08951F9808951F9A0895682F98
S113013070E080E090E00E941A102AE939E949E869
S113014050E40E94A61020E030E0A9010E947D0F37
S11301500E94E90F7093870060938600089522E35C
S1130160AC01249FC001259F900D11249BBD8ABD25
S1130170089583BD0895369A0895349BFECF349A2A
S113018084B195B190933E0180933D010895E0912F
S1130190CA01EF5FE093CA01E03199F0E13231F036
S11301A0F0E0E15DFD4F80810C94710A0E94500AD9
S11301B01092CA01E0E0F0E0E15DFD4F80810C9413
S11301C0710A0E945B0A87E30E94710A87E30E9416
S11301D0710AE091CA01F0E0E4CFCF93DF938FEF8F
S11301E08ABBC49A88B38F7988BBC69A80EF87BBD1
S11301F087B3876087BBC1E6D0E088818E7F888320
S1130200A2E6B0E08C918E7F8C938C9A139AEFEED9
S1130210F1E01082118212821382148215821682F6
S11302201782108611861286138614861586168602
S11302301786108A118A128A138A82B1806C82B955
S11302401E9A1F988881826088838C918D7F8C93FD
S1130250DF91CF91089580B7886080BF81E083BF2C
S113026000B602FCFDCF00B601FCFDCF00B600FCD9
S1130270FDCF87B7816087BF8FB58FBD8EB589608D
S11302808EBD80917A0080937A0080E29EE49BBDCB
S11302908ABD87B7806187BF8BE685BD84E283BD55
S11302A080918B00826880938B0080918A008A60A1
S11302B080938A0080918C0080938C0080E091E090
S11302C0909387008093860086E590E09093870062
S11302D08093860008951F920F920FB60F921124F7
S11302E00BB60F922F933F934F935F936F937F932C
S11302F08F939F93AF93BF93EF93FF938091DE010E
S11303008F5F8093DE01803809F458C0000000003C
S113031080913D0190913E01803E9140B8F58CED75
S113032083BD369A8091DE01982F9F7199F42091B4
S1130330DD0191E092279093DD012091DB01309162
S1130340DC012F5F3F4F2F303105D8F01092DC01D4
S11303501092DB01803811F41092DE01FF91EF91CD
S1130360BF91AF919F918F917F916F915F914F91C9
S11303703F912F910F900BBE0F900FBE0F901F90C7
S113038018953093DC012093DB01E4CF60913D01AB
S113039070913E0180E090E00E9418102DEC3CEC3E
S11303A04CEC5EEB0E94A61020E030E04DEC53E4F0
S11303B00E947D0F0E94E90F63BDB3CF8091D901E4
S11303C08F5F8C3379F08093D9018091D301909120
S11303D0D401009709F49ACF01969093D4018093A5
S11303E0D30194CF1092D9018091D8018F5F8C33BF
S11303F019F08093D801E9CF1092D8018091D701E8
S11304008F5F883118F48093D701DFCF1092D70122
S1130410DCCF1F920F920FB60F9211248F939F93EC
S113042092B380E1892782BB9F918F910F900FBE79
S11304300F901F90189580E58DB9089580E487B9D1
S11304408FE886B908951F920F920FB60F92112468
S11304508F939F9384B195B190933E0180933D0116
S11304609F918F910F900FBE0F901F90189585301C
S1130470910591F160F48230910529F1A8F083305F
S1130480910569F10497B9F589E98BBB0895883022
S1130490910541F180F089309105D9F08F3F9105A4
S11304A041F58FEF8BBB0895009781F0019701F51B
S11304B089EF8BBB089586309105B9F00797D1F485
S11304C088EF8BBB089584EA8BBB089580EC8BBBCB
S11304D0089588E98BBB089582E98BBB089580EB6E
S11304E08BBB089580E88BBB089582E88BBB08958D
S11304F008950895089508958FEF8BBB08959FEF95
S11305009BBB2AE12A95F1F700C00000000082306D
S113051009F48EC008F043C0882309F45CC081301C
S113052009F057C0C69A88B38F7C88BB00000000CE
S11305302091C8013091C90121FF04C08091DD01DF
S1130540811127C18091D7019FEF980F993008F44A
S1130550E3C08D50893030F48091C8019091C90175
S113056082FFDAC08091F3019091F401A091F5012A
S1130570B091F6018530910509F4A4C108F04AC18F
S11305808230910509F4A1C108F093C1009709F4E0
S1130590A5C1019709F0C2C089EF8BBBBFC08330EE
S11305A079F18430B9F488B38F7888BB00000000F7
S11305B02091C8013091C90120FF52C08091DD0112
S11305C0882309F44DC09BBB8091D2018111DF982F
S11305D0089508950895C59A88B38F7A88BB00005A
S11305E000008091CC01882309F4A1C08BB38C7FD7
S11305F08BBB8091CD01882309F497C0DA980895C4
S1130600C49A88B38F7988BB000000002091C80188
S11306103091C90120FF5DC08091DD01882309F478
S113062058C09BBB8091D101882391F2DF98D0CF31
S113063088B3806388BBC698000000002091C8017D
S11306403091C90121FF29C08091DD01882329F15E
S11306509BBB8091D001882309F4BACFDF98B8CF2F
S11306608091FF0190910002A0910102B0910202D9
S11306708530910509F4E4C008F07CC0823091050E
S113068009F4D8C008F087C0009709F4D6C00197D0
S113069009F09ACF89EF8BBB97CF8091F7019091A6
S11306A0F801A091F901B091FA018530910509F49E
S11306B0E8C008F050C08230910509F4C4C008F0C5
S11306C074C0009709F4C5C0019719F689EF8BBB74
S11306D0C0CF8091FB019091FC01A091FD01B091EC
S11306E0FE018530910509F4C0C028F582309105DA
S11306F009F4C1C008F06EC0009709F4B9C00197AD
S113070009F090CF89EF8BBB8DCF8930910509F427
S1130710DFC08F3F910511F48FEF8BBB8091CF0128
S1130720882309F455CFDF9853CFDA9A08958BB311
S113073083608BBB5ECF8830910509F4A8C008F0B4
S11307405EC08630910509F49FC0079709F06ACF0F
S113075088EF8BBB67CF8830910509F480C078F5AA
S11307608630910509F478C0079709F072CF88EFB5
S11307708BBB6FCF8830910509F492C0A8F5863001
S1130780910509F48AC0079709F01ECF88EF8BBB47
S11307901BCF9BBBC3CF8330910509F457C004978B
S11307A009F012CF89E98BBB0FCF8330910509F48F
S11307B059C0049709F04DCF89E98BBB4ACF8930E2
S11307C0910509F45BC08F3F910509F042CF8FEF8B
S11307D08BBB3FCF8330910509F465C0049709F0C2
S11307E021CF89E98BBB1ECF8930910509F452C012
S11307F08F3F910509F0E8CE8FEF8BBBE5CE8930B2
S1130800910509F453C08F3F910509F00BCF8FEF89
S11308108BBB08CF8830910509F463C008F075CF0D
S11308208630910509F457C0079709F077CF88EF10
S11308308BBB74CF84EA8BBBC7CE80EC8BBBC4CE9E
S113084082E98BBBC1CE84EA8BBB03CF80EB8BBB2D
S1130850BBCE80EC8BBBFDCE82E88BBBFACE80E8AE
S11308608BBBF7CE80EB8BBBF4CE82E98BBBDACEAD
S113087080EC8BBBD7CE84EA8BBBD4CE88E98BBB10
S1130880E8CE82E98BBBE5CE82E88BBBCBCE80E899
S11308908BBBC8CE88E98BBB97CE82E88BBB94CE4A
S11308A080E88BBB91CE80EB8BBBBCCE88E98BBB45
S11308B0B9CE83309105C1F0049709F02FCF89E9AF
S11308C08BBB2CCF82E98BBB29CF84EA8BBB26CF91
S11308D088E98BBB23CF82E88BBB20CF80EC8BBB1A
S11308E01DCF80E88BBB1ACF80EB8BBB17CF89B3AE
S11308F08095883009F489C0F0F0803209F471C021
S113090008F453C08034E9F1803809F0B6C080910E
S1130910C8019091C90122E082279093C901809374
S1130920C8018091C8019091C9018E7F9093C9013B
S11309308093C8010895823009F445C08430D1F011
S11309408130C1F78091C8019091C90180FD87C0B1
S113095080910A018B5F8C3308F471C010920A01F4
S11309608091D6018F5F8093D601883118F310925D
S1130970D60108951092D5011092D4011092D3019A
S113098008958091C8019091C90121E08227909334
S1130990C9018093C8018091C8019091C9018D7FDC
S11309A09093C9018093C8010895803109F064C00F
S11309B08091C8019091C90128E082279093C901D0
S11309C08093C80108958091C8019091C90181FD67
S11309D039C08091D6018F5F8093D601883138F673
S11309E008958091C8019091C90124E082279093D1
S11309F0C9018093C8018091C8019091C90182FF07
S1130A001BC081E08093CD0108958091D501882396
S1130A1009F490CF1092D5018091C8019091C90139
S1130A20877F9093C9018093C80181E090E09093FF
S1130A30D4018093D30108951092CD010895809339
S1130A400A0108958091D70190E0019668E170E071
S1130A500E94040F8093D7011092D90108958091C8
S1130A60D80190E001966CE370E00E94040F80933B
S1130A70D8011092D901089508950895CF92DF9274
S1130A80EF92FF928091E8019091E9019C0134502A
S1130A902031334208F0D0C0937001969093E9015D
S1130AA08093E8014091D80150E09A01ADECBCEC90
S1130AB00E94370FFC01F695E795F695E795F695B4
S1130AC0E7959F01220F331FCF01880F991F880FCD
S1130AD0991F880F991F820F931F481B590B60E0C1
S1130AE070E04093FF015093000260930102709301
S1130AF002029F010E94370F9695879596958795D8
S1130B00969587959C01220F331F880F991F880F94
S1130B10991F880F991F820F931F9F01281B390B60
S1130B20C901A0E0B0E08093FB019093FC01A09385
S1130B30FD01B093FE018091C8019091C901E0913B
S1130B40D70182FF5EC0CE2ED12C9601ADECBCEC59
S1130B500E94370FAC015695479556954795569583
S1130B6047959A01220F331FCA01880F991F880FD6
S1130B70991F880F991F820F931FC81AD90AE12C55
S1130B80F12C9A010E94370F969587959695879533
S1130B90969587959C01220F331F880F991F880F04
S1130BA0991F880F991F820F931F9A01281B390BD5
S1130BB0C901A0E0B0E0C092F701D092F801E09240
S1130BC0F901F092FA018093F3019093F401A09358
S1130BD0F501B093F601EC3030F08091C8019091AA
S1130BE0C90182FF34C01092D0018091D90180FDE7
S1130BF035C081E08093CC01FF90EF90DF90CF90DF
S1130C0008958BEAE89FC12C1124C694C694C69417
S1130C108C2D880FC80ECC0CCC0C3E2F3C19C32E47
S1130C2009F092CF81E090E0A0E0B0E022E0C22E93
S1130C30D12CE12CF12CBFCF8131974208F432CF73
S1130C408FEF93E09093E9018093E8012BCF81E04B
S1130C508093D0018091D90180FFCBCF1092CC0139
S1130C60FF90EF90DF90CF9008958091C80190910C
S1130C70C90180FD06C08091C8019091C90181FF1E
S1130C8084C08091D3019091D4018B30910508F4F4
S1130C9052C08091C8019091C901877F9093C90186
S1130CA08093C80181E08093D5011092D401109201
S1130CB0D30121E0ECE5F2E090E280E2919332E0AE
S1130CC0EC36F307D1F797E590936D0291E4909396
S1130CD06E029BE490936F0295E49093700280936C
S1130CE0710295E59093720290E59093730280935C
S1130CF074028AE38093750289E280937602222348
S1130D0009F43EC082E091E09093870080938600CE
S1130D10E091DB01F091DC01EE0FFF1FE55FFE4F78
S1130D202081318142E3429FC001439F900D1124F1
S1130D309BBD8ABD08952091D5012111BBCF029797
S1130D4008F449C0ECE5F2E080E2819392E0EC36ED
S1130D50F907D9F79AE590936D028AE780936E02BA
S1130D6090936F0280937002909371028093720249
S1130D709093730280937402909375028093760229
S1130D80109287001092860008958091C801909176
S1130D90C90183FF76CF9091D6018091D701981332
S1130DA070CF90910A018091D80198136ACF8091F5
S1130DB0C8019091C901877F9093C9018093C801AC
S1130DC081E08093D5018091D3019091D4010B9758
S1130DD008F46FCF5ECF8091C8019091C90183FD63
S1130DE022C01092D2018EE680935C028FE680933B
S1130DF05D0280E280935E0281E680935F029CE65E
S1130E00909360028093610282E7809362028DE690
S1130E1080936302E4E6F2E080E2819332E0E83713
S1130E20F307D9F7ADCF81E08093D20181E48093B9
S1130E305C029CE490935D0280935E0282E5809361
S1130E405F028DE48093600280E28093610290E40B
S1130E5090936202809363022091C8013091C9018A
S1130E6022FD5BC02091D601222309F471C02C30ED
S1130E7009F46EC09BEA299F912D112496959695AD
S1130E809695392F330F930F990F990F322F391BE2
S1130E90932F3A3008F081E3809364028DEC989F9D
S1130EA0812D11248695869586953AE0839F901925
S1130EB01124892F805D809365028AE38093660202
S1130EC080910A018A30C8F590E3909367029DEC03
S1130ED0899F912D11249695969596953AE0939F26
S1130EE080191124805D809368028091C8019091DB
S1130EF0C90182FD1CC02C3008F43FC080E78093F8
S1130F0069028DE680936A02ECE6F2E080E2819366
S1130F1092E0EC37F907D9F733CF2091D6012111AC
S1130F201EC080E38093640280936502C6CF80E292
S1130F308093690280936A02E7CF9DEC899F912D8B
S1130F401124969596959695905D90936702BFCFE0
S1130F5081E38093640282E380936502AECF2A30FA
S1130F6080F480E3809364028DEC289F812D11240A
S1130F70869586958695922F98CF81E6809369020F
S1130F80C0CF8DEC289F812D11248695869586955A
S1130F90805D80936402E8CF80913D0190913E0191
S1130FA0803E9140C0F060913D0170913E0180E02F
S1130FB090E00E9418102DEC3CEC4CEC5EEB0E948F
S1130FC0A61020E030E04DEC53E40E947D0F0E9417
S1130FD0E90F63BD08958CED83BD08958FEF8BBB3E
S1130FE01ABA88B3806788BB0000000000000000C4
S1130FF089B38F3F61F18091400181112CC089B385
S11310002091E3013091E40190E08217930741F1CC
S113101089B390E02817390741F00E94770481E0F2
S113102090E09093E2018093E10189B390E0909382
S1131030E4018093E3018FEF8ABBC49A88B38F796C
S113104088BBC69A0000000000000000089581E0FB
S113105080934001F0CF0E94770410924001E5CFC5
S11310608091E1019091E20101969093E2018093D5
S1131070E101DBCF1E981F9A000000008091DF0180
S11310808FB98FB180933F01779BFECF81E080932E
S1131090E0011E9A1F98C09AC09808958091ED01AE
S11310A08093EC012091EB012093EA0180913F01B0
S11310B0982F93709093ED018C7090E0959587959F
S11310C0959587958093EB01281731F0213029F00D
S11310D0223011F4833041F108958330E9F780918F
S11310E0C8019091C90180FF0CC08091D80190E0A3
S11310F001966CE370E00E94040F8093D801109273
S1131100D9018091C8019091C90181FFE5CF8091F7
S1131110D70190E0019668E170E00E94040F80938B
S1131120D7011092D90108958091C8019091C90105
S113113080FF09C08091D801811119C08BE380938D
S1131140D8011092D9018091C8019091C90181FF01
S1131150C3CF8091D701811106C087E18093D70165
S11311601092D901089581508093D701F9CF81500D
S11311708093D801E6CF8091E6019091E501292F73
S11311802823C1F481110CC0911116C08091E8018B
S11311909091E90101969093E9018093E801089503
S11311A08091E8019091E90102969093E90180937E
S11311B0E8010895000008958091E8019091E90103
S11311C004969093E9018093E80108958091E601E3
S11311D09091E501292F2823C1F481110CC09111AC
S11311E016C08091E8019091E90101979093E9017B
S11311F08093E80108958091E8019091E9010297B4
S11312009093E9018093E801089500000895809186
S1131210E8019091E90104979093E9018093E80132
S11312200895089508958091C8019091C90180FF9F
S11312300CC08091D80190E001966CE370E00E94AC
S1131240040F8093D8011092D9018091C801909124
S1131250C90181FF0CC08091D70190E0019668E13B
S113126070E00E94040F8093D7011092D901089571
S11312708091C8019091C90180FF09C08091D80173
S11312808823C9F081508093D8011092D9018091AC
S1131290C8019091C90181FF09C08091D7018823B9
S11312A031F081508093D7011092D901089587E1DC
S11312B08093D701F9CF8BE38093D801E6CF91E0F7
S11312C0811101C090E09FB9779BFECF6FB9779BE6
S11312D0FECF8091620088608093620080916200FA
S11312E0877F809362000895CF93C091EE018C0FA5
S11312F0911DFC01608181E00E945F0981E08C0FF7
S11313008093EE01803189F0803211F0CF910895FD
S113131085ED8A95F1F7000060E880E00E945F099E
S11313201092EE0180E0CF910895F5EDFA95F1F772
S1131330000060EC80E00E945F098091EE01E4CF40
S1131340EF92FF920F931F93CF93DF931F92CDB72A
S1131350DEB7182F660F660F660F605C80E0998316
S11313600E945F0985ED8A95F1F70000E12E9981CD
S1131370F92E8701085F1F4FF70161917F0181E01A
S11313800E945F09F5EDFA95F1F70000E016F10609
S113139099F70F90DF91CF911F910F91FF90EF90EC
S11313A0089590E4899F600D1124605C80E00C94A2
S11313B05F09CF938823B9F1C82F843698F48A3013
S11313C0D8F48DECC89F812D112486958695869539
S11313D06C2F2AE0829F60191124605D81E0CF9117
S11313E00C945F0969E2869F612D112462956F70E8
S11313F0605D81E00E945F0989E2C89F812D11240C
S113140082958F709C2F24E6829F901911246DEC95
S1131410969F612D1124669566956695605D81E0C1
S11314200E945F09CECF60E381E0CF910C945F0905
S1131430CF9387FD03C0CF910C94D909C82F6DE2D7
S113144081E00E945F0985ED8A95F1F700008C2FF9
S11314508195CF910C94D9096EE080E00C945F09DA
S11314606CE080E00C945F096EE180E00C945F090D
S113147068E180E00C945F09E2E6F0E08081886036
S113148080838081877F8083089561E080E00E946B
S11314905F098FE19CE10197F1F700C00000089516
S11314A062E080E00E945F098FE697E10197F1F71F
S11314B000C00000089560EC80E00C945F0960E8CF
S11314C080E00C945F09CF93C0E160E281E00E9468
S11314D05F0985ED8A95F1F70000C150B1F7CF910E
S11314E00895682F81E00C945F090F931F93CF93A5
S11314F08C0140E050E0C0E0F801E40FF51F60818A
S113150081E00E945F0985ED8A95F1F70000CF5FC5
S11315104C2F50E0F80101900020E9F79F01201BB7
S1131520310B225031092417350730F7CF911F9121
S11315300F9108958FEF99EF0197F1F700C0000024
S113154088E08093610060E380E00E945F098FE59A
S11315509DE60197F1F700C0000060E380E00E947F
S11315605F098FE59DE60197F1F700C0000060E395
S113157080E00E945F098FE59DE60197F1F700C0C6
S1131580000068E380E00E945F098FE19EE4019718
S1131590F1F700C0000068E080E00E945F098FE17D
S11315A09EE40197F1F700C0000061E080E00E9432
S11315B05F098FE19EE40197F1F700C0000066E047
S11315C080E00E945F098FE19EE40197F1F700C07B
S11315D000006CE080E00E945F098FE19EE40197C7
S11315E0F1F700C0000008958F929F92AF92BF92CE
S11315F0CF92DF92EF92FF920F931F93CF93DF93DB
S1131600CDB7DEB769970FB6F894DEBF0FBECDBF76
S1131610F42E122F002359F04B015C018824B7FCEF
S113162083949924AA24BB24082D97FD8FC01123E9
S113163009F484C09E012F5F3F4F6901590188243A
S11316408A94810E912C3FEF831A930A8C0C9D1C73
S11316502AE030E040E050E00E94180FE62F2A8B89
S11316603B8B4C8B5D8B6A897B898C899D8920E3BC
S11316702E0FF50121935F01E815F90549F7BB2405
S1131680B394B10EF601E10FF11D2EE220832AE09E
S113169030E040E050E00E94180FE62F2A8B3B8B8D
S11316A04C8B5D8B6E8B7F8B888F998F6A897B893E
S11316B08C899D8911E01B0DD601AB0DB11DE05D38
S11316C0EC93B12E611571058105910501F7FF2099
S11316D061F0E11039C080E21F1538F4F601E10F22
S11316E0F11D80831F5F1F11F9CF002331F0F60134
S11316F0E10FF11D8DE280831F5F1150F601E10FB0
S1131700F11D608181E00E945F0935ED3A95F1F7A2
S113171000001111F2CF69960FB6F894DEBF0FBE28
S1131720CDBFDF91CF911F910F91FF90EF90DF908C
S1131730CF90BF90AF909F908F900895B12C9E0151
S11317402F5F3F4F6901A3CF80E3C6CF909580956B
S1131750709561957F4F8F4F9F4F69CF5F926F92C6
S11317607F928F929F92AF92BF92CF92DF92EF922D
S1131770FF920F931F93CF93DF93CDB7DEB761979B
S11317800FB6F894DEBF0FBECDBFA62E542E622E28
S1131790792E771C7724771CB72CC72CD12CEE27F5
S11317A0FF27EC19FD098E279F27FC01EC0DFD1D79
S11317B0442309F48EC0CE0101967C018C01882457
S11317C08A94840E912C9FEF891A990A8E0C9F1C7F
S11317D06AE070E0CF010E94040F262FE22FF72F5A
S11317E0805DD8018D938D01A815B90589F701E0B5
S11317F0050DD701A50DB11D8EE28C936AE070E052
S1131800CF010E94040F262FE22FF72F11E0100FB3
S1131810D701A00FB11D805D8C93012F309771F714
S1131820611015C0772039F011E0100FF701E00FB7
S1131830F11D8DE28083AA2041F1812F90E02A2DB1
S113184030E0821793070CF5B12C40E20CC0AA20BB
S1131850A1F0812F90E02A2D30E02C193D09821748
S113186093075CF440E31F5FF701E80FF91F40831F
S1131870812F90E082179307B4F3BB2031F0F70176
S1131880E10FF11D8DE280831F5F1150F701E10F1D
S1131890F11D608181E00E945F0995ED9A95F1F751
S11318A000001111F2CF61960FB6F894DEBF0FBE9F
S11318B0CDBFDF91CF911F910F91FF90EF90DF90FB
S11318C0CF90BF90AF909F908F907F906F905F90DC
S11318D0089500E0CE0101967C0190CF0E94ED00B6
S11318E00E942B0180E58DB980E487B98FE886B921
S11318F00E949A0A0E94450A789481E491E00E9429
S1131900750A0E945B0A82E591E00E94750A2FEF36
S113191039E688E1215030408040E1F700C0000002
S113192082E2E3E6F1E0AFE2B2E001900D928A9543
S1131930E1F781E2E5E8F1E0ACE5B2E001900D9277
S11319408A95E1F782E2E6EAF1E0ACE5B2E00190E3
S11319500D928A95E1F7EFEAF4E03197F1F700C0D0
S113196000009FEF9ABBC49A88B38F7988BBC69A4C
S113197093BDDD24DA94BB24BA94AA24A394CC2482
S1131980C394EE24E394F12C03E010E0C0E0D0E033
S1131990BBBA1ABA88B3806788BB00000000000095
S11319A0000089B38F3F09F4E1C0809140018111A7
S11319B0E0C089B32091E3013091E40190E0821703
S11319C0930709F4DBC089B390E02817390731F095
S11319D00E947704F092E201E092E10189B390E081
S11319E09093E4018093E301DABAC49A88B38F79BF
S11319F088BBC69A00000000000000008C2F0E94E3
S1131A007F02C093DA018AE0EFE8F1E03197F1F761
S1131A1000C000008150C1F72097A1F01E981F9AC2
S1131A20000000008091DF018FB98FB180933F01E6
S1131A30779BFECFC092E0011E9A1F98C09AC0986F
S1131A400E944E08DBBA00002196C530D10509F08A
S1131A509FCF0150110909F099CF0E943E05809152
S1131A60C8019091C90180FD13C08091C801909173
S1131A70C90181FD0DC08091C8019091C90183FF06
S1131A8007C09091D6018091D701981709F43BC102
S1131A908091D3019091D4018B30910508F478C0E2
S1131AA08091C8019091C901877F9093C901809367
S1131AB0C801A092D5011092D4011092D30121E063
S1131AC0ECE5F2E090E280E2919332E0EC36F30749
S1131AD0D1F797E590936D0291E490936E029BE4A5
S1131AE090936F0295E4909370028093710295E550
S1131AF09093720290E590937302809374028AE348
S1131B008093750289E280937602222309F464C0EB
S1131B1082E091E09093870080938600E091DB015E
S1131B20F091DC01EE0FFF1FE55FFE4F2081318154
S1131B3042E3429FC001439F900D11249BBD8ABD87
S1131B408FE092E00E947409882309F44FC08091C9
S1131B5062008260809362008AE0EFE8F1E03197EE
S1131B60F1F700C000008150C1F70ECFC0924001D0
S1131B703BCF0E9477041092400130CF8091E10165
S1131B809091E20101969093E2018093E10126CFC6
S1131B902091D501211194CF029778F1ECE5F2E080
S1131BA080E2819392E0EC36F907D9F79AE59093B5
S1131BB06D028AE780936E0290936F0280937002A5
S1131BC090937102809372029093730280937402D3
S1131BD0909375028093760210928700109286008B
S1131BE08FE092E00E9474098111B1CF6CE572E03C
S1131BF08FE092E00E941311AACF8091C8019091C6
S1131C00C90183FF58C0A092D20181E480935C0291
S1131C109CE490935D0280935E0282E580935F0270
S1131C208DE48093600220E22093610280E480933B
S1131C306202209363028091C8019091C90190913E
S1131C40D60182FF7AC09111B3C080E3809364020D
S1131C50809365028AE38093660280910A018A3048
S1131C6008F09BC020E3209367022DEC829F212D76
S1131C701124269526952695FAE02F9F8019112484
S1131C80805D809368022091C8013091C90122FDD2
S1131C9034C09C3008F4A9C080E7809369028DE6C3
S1131CA080936A02ECE6F2E080E2819322E0EC3772
S1131CB0F207D9F791CF1092D2018EE680935C029D
S1131CC08FE680935D0280E280935E0281E68093DA
S1131CD05F029CE6909360028093610282E78093A6
S1131CE062028DE680936302E4E6F2E080E281938F
S1131CF032E0E837F307D9F76FCF80E280936902C7
S1131D0080936A02CFCF90910A018091D8019813F1
S1131D10BFCE8091C8019091C901877F9093C9017A
S1131D208093C801A092D5018091D3019091D401F0
S1131D300B9708F0B5CE2A2DC3CE992309F44EC0D3
S1131D409C3009F44BC08BEA989F812D1124869511
S1131D5086958695382F330F830F880F880F392F78
S1131D60381B832F3A3008F021E3209364022DECD2
S1131D70829F212D1124269526952695EAE02E9FF3
S1131D8080191124805D809365028AE38093660242
S1131D9080910A018A3008F465CF2DEC829F212DB1
S1131DA01124269526952695205D209367025DCF04
S1131DB09A30F8F480E3809364028DEC989F812D2F
S1131DC01124869586958695F92FEAE08E9FF01961
S1131DD011248F2F805D809365023CCF81E3809333
S1131DE0640282E38093650235CF81E680936902C1
S1131DF056CF8DEC989F812D1124869586958695D6
S1131E00805D80936402D9CF97FB072E16F400946B
S1131E1007D077FD09D00E94460F07FC05D03EF499
S1131E20909581959F4F0895709561957F4F089582
S1131E30052E97FB1EF400940E942F0F57FD07D028
S1131E400E945A0F07FC03D04EF40C942F0F5095A8
S1131E504095309521953F4F4F4F5F4F0895909592
S1131E608095709561957F4F8F4F9F4F0895A29FE6
S1131E70B001B39FC001A39F700D811D1124911D5A
S1131E80B29F700D811D1124911D0895AA1BBB1BC7
S1131E9051E107C0AA1FBB1FA617B70710F0A61B66
S1131EA0B70B881F991F5A95A9F780959095BC0187
S1131EB0CD010895A1E21A2EAA1BBB1BFD010DC082
S1131EC0AA1FBB1FEE1FFF1FA217B307E407F507E6
S1131ED020F0A21BB30BE40BF50B661F771F881FC2
S1131EE0991F1A9469F760957095809590959B0158
S1131EF0AC01BD01CF0108955058BB27AA270E9409
S1131F00940F0C946C100E945E1038F00E946510BF
S1131F1020F039F49F3F19F426F40C945B100EF46E
S1131F20E095E7FB0C945510E92F0E947D1058F3BF
S1131F30BA17620773078407950720F079F4A6F5AA
S1131F400C949F100EF4E0950B2EBA2FA02D0B01CC
S1131F50B90190010C01CA01A0011124FF27591BEA
S1131F6099F0593F50F4503E68F11A16F040A22FF0
S1131F70232F342F4427585FF3CF46953795279561
S1131F80A795F0405395C9F77EF41F16BA0B620B60
S1131F90730B840BBAF09150A1F0FF0FBB1F661FA7
S1131FA0771F881FC2F70EC0BA0F621F731F841FEA
S1131FB048F4879577956795B795F7959E3F08F010
S1131FC0B0CF9395880F08F09927EE0F97958795D2
S1131FD008950E94851088F09F5798F0B92F99278B
S1131FE0B751B0F0E1F0660F771F881F991F1AF000
S1131FF0BA95C9F714C0B13091F00E949F10B1E0B6
S113200008950C949F10672F782F8827B85F39F0B4
S1132010B93FCCF3869577956795B395D9F73EF498
S113202090958095709561957F4F8F4F9F4F089540
S1132030E89409C097FB3EF490958095709561955E
S11320407F4F8F4F9F4F9923A9F0F92F96E9BB2714
S11320509395F695879577956795B795F111F8CF90
S1132060FAF4BB0F11F460FF1BC06F5F7F4F8F4FFB
S11320709F4F16C0882311F096E911C0772321F0F1
S11320809EE8872F762F05C0662371F096E8862F89
S113209070E060E02AF09A95660F771F881FDAF7E0
S11320A0880F9695879597F9089597F99F6780E823
S11320B070E060E008959FEF80EC089500240A9496
S11320C01616170618060906089500240A9412160F
S11320D01306140605060895092E0394000C11F442
S11320E0882352F0BB0F40F4BF2B11F460FF04C0EF
S11320F06F5F7F4F8F4F9F4F089557FD9058440F48
S1132100551F59F05F3F71F04795880F97FB991F52
S113211061F09F3F79F0879508951216130614060F
S1132120551FF2CF4695F1DF08C01616170618069C
S1132130991FF1CF86957105610508940895E89477
S1132140BB2766277727CB0197F908950E94B9101A
S11321500C946C100E945E1038F00E94651020F000
S1132160952311F00C9455100C945B1011240C94CD
S1132170A0100E947D1070F3959FC1F3950F50E05D
S1132180551F629FF001729FBB27F00DB11D639F25
S1132190AA27F00DB11DAA1F649F6627B00DA11DCB
S11321A0661F829F2227B00DA11D621F739FB00D71
S11321B0A11D621F839FA00D611D221F749F3327E1
S11321C0A00D611D231F849F600D211D822F762F7A
S11321D06A2F11249F5750409AF0F1F088234AF057
S11321E0EE0FFF1FBB1F661F771F881F91505040C3
S11321F0A9F79E3F510580F00C9455100C94A01043
S11322005F3FE4F3983ED4F3869577956795B79549
S1132210F795E7959F5FC1F7FE2B880F911D969563
S1132220879597F90895FB01DC0101900D92002038
S10B2230E1F70895F894FFCFD3
S1132238012070A0C0D0D8DFE0EF14940294029477
S113224802FE01940202037C01FE017C014001B8F4
S113225801E001C201AE017C019402F8025C03BCF6
S113226802F802940208024402E0010000D90013B3
S1132278014E69636B204D63436F6D6220202020FB
S113228820002045434520343733202020202020B7
S113229820200048656C6C6F2C20667269656E643A
S11322A8203A2931313233343536373839303132FE
S11322B833343539002020202020202020202020DD
S11322C82020202020202020202020202020202002
S11322D82020202020004E69636B204D63436F6DDE
S11322E862202020202020454345343733202020F5
S10B22F82020202020202000FA
S9030000FC
