:100000000C9418020C9437020C9437020C943702AB
:100010000C9437020C9437020C9437020C9437027C
:100020000C9437020C9437020C9473050C9437022D
:100030000C94BD050C9437020C9437020C943702D3
:100040000C94FC050C9437020C947D050C9437023B
:100050000C9437020C94AB050C9437020C943702C5
:100060000C9437020C9437020C9437020C9437022C
:100070000C9437020C9437020C9437020C9437021C
:100080000C9437020C943C0A0C9437027D0A540AF3
:10009000540A540A540A540A540A540A7D0A540A47
:1000A000540A540A540A540A540A540A870A540A2D
:1000B000540A540A540A540A540A540A540A540A50
:1000C000540A540A540A540A540A540A870A540A0D
:1000D000540A540A540A540A540A540A540A540A30
:1000E000540A540A540A540A540A540A9E0A540AD6
:1000F000540A540A540A540A540A540AA20A540AC2
:10010000540A540A540A540A540A540A540A540AFF
:10011000540A540A540A540A540A540AB00A540A93
:10012000540A540A540A540A540A540A6E0A360BE2
:10013000400B4A0B540B5F0B6A0B750B220B2C0BFD
:10014000CB0CC30CBE0CE80CDB0CE30CD30C9C0CEE
:10015000940C8F0C870CF00CA40C7A0C620C100D14
:10016000B90CB10CA90C300D6A0C200D720C3D0DB0
:10017000080D280D820C000DF80C180D5D0C2B0CD1
:10018000230C330C350D160C0E0C380CF10B550CE2
:100190001E0C010CF90B450C090C3D0CE90BCF0BA7
:1001A0004D0CBF0BB70BDC0BD40BE10BB20BC70B29
:1001B0009A0BAA0B950B8D0B850B800BA20B470E90
:1001C000650E410E530E350E3B0E350E3B0E6B0E7B
:1001D000470E650E410E530E4D0E2F0E4D0E2F0E77
:1001E000950ED10E890E010F890EC50EBF0E2F0E72
:1001F0009B0E2F0EAD0E590EEF0E350EE30E710E47
:10020000E90E770EF50EB90E5F0E590EA10E7D0E9A
:10021000470E650E410E530E350E3B0E350E3B0E4E
:100220006B0E470ECB0E5F0E410E4D0E2F0E4D0E78
:100230002F0E950ED70EA70E6B0EDD0E9B0E710EB8
:10024000770E590E5F0EFB0E7D0E190F3D0F130F2B
:10025000370FBB0FB50F130F3D0F430F1F0FC70F06
:10026000130F190F370F130F7F0F130F2B0F190FCA
:100270005B0F430F1F0F550FD90F2B0F490FE50FC2
:10028000970F490FAF0F130F190F370F130F790F78
:100290001F0F3D0F130F2B0F190F5B0F430F1F0F76
:1002A000D30F6D0F670F310F610F4F0F310FA30F7A
:1002B000A90F9D0F6D0F670F310F610F4F0FC10F0A
:1002C000CD0F550F850F8B0F951489148314771458
:1002D000711465145F14591453144D1441143B14D4
:1002E000351429142314171411140514FF13F313D0
:1002F000ED13E713E113DB13CF13C913C313BD13BE
:10030000B713AB13A513991393138D1387137B1393
:100310007513691363135713511345133F133313A5
:100320002D1321131B1315130F130913FD12F712AD
:10033000F112EB12E512D912D312C712C112BB127D
:10034000B512A912A3129D129712911285127F1253
:1003500073126D126712611255124F124912431235
:10036000371231122B1225121F1213120D12011205
:10037000FB11EF11E911DD11D711CB11C511BF111F
:10038000B911B311A711A11195118F118911831101
:10039000771171116B1165115911531147114111E9
:1003A00035112F1123111D1111110B11FF10F9100F
:1003B000ED10E710E110DB10D510C910C310BD100F
:1003C000B110AB109F1099108D1087107B10751015
:1003D0006F1069105D1057104B1045103910331015
:1003E000271021101B1015100F100310FD0FF70F11
:1003F0009B14C514B314C514B314C514B314E91471
:10040000B314E914D114BF140115BF14EF14DD1493
:10041000CB14B314CB14B314CB14B314E314B3142C
:10042000E314D114F514FB14B314BF140715DD1431
:1004300011241FBECFEFD0E1DEBFCDBF11E0A0E0A1
:10044000B1E0E2EDFDE200E00BBF02C007900D92CB
:10045000A235B107D9F722E0A2E5B1E001C01D92B3
:10046000AE38B207E1F70E9457150C94E7160C94CA
:10047000000087B3876087BB8DB180658DB9709AA6
:1004800008950E94130889E291E00E94430880E9E0
:1004900091E00E94430810927B01089542E067E8D2
:1004A00072E080E90E94E00AE7E8F2E0808190E0F3
:1004B000982F88272181822B90937F0180937E0142
:1004C00060E870E00E9421169B016093B101709377
:1004D000B2018093B3019093B4014AE06AE971E0FC
:1004E000C9010E94B2168091B3019091B40160E8F5
:1004F00070E024E6AC01249FC001259F900D1124DB
:100500000E9421169B016093950170939601809340
:100510009701909398014AE063E871E0C9010E9455
:10052000B2160895CF93109259018FEF8ABB8BBBFF
:10053000E0912301F0E0F0937901E09378011092CB
:100540008A01CFEF9F01ADECBCEC0E945D16AC01BF
:10055000569547955695479556954795CA01880FE4
:10056000991F440F551F440F551F440F551F480F27
:10057000591FE41BF50BE093990118BA98B3E09169
:100580005901F0E0E050FF4F8081892B88BBCBBB45
:10059000E0919901F0E0EA5EFE4F80818BBB81EE35
:1005A00094E00197F1F700C00000809159018F5F3E
:1005B0008093590120917801309179010E945D1654
:1005C000FC01F695E795F695E795F695E795F09396
:1005D0007901E093780180918A018F5F80938A018D
:1005E000823008F4AFCF4091240150E0509379015C
:1005F00040937801CFEF9A01ADECBCEC0E945D1600
:100600009695879596958795969587959C01220F47
:10061000331F880F991F880F991F880F991F820F0A
:10062000931F481B590B4093990118BA98B3E09156
:100630005901F0E0E050FF4F8081892B88BBCBBB94
:10064000E0919901F0E0EA5EFE4F80818BBB81EE84
:1006500094E00197F1F700C00000809159018F5F8D
:100660008093590120917801309179010E945D16A3
:10067000AC01569547955695479556954795509395
:100680007901409378014115510509F0B4CF80E616
:1006900088BBCF910895CF93109259018FEF8ABBF9
:1006A0008BBBE0915B01F0E0F0937901E09378017E
:1006B00010928A01CFEF9F01ADECBCEC0E945D1659
:1006C000AC01569547955695479556954795CA015D
:1006D000880F991F440F551F440F551F440F551F76
:1006E000480F591FE41BF50BE093990118BA98B312
:1006F000E0915901F0E0E050FF4F8081892B88BBE9
:10070000CBBBE0919901F0E0EA5EFE4F80818BBBAC
:1007100081EE94E00197F1F700C00000809159014B
:100720008F5F8093590120917801309179010E9467
:100730005D16FC01F695E795F695E795F695E79534
:10074000F0937901E093780180918A018F5F809323
:100750008A01823008F4AFCF4091250150E05093D8
:10076000790140937801CFEF9A01ADECBCEC0E9487
:100770005D169695879596958795969587959C0194
:10078000220F331F880F991F880F991F880F991FF9
:10079000820F931F481B590B4093990118BA98B3C5
:1007A000E0915901F0E0E050FF4F8081892B88BB38
:1007B000CBBBE0919901F0E0EA5EFE4F80818BBBFC
:1007C00081EE94E00197F1F700C00000809159019B
:1007D0008F5F8093590120917801309179010E94B7
:1007E0005D16AC0156954795569547955695479594
:1007F00050937901409378014115510509F0B4CF28
:1008000080E688BBCF91089599B380912701891B19
:10081000843089F140F08031B1F0803209F442C077
:100820008830E9F00895813091F1823019F52091F6
:100830007A0191E0922790937A0190916101892742
:100840008093610108952091540191E09227909343
:1008500054019091610189278093610108959091DD
:1008600023019B5F909323019091610189278093DD
:100870006101089508952091820191E0922790935B
:10088000820190916101892780936101089590917F
:10089000AF0198279093AF019091610189278093D0
:1008A000610108952091530191E0922790935301A3
:1008B00090916101892780936101089530915E01D3
:1008C0003093600120915D0120935F0180918E0142
:1008D00090918F01482F437040935E018C7099274F
:1008E0009695879596958795982F80935D013417F7
:1008F00021F0313041F1323049F0291731F0213007
:10090000B1F0223011F4933079F108954330A9F712
:100910008091AF0130917A01432F482371F78823EA
:1009200069F180912501815080932501E6CF9330B4
:1009300061F78091860090918700C296909387001E
:100940008093860008954330C1F68091AF013091C5
:100950007A01432F482389F68823C9F08091250125
:100960008F5F80932501C9CF809186009091870089
:10097000C29790938700809386000895332309F4EB
:10098000BCCF80915B01815080935B01B6CF332354
:1009900009F4B3CF80915B018F5F80935B01ADCF92
:1009A00080915C018C33B1F080915B018C33D9F084
:1009B000809125018D3001F18091200190912101DC
:1009C000813D974030F080ED97E090932101809336
:1009D0002001089510925C0180915B018F5F8093EC
:1009E0005B018C3329F710925B01809125018F5FA9
:1009F000809325018D3001F781E080932501DCCFC4
:100A00009091250180912401981719F010925A01B4
:100A1000089590915B01809123019813F7CF81E0B5
:100A200080935A01089580915401811109C06FE9A2
:100A300071E088E691E00E94A216892BD9F508950D
:100A4000809153018823A9F080917B018130B9F70F
:100A500060E971E088E691E00E94AB166FE971E011
:100A600088E691E00E94A216892B81F510927B0105
:100A700008956AE971E088E691E00E94AB166FE99B
:100A800071E088E691E00E94A216892BC1F268E627
:100A900071E08FE991E00E94AB160E94130888E68E
:100AA00091E00E9443088EE20E943F0883E891E0B3
:100AB0000C94430868E671E08FE991E00E94AB1660
:100AC0000E94130888E691E00C94430868E671E000
:100AD0008FE991E00E94AB160E94130888E691E02E
:100AE0000E944308C3CF1F920F920FB60F9211249A
:100AF0000F900FBE0F901F9018951F920F920FB678
:100B00000F9211240BB60F928F939F93EF93FF9345
:100B10008CB18093B001E091650191E09E0F9093BC
:100B20006501F0E0E057FE4F8083811109C081E04C
:100B300080937B0180E280838183828310926501B0
:100B4000FF91EF919F918F910F900BBE0F900FBE71
:100B50000F901F9018951F920F920FB60F921124AD
:100B60008F939F9384B195B1809322019F918F9130
:100B70000F900FBE0F901F9018951F920F920FB6F7
:100B80000F9211240BB60F922F933F934F935F93C5
:100B90006F937F938F939F93AF93BF93EF93FF9345
:100BA00082B3805882BB2091880130918901809165
:100BB0008001909181012817390758F080917C01BC
:100BC0008F5F80937C0160917C0180917D010E9408
:100BD0000D15FF91EF91BF91AF919F918F917F91F3
:100BE0006F915F914F913F912F910F900BBE0F909E
:100BF0000FBE0F901F9018951F920F920FB60F9275
:100C000011240BB60F922F933F934F935F936F93E3
:100C10007F938F939F93AF93BF93EF93FF938091B5
:100C200064018F5F80936401982F977051F4209135
:100C30008801309189012F5F3F4F309389012093C4
:100C40008801982F9F7709F46FC091E0843808F4E9
:100C500090E02CE7929F800D1124811101C0369AFB
:100C60001ABA8FEF8BBB80E788BB89EF90E00197C2
:100C7000F1F700C0000089B390E020912701309186
:100C800028018217930709F464C08091260181111D
:100C900064C089B3209162013091630190E08217B2
:100CA000930739F089B390E02817390711F00E94B3
:100CB000040489B390E090936301809362018FEF05
:100CC0008ABB80E788BB13B880E883B983EF91E0E3
:100CD0000197F1F700C00000809161018FB98FB1D9
:100CE00090E090938F0180938E01779BFECF80ECF4
:100CF00083B980E483B981E788BB80E788BB0E9421
:100D00005E04FF91EF91BF91AF919F918F917F9181
:100D10006F915F914F913F912F910F900BBE0F906C
:100D20000FBE0F901F9018950E944E0280910401F3
:100D300088BB8CEF8BBB87EA91E60197F1F700C087
:100D4000000080915C018F5F80935C018091640161
:100D50007CCF81E080932601B2CF0E9404041092E0
:100D60002601A7CF5D9BFECF8CB95D9BFECF08957A
:100D700090919B0095FFFCCF80939C0080919B00FD
:100D800085FFFCCF0895FC019081992349F03196AD
:100D90005D9BFECF9CB95D9BFECF91919111F8CFE9
:100DA0000895FC012081222371F0319690919B00DF
:100DB00095FFFCCF20939C0090919B0095FFFCCF6A
:100DC00021912111F3CF08959C01FC01449144230A
:100DD00069F00196F90124915D9BFECF2CB95D9BD2
:100DE000FECF9C01FC0144914111F3CF08958AB1DB
:100DF00088698AB9E5E9F0E0808186608083109295
:100E0000900087E689B90895EAE9F0E08081886179
:100E10008083EDE9F0E08081866080831092980005
:100E200087E680939900089580E89EE302C00197C9
:100E300021F05F9BFCCF8CB1089580E0089580E89D
:100E40009EE302C0019739F020919B0027FFFACF63
:100E500080919C00089580E0089591E0811101C087
:100E600090E09FB9779BFECF6FB9779BFECF8091C3
:100E7000620088608093620080916200877F809327
:100E800062000895CF93C09166018C0F911DFC0103
:100E9000608181E00E942D0781E08C0F80936601C4
:100EA000803189F0803211F0CF91089585ED8A95D7
:100EB000F1F7000060E880E00E942D0710926601C3
:100EC00080E0CF910895F5EDFA95F1F7000060EC20
:100ED00080E00E942D0780916601E4CFEF92FF929F
:100EE0000F931F93CF93DF931F92CDB7DEB7182FC9
:100EF000660F660F660F605C80E099830E942D0785
:100F000085ED8A95F1F70000E12E9981F92E870190
:100F1000085F1F4FF70161917F0181E00E942D075B
:100F2000F5EDFA95F1F70000E016F10699F70F904C
:100F3000DF91CF911F910F91FF90EF90089590E472
:100F4000899F600D1124605C80E00C942D07CF9385
:100F50008823B9F1C82F843698F48A30D8F48DEC00
:100F6000C89F812D11248695869586956C2F2AE041
:100F7000829F60191124605D81E0CF910C942D0750
:100F800069E2869F612D112462956F70605D81E03A
:100F90000E942D0789E2C89F812D112482958F70B0
:100FA0009C2F24E6829F901911246DEC969F612D51
:100FB0001124669566956695605D81E00E942D0717
:100FC000CECF60E381E0CF910C942D07CF9387FDC6
:100FD00003C0CF910C94A707C82F6DE281E00E9457
:100FE0002D0785ED8A95F1F700008C2F8195CF9123
:100FF0000C94A7076EE080E00C942D076CE080E075
:101000000C942D076EE180E00C942D0768E180E0E0
:101010000C942D07E2E6F0E0808188608083808177
:10102000877F8083089561E080E00E942D078FE133
:101030009CE10197F1F700C00000089562E080E0B4
:101040000E942D078FE697E10197F1F700C000009D
:10105000089560EC80E00C942D0760E880E00C942B
:101060002D07CF93C0E160E281E00E942D0785ED5E
:101070008A95F1F70000C150B1F7CF910895682F1C
:1010800081E00C942D070F931F93CF938C0140E0C8
:1010900050E0C0E0F801E40FF51F608181E00E949C
:1010A0002D0785ED8A95F1F70000CF5F4C2F50E0BA
:1010B000F80101900020E9F79F01201B310B22501D
:1010C00031092417350730F7CF911F910F910895FB
:1010D0008FEF99EF0197F1F700C0000088E080934F
:1010E000610060E380E00E942D078FE59DE6019797
:1010F000F1F700C0000060E380E00E942D078FE55B
:101100009DE60197F1F700C0000060E380E00E94D7
:101110002D078FE59DE60197F1F700C0000068E319
:1011200080E00E942D078FE19EE40197F1F700C057
:10113000000068E080E00E942D078FE19EE40197A7
:10114000F1F700C0000061E080E00E942D078FE110
:101150009EE40197F1F700C0000066E080E00E9485
:101160002D078FE19EE40197F1F700C000006CE0CD
:1011700080E00E942D078FE19EE40197F1F700C007
:10118000000008958F929F92AF92BF92CF92DF920C
:10119000EF92FF920F931F93CF93DF93CDB7DEB7FC
:1011A00069970FB6F894DEBF0FBECDBFF42E122F95
:1011B000002359F04B015C018824B7FC83949924E7
:1011C000AA24BB24082D97FD8FC0112309F484C0E5
:1011D0009E012F5F3F4F6901590188248A94810E37
:1011E000912C3FEF831A930A8C0C9D1C2AE030E06F
:1011F00040E050E00E943516E62F2A8B3B8B4C8B4B
:101200005D8B6A897B898C899D8920E32E0FF5018E
:1012100021935F01E815F90549F7BB24B394B10E9A
:10122000F601E10FF11D2EE220832AE030E040E0DC
:1012300050E00E943516E62F2A8B3B8B4C8B5D8B42
:101240006E8B7F8B888F998F6A897B898C899D892A
:1012500011E01B0DD601AB0DB11DE05DEC93B12E7D
:10126000611571058105910501F7FF2061F0E1101D
:1012700039C080E21F1538F4F601E10FF11D8083BB
:101280001F5F1F11F9CF002331F0F601E10FF11DAF
:101290008DE280831F5F1150F601E10FF11D608127
:1012A00081E00E942D0735ED3A95F1F7000011110C
:1012B000F2CF69960FB6F894DEBF0FBECDBFDF91B7
:1012C000CF911F910F91FF90EF90DF90CF90BF9043
:1012D000AF909F908F900895B12C9E012F5F3F4F4C
:1012E0006901A3CF80E3C6CF9095809570956195F5
:1012F0007F4F8F4F9F4F69CF5F926F927F928F92F8
:101300009F92AF92BF92CF92DF92EF92FF920F9394
:101310001F93CF93DF93CDB7DEB761970FB6F894E5
:10132000DEBF0FBECDBFA62E542E622E792E771CA7
:101330007724771CB72CC72CD12CEE27FF27EC196C
:10134000FD098E279F27FC01EC0DFD1D442309F4A8
:101350008EC0CE0101967C018C0188248A94840E73
:10136000912C9FEF891A990A8E0C9F1C6AE070E0FD
:10137000CF010E942116262FE22FF72F805DD80182
:101380008D938D01A815B90589F701E0050DD701E9
:10139000A50DB11D8EE28C936AE070E0CF010E9432
:1013A0002116262FE22FF72F11E0100FD701A00FE3
:1013B000B11D805D8C93012F309771F7611015C0BE
:1013C000772039F011E0100FF701E00FF11D8DE2E9
:1013D0008083AA2041F1812F90E02A2D30E08217EE
:1013E00093070CF5B12C40E20CC0AA20A1F0812F8C
:1013F00090E02A2D30E02C193D09821793075CF408
:1014000040E31F5FF701E80FF91F4083812F90E051
:1014100082179307B4F3BB2031F0F701E10FF11D00
:101420008DE280831F5F1150F701E10FF11D608194
:1014300081E00E942D0795ED9A95F1F700001111BA
:10144000F2CF61960FB6F894DEBF0FBECDBFDF912D
:10145000CF911F910F91FF90EF90DF90CF90BF90B1
:10146000AF909F908F907F906F905F90089500E075
:10147000CE0101967C0190CF1F920F920FB60F9272
:1014800011240BB60F922F933F938F939F93AF939B
:10149000BF93EF93FF93E09171008E2F90E0FC01DA
:1014A0003897E135F105B0F08091710080938902A1
:1014B00084E080937400FF91EF91BF91AF919F9171
:1014C0008F913F912F910F900BBE0F900FBE0F90F9
:1014D0001F901895EA5BFF4F0C945416809167019A
:1014E000E0918A02F0918B02E80FF11D8091730068
:1014F000808384E980937400DECF80918C02809396
:1015000073001092670185E880937400D4CF8091B6
:10151000670190918D02891760F7E0918A02F0913E
:101520008B0291E0980F90936701E80FF11D808185
:101530008093730085E880937400BDCF85EA809323
:101540007400B9CF2091670180918D0230E090E066
:10155000019728173907DCF485EC80937400ABCF32
:10156000E0918A02F0918B028091670121E0280FBF
:1015700020936701E80FF11D8091730080838091B3
:101580008D0230E090E00197281739072CF385E8A9
:101590008093740090CF8091740081700895909131
:1015A000740090FDFCCF8E7F80938C0270938B0231
:1015B00060938A0240938D0285EA809374000895B7
:1015C0009091740090FDFCCF816080938C027093A9
:1015D0008B0260938A0240938D0285EA80937400A7
:1015E00008958FEF80937300109271008CE08093C8
:1015F00070000895929A109289011092880190E0EB
:1016000090938101809380010895582F92981092B1
:1016100089011092880130E030938101209380018C
:10162000842F90E08930910518F01BBC1ABC0895F6
:1016300089569F4FFC01852F550F990BAA0BBB0BA9
:101640000C945416FC01E154F109E730F10578F7E8
:10165000E056FF4F0C945416FC01E154F109E730B9
:10166000F10528F7E955FF4F0C945416FC01E1549D
:10167000F109E730F105D8F6E255FF4F0C94541606
:10168000FC01E154F109E730F10588F6EB54FF4F16
:101690000C945416FC01E154F109E730F10538F6D9
:1016A000E454FF4F0C945416FC01E154F109E73067
:1016B000F10508F0BCCFED53FF4F0C945416FC011C
:1016C000E154F109E730F10508F0B1CFE653FF4FDF
:1016D0000C945416FC01E154F109E730F10508F0CF
:1016E000A6CFEF52FF4F0C945416FC01E154F109C0
:1016F000E730F10508F09BCFE852FF4F0C945416E9
:1017000088E590E09BBD8ABD0895662309F40FC269
:1017100083E690E09BBD8ABD0895662309F411C25B
:101720008FE690E09BBD8ABD089586E790E09BBD63
:101730008ABD0895662309F4FFC18AE490E09BBD49
:101740008ABD0895662309F401C283E590E09BBD3C
:101750008ABD0895662309F4B8C182E490E09BBD78
:101760008ABD089581EB90E09BBD8ABD08956623F4
:1017700009F4D3C185E890E09BBD8ABD0895662336
:1017800009F4C1C185E990E09BBD8ABD0895662337
:1017900009F4BEC187EA90E09BBD8ABD089584E646
:1017A00091E09BBD8ABD0895662309F4BBC180EE1C
:1017B00090E09BBD8ABD08958DEE90E09BBD8ABDF3
:1017C0000895662309F48BC187EC90E09BBD8ABD28
:1017D0000895662309F474C180E991E09BBD8ABD38
:1017E0000895662309F4CBC184E893E09BBD8ABDCC
:1017F0000895662309F4AFC18BE291E09BBD8ABDD9
:101800000895662309F4B1C182EA92E09BBD8ABDC6
:1018100008958CED91E09BBD8ABD0895662309F47F
:1018200059C187E192E09BBD8ABD0895662309F402
:10183000B0C188E592E09BBD8ABD08958AEC92E034
:101840009BBD8ABD0895662309F435C186E496E000
:101850009BBD8ABD0895662309F482C18AE097E0A2
:101860009BBD8ABD089586E995E09BBD8ABD08951C
:101870008AEB93E09BBD8ABD0895662309F47AC183
:1018800081EC91E09BBD8ABD0895662309F47CC17B
:101890008BE091E09BBD8ABD0895662309F47EC16B
:1018A00080E591E09BBD8ABD0895662309F4ADC132
:1018B00082E293E09BBD8ABD089586E797E09BBDD9
:1018C0008ABD0895662309F40FC18EEC92E19BBD99
:1018D0008ABD0895662309F47AC18DE195E19BBD27
:1018E0008ABD0895662309F4DCC080E698E09BBDBC
:1018F0008ABD0895662309F492C180E190E09BBD02
:101900008ABD08958EE29BE09BBD8ABD0895662343
:1019100009F449C18BE190E09BBD8ABD08958CE13B
:1019200090E09BBD8ABD0895662309F441C187E01C
:1019300090E09BBD8ABD0895662309F4DAC08BE070
:1019400090E09BBD8ABD089582E190E09BBD8ABD79
:101950000895662309F49BC089E199E19BBD8ABD86
:101960000895662309F429C180E39CE19BBD8ABDEB
:1019700008958CED9DE19BBD8ABD08958AE390E0BA
:101980009BBD8ABD0895662309F435C180E290E0CD
:101990009BBD8ABD0895662309F432C184E290E0BC
:1019A0009BBD8ABD0895662309F476C089E290E064
:1019B0009BBD8ABD0895662309F478C081E390E059
:1019C0009BBD8ABD08958BE290E09BBD8ABD0895C2
:1019D000662309F493C087E390E09BBD8ABD089518
:1019E000662309F44FC088E190E09BBD8ABD08954D
:1019F000662309F4F6C082EB94E09BBD8ABD08958E
:101A0000662309F416C18DE89AE09BBD8ABD08954E
:101A1000662309F4D7C086E19EE09BBD8ABD089588
:101A2000662309F4F7C080EC90E19BBD8ABD089560
:101A3000662309F4D1C08FE294E09BBD8ABD08956E
:101A4000662309F4F1C087E699E09BBD8ABD08953D
:101A5000662309F4CBC08DE89CE09BBD8ABD089548
:101A60008DE596E19BBD8ABD0895662309F4E6C025
:101A700086E495E09BBD8ABD08958DEE9EE09BBDFA
:101A80008ABD089585E190E09BBD8ABD089582EBF3
:101A900097E19BBD8ABD089586E290E09BBD8ABD1B
:101AA000089587EE97E09BBD8ABD08958EE290E091
:101AB0009BBD8ABD08958BEE95E09BBD8ABD0895C0
:101AC0008AE791E09BBD8ABD08958EE390E09BBDBF
:101AD0008ABD089589EF91E09BBD8ABD08958CEB86
:101AE00090E09BBD8ABD089580EC91E19BBD8ABDCD
:101AF000089589E090E09BBD8ABD089584E390E05D
:101B00009BBD8ABD08958DE890E09BBD8ABD089578
:101B10008EE990E09BBD8ABD08958DE790E09BBD66
:101B20008ABD089583ED90E09BBD8ABD08958DE543
:101B300090E09BBD8ABD089586E490E09BBD8ABD80
:101B4000089589E690E09BBD8ABD08958EE490E0FB
:101B50009BBD8ABD08958BE191E09BBD8ABD089530
:101B600085EA96E09BBD8ABD08958CE792E09BBD17
:101B70008ABD089588EA91E09BBD8ABD089582E5FB
:101B800093E09BBD8ABD08958CEF90E09BBD8ABD1C
:101B9000089587E392E09BBD8ABD08958DE391E0AF
:101BA0009BBD8ABD089589E190E09BBD8ABD0895E3
:101BB00085E090E09BBD8ABD08958AE99AE19BBDCE
:101BC0008ABD08958CE49DE09BBD8ABD08958DEE8D
:101BD00093E19BBD8ABD089583EF93E09BBD8ABDD1
:101BE00008958FE694E09BBD8ABD089588ED9BE043
:101BF0009BBD8ABD08958EE190E09BBD8ABD08958E
:101C000082E290E09BBD8ABD089585EF92E09BBD86
:101C10008ABD089580ED9FE09BBD8ABD08958DE04B
:101C200090E09BBD8ABD08958FED98E09BBD8ABD75
:101C3000089586EF99E09BBD8ABD08958AEF94E0F0
:101C40009BBD8ABD08958634910520F08FEF809367
:101C50007C010895FC01E152FF4F0C94541622E0E0
:101C600044E060E081E40C94050B26E044E060E091
:101C700081E40C94050B22E044E061E081E40C94E3
:101C8000050B28E044E060E084E40C94050B28E0B8
:101C900044E060E086E40C94050B26E044E061E05B
:101CA00082E40C94050B28E044E060E083E40C94AB
:101CB000050B28E044E060E081E40C94050B28E08B
:101CC00044E060E087E40C94050B28E044E060E029
:101CD00085E40C94050B20E144E060E081E40C9481
:101CE000050B24E045E060E083E40C94050B24E060
:101CF00045E060E084E40C94050B929A109289010F
:101D00001092880188E090E0909381018093800197
:101D10000895929A109289011092880181E090E0D2
:101D20009093810180938001089520E144E061E077
:101D300082E40C94050B28E044E061E082E40C941A
:101D4000050B28E144E060E087E40C94050B20E1FA
:101D500045E060E084E40C94050B929A10928901AE
:101D60001092880182E090E090938101809380013D
:101D7000089524E044E060E081E40C94050B26E043
:101D800044E060E087E40C94050B24E044E061E06B
:101D900087E40C94050B28E044E061E087E40C94B0
:101DA000050B23E044E060E087E40C94050B20E1A0
:101DB00044E060E084E40C94050B20E145E060E041
:101DC00083E40C94050B22E044E061E082E40C948F
:101DD000050B24E045E061E084E40C94050B24E06D
:101DE00044E061E081E40C94050B28E044E060E00D
:101DF00082E40C94050B28E144E060E086E40C9456
:101E0000050B27E044E060E087E40C94050B8F337A
:101E1000910520F08FEF80937C010895FC01EB5D2C
:101E2000FE4F0C94541624E044E060E083E40C94EC
:101E3000050B28E044E060E085E40C94050B929AE1
:101E4000109289011092880181E090E090938101C5
:101E500080938001089528E044E060E084E40C94DD
:101E6000050B20E143E060E083E40C94050B24E0E3
:101E700044E060E084E40C94050B24E043E060E07F
:101E800082E40C94050B27E043E060E081E40C94CD
:101E9000050B24E044E060E086E40C94050B20E1AF
:101EA00042E060E082E40C94050B20E143E060E056
:101EB00081E40C94050B28E044E060E083E40C949A
:101EC000050B20E143E060E084E40C94050B20E185
:101ED00043E060E085E40C94050B929A109289012E
:101EE0001092880188E090E09093810180938001B6
:101EF000089527E043E060E082E40C94050B2CE0B9
:101F000043E060E082E40C94050B20E143E061E0F3
:101F100081E40C94050B929A109289011092880129
:101F200080E190E09093810180938001089524E006
:101F300044E060E087E40C94050B28E042E060E0B8
:101F400082E40C94050B20E142E060E081E40C9413
:101F5000050B20E142E061E081E40C94050B2CE0EC
:101F600044E060E085E40C94050B22E044E060E08E
:101F700084E40C94050B22E044E060E085E40C94DA
:101F8000050B28E043E060E083E40C94050B24E0BB
:101F900043E060E081E40C94050B28E043E060E05E
:101FA00085E40C94050B28E043E060E081E40C94A8
:101FB000050B929A109289011092880184E090E0BA
:101FC0009093810180938001089528E044E060E0CF
:101FD00081E40C94050B8539910520F08FEF8093F7
:101FE0007C010895FC01EC59FE4F0C94541624E03A
:101FF00043E060E087E40C94050B22E043E060E0FE
:1020000081E40C94050B929A109289011092880138
:1020100082E090E09093810180938001089522E016
:1020200044E060E083E40C94050B22E044E060E0CF
:1020300085E40C94050B24E044E060E084E40C9417
:10204000050B22E044E060E083E40C94050B929AD7
:10205000109289011092880182E090E090938101B2
:1020600080938001089522E044E060E083E40C94D2
:10207000050B929A109289011092880182E090E0FB
:102080009093810180938001089522E044E060E014
:1020900083E40C94050B929A1092890110928801A6
:1020A00081E090E09093810180938001089522E087
:1020B00044E060E083E40C94050B929A109289014D
:1020C0001092880180E190E09093810180938001DB
:1020D000089522E044E060E085E40C94050B22E0E2
:1020E00044E060E084E40C94050B22E044E060E00E
:1020F00083E40C94050B929A109289011092880146
:1021000082E090E09093810180938001089522E025
:1021100044E060E083E40C94050B929A10928901EC
:102120001092880182E090E0909381018093800179
:10213000089522E044E060E083E40C94050B929A59
:10214000109289011092880181E090E090938101C2
:1021500080938001089522E044E060E083E40C94E1
:10216000050B929A109289011092880184E090E008
:102170009093810180938001089524E043E060E022
:1021800087E40C94050B22E043E060E081E40C94CA
:10219000050B929A109289011092880182E090E0DA
:1021A0009093810180938001089522E044E060E0F3
:1021B00083E40C94050B22E044E060E085E40C9499
:1021C000050B24E044E060E084E40C94050B22E07D
:1021D00044E060E083E40C94050B929A109289012C
:1021E0001092880182E090E09093810180938001B9
:1021F000089522E044E060E083E40C94050B929A99
:10220000109289011092880182E090E09093810100
:1022100080938001089522E044E060E083E40C9420
:10222000050B929A109289011092880181E090E04A
:102230009093810180938001089522E044E060E062
:1022400083E40C94050B929A1092890110928801F4
:102250008AE090E09093810180938001089524E0CA
:1022600044E060E083E40C94050B929A109289019B
:102270001092880184E090E0909381018093800126
:10228000089522E044E060E084E40C94050B929A07
:10229000109289011092880182E090E09093810170
:1022A00080938001089524E044E061E085E40C948B
:1022B000050B929A109289011092880184E090E0B7
:1022C0009093810180938001089522E044E060E0D2
:1022D00084E40C94050B22E044E060E083E40C9479
:1022E000050B22E043E060E081E40C94050B929A38
:1022F000109289011092880182E090E09093810110
:1023000080938001089522E044E060E083E40C942F
:10231000050B22E043E060E081E40C94050B22E031
:1023200043E061E081E40C94050B929A10928901DC
:102330001092880182E090E0909381018093800167
:10234000089522E044E060E085E40C94050B929A45
:10235000109289011092880182E090E090938101AF
:1023600080938001089522E044E061E085E40C94CC
:10237000050B22E044E060E086E40C94050B22E0CB
:1023800044E061E087E40C94050B22E044E060E067
:1023900087E40C94050B929A10928901109288019F
:1023A00088E090E09093810180938001089524E07B
:1023B00044E060E087E40C94050B929A1092890146
:1023C0001092880181E090E09093810180938001D8
:1023D000089521E044E060E087E40C94050B929AB4
:1023E000109289011092880182E090E0909381011F
:1023F00080938001089522E044E060E087E40C943B
:10240000050B929A109289011092880182E090E067
:102410009093810180938001089522E043E060E081
:1024200085E40C94050B929A109289011092880110
:1024300082E090E09093810180938001089522E0F2
:1024400043E061E085E40C94050B22E043E060E0AA
:1024500086E40C94050B22E043E061E087E40C94F1
:10246000050B22E043E060E087E40C94050B929AB0
:10247000109289011092880184E090E0909381018C
:1024800080938001089522E044E060E084E40C94AD
:10249000050B22E044E060E083E40C94050B22E0AD
:1024A00043E060E081E40C94050B929A109289015C
:1024B0001092880182E090E09093810180938001E6
:1024C000089522E044E060E083E40C94050B22E0F0
:1024D00043E060E081E40C94050B22E043E061E01E
:1024E00081E40C94050B929A109289011092880154
:1024F00082E090E09093810180938001089522E032
:1025000044E060E085E40C94050B929A10928901F6
:102510001092880182E090E0909381018093800185
:10252000089522E044E061E085E40C94050B22E08C
:1025300044E060E086E40C94050B22E044E061E0B6
:1025400087E40C94050B22E044E060E087E40C94FF
:10255000050B929A109289011092880188E090E010
:102560009093810180938001089522E043E060E030
:1025700082E40C94050B22E044E060E084E40C94D7
:10258000050B22E044E060E083E40C94050B929A92
:10259000109289011092880182E090E0909381016D
:1025A00080938001089522E044E060E085E40C948B
:1025B000050B929A109289011092880182E090E0B6
:1025C0009093810180938001089522E044E060E0CF
:1025D00087E40C94050B22E044E060E086E40C9470
:1025E000050B24E044E060E081E40C94050B22E05C
:1025F00044E060E087E40C94050B929A1092890104
:102600001092880181E090E0909381018093800195
:10261000089522E044E060E085E40C94050B23E09B
:1026200043E060E087E40C94050B24E043E060E0C5
:1026300081E40C94050B22E043E061E082E40C9419
:10264000050B929A109289011092880182E090E025
:102650009093810180938001089522E043E060E03F
:1026600082E40C94050B929A1092890110928801D1
:1026700082E090E09093810180938001089522E0B0
:1026800043E060E081E40C94050B929A109289017A
:102690001092880182E090E0909381018093800104
:1026A000089524E043E060E085E40C94050B929AE1
:1026B000109289011092880183E090E0909381014B
:1026C00080938001089522E043E060E087E40C9469
:1026D000050B929A109289011092880182E090E095
:1026E0009093810180938001089525E044E060E0AB
:1026F00083E40C94050B929A109289011092880140
:1027000084E090E09093810180938001089522E01D
:1027100043E060E082E40C94050B22E044E060E0DA
:1027200084E40C94050B22E044E060E083E40C9424
:10273000050B929A109289011092880182E090E034
:102740009093810180938001089522E044E060E04D
:1027500085E40C94050B929A1092890110928801DD
:1027600082E090E09093810180938001089522E0BF
:1027700044E060E087E40C94050B22E044E060E074
:1027800086E40C94050B24E044E060E081E40C94C2
:10279000050B22E044E060E087E40C94050B929A7C
:1027A000109289011092880181E090E0909381015C
:1027B00080938001089522E044E060E085E40C9479
:1027C000050B23E043E060E087E40C94050B24E074
:1027D00043E060E081E40C94050B22E043E061E01B
:1027E00082E40C94050B929A109289011092880150
:1027F00082E090E09093810180938001089522E02F
:1028000043E060E082E40C94050B929A10928901F7
:102810001092880182E090E0909381018093800182
:10282000089522E043E060E081E40C94050B929A65
:10283000109289011092880182E090E090938101CA
:1028400080938001089524E043E060E085E40C94E7
:10285000050B929A109289011092880184E090E011
:102860009093810180938001089522E043E060E02D
:1028700087E40C94050B25E044E060E083E40C94CD
:10288000050B929A109289011092880188E090E0DD
:102890009093810180938001089528E042E060E0F8
:1028A00087E40C94050B28E044E060E087E40C9496
:1028B000050B24E044E060E085E40C94050B22E085
:1028C00044E060E083E40C94050B929A1092890135
:1028D0001092880182E090E09093810180938001C2
:1028E000089522E044E060E085E40C94050B929AA0
:1028F000109289011092880181E090E0909381010B
:1029000080938001089523E044E060E085E40C9426
:10291000050B929A109289011092880181E090E053
:102920009093810180938001089521E044E060E06C
:1029300085E40C94050B929A1092890110928801FB
:1029400088E090E0909381018093800108958F3119
:10295000910520F08FEF80937C010895FC01E750F2
:10296000FE4F0C945416929A10928901109288018D
:1029700081E090E09093810180938001089524E0AC
:1029800045E060E085E40C94050B27E044E060E05E
:1029900085E40C94050B27E044E061E085E40C94A9
:1029A000050B929A109289011092880185E090E0BF
:1029B0009093810180938001089528E045E060E0D4
:1029C00085E40C94050B23E044E061E085E40C947D
:1029D000050B23E044E060E085E40C94050B28E05F
:1029E00045E060E087E40C94050B24E045E061E0FD
:1029F00085E40C94050B23E045E060E085E40C944D
:102A0000050B24E045E061E087E40C94050B28E029
:102A100045E061E087E40C94050B813089F060F0BB
:102A2000823031F0833041F4862F90E00C94A7146B
:102A3000862F90E00C94EB0F862F90E00C94230EE1
:102A4000862F90E00C94070F10927C018EB58C7F3E
:102A50008EBD929A089510927C018EB583608EBDD2
:102A6000929860917C0180917D010C940D1587B73F
:102A7000806187BF1FBC8EB588608EBD10927A00C2
:102A800081E390E09BBD8ABD10927C018EB58C7F66
:102A90008EBD929A10928901109288011092810144
:102AA0001092800110927C0110927D010895809116
:102AB00061008860809361000E94F70687B3876099
:102AC00087BB8DB180658DB9709A0E9413080E94F2
:102AD0001E080E94F10A80E98093850242E065E8C1
:102AE00072E00E94CF0A83EF91E00197F1F700C0F6
:102AF0000000CFEFCABB87EF87BB80EC82B990E4C0
:102B000093B987B7816087BF83B7816083BF80B780
:102B1000886080BF85B58B6685BD809161008160CE
:102B20008093610081E08093620097B98FE886B955
:102B300080E58DB9C1BB0E943715139A80918B0037
:102B4000826880938B0080918A008A6080938A00DB
:102B500080918C0080938C0088EE93E090938700A6
:102B6000809386000E9468080E9413088BE291E01F
:102B70000E9443087894CABB80E788BB78940CE035
:102B800018E0CCEBD2E0EE24E3948AE0F82E20C0EB
:102B90000E944B03EEE3F1E0A8E6B1E0812F019043
:102BA0000D928A95E1F7D0932101C0932001809185
:102BB0005501882309F440C00E9413059091250116
:102BC00080912401981719F110925A010E94D004A3
:102BD00080918201811124C080915A018111D8CF46
:102BE0000E944B03E6E4F1E0A8E6B1E0802F0190FB
:102BF0000D928A95E1F70E942415109255010E94CA
:102C0000130590912501809124019813DDCF9091B7
:102C10005B01809123019813D7CFE0925A01D6CF60
:102C20000E949202E4E3F1E0A8E6B1E08F2D01906A
:102C30000D928A95E1F7C0CF0E942B15E0925501C5
:102C4000BBCF97FB072E16F4009407D077FD09D071
:102C50000E946C1607FC05D03EF4909581959F4F1D
:102C60000895709561957F4F0895052E97FB1EF48A
:102C700000940E944C1657FD07D00E94801607FC56
:102C800003D04EF40C944C165095409530952195F8
:102C90003F4F4F4F5F4F0895909580957095619588
:102CA0007F4F8F4F9F4F0895EE0FFF1F0024001C92
:102CB0000BBE0790F691E02D0994A29FB001B39F3F
:102CC000C001A39F700D811D1124911DB29F700D35
:102CD000811D1124911D0895AA1BBB1B51E107C042
:102CE000AA1FBB1FA617B70710F0A61BB70B881F9C
:102CF000991F5A95A9F780959095BC01CD0108952B
:102D0000A1E21A2EAA1BBB1BFD010DC0AA1FBB1FEF
:102D1000EE1FFF1FA217B307E407F50720F0A21B61
:102D2000B30BE40BF50B661F771F881F991F1A94CE
:102D300069F760957095809590959B01AC01BD01F8
:102D4000CF010895FB01DC018D91019080190110E4
:102D5000D9F3990B0895FB01DC0101900D9200203D
:102D6000E1F70895BB274A3031F4992322F4BDE2FC
:102D7000909581959F4F0C94BE16BB27FB0155275C
:102D8000AA27880F991FAA1FA41710F0A41B8395C8
:102D90005051B9F7A05DAA3308F0A95DA19300973F
:102DA00079F7B111B1931192CB010C94D716DC01D4
:102DB000FC01672F71917723E1F7329704C07C9172
:102DC0006D9370836291AE17BF07C8F30895F894AE
:022DD000FFCF33
:102DD200001030402070C0F9A4B0999283F8809816
:102DE2008883C6A1868EC0F9A4B0999283F8809890
:102DF20064006E140C0C01FF0061004D6F68616D80
:102E02006D65640073657420616C61726D00576159
:102E12006B652055500020202020202020202020DB
:022E220020008E
:00000001FF
