:100000000C9446000C9465000C9465000C946500FB
:100010000C9465000C9465000C9465000C946500CC
:100020000C9465000C9465000C9465000C946500BC
:100030000C9465000C9465000C9465000C946500AC
:100040000C94DF000C9465000C9465000C94650022
:100050000C9465000C9465000C9465000C9465008C
:100060000C9465000C9465000C9465000C9465007C
:100070000C9465000C9465000C9465000C9465006C
:100080000C9465000C9465000C94650011241FBE4F
:10009000CFEFD0E1DEBFCDBF11E0A0E0B1E0EAE0FC
:1000A000F7E000E00BBF02C007900D92A432B10749
:1000B000D9F721E0A4E2B1E001C01D92AA33B20752
:1000C000E1F70E9447030C9483030C940000CF9344
:1000D000DF9340913601509137018FEF8ABB8BBB84
:1000E000C0E0DFEF18BA98B3EC2FF0E0E050FF4F1C
:1000F0008081892B88BBDBBB9A01ADECBCEC0E94F4
:100100007403969587959695879596958795BC01E6
:10011000660F771F9C01220F331F220F331F220F00
:10012000331F260F371F421B530BFA01EA5EFE4FA7
:1001300020812BBBE1EEF4E03197F1F700C0000025
:10014000CF5FAC01892B71F680E688BBDF91CF9140
:10015000089580913601909137012FEF2ABB2BBB78
:1001600030E05FEF18BA48B3E32FF0E0E050FF4F04
:100170002081242B28BB5BBBE82FEF70F0E0EA5F07
:10018000FE4F20812BBBE1EEF4E03197F1F700C088
:1001900000003F5F929582958F7089279F70892715
:1001A000009701F780E288BB8BEF8BBB81EE94E078
:1001B0000197F1F700C0000080E688BB08951F9208
:1001C0000F920FB60F9211240BB60F922F933F93FD
:1001D0004F935F936F937F938F939F93EF93FF93CF
:1001E0001ABA8FEF8BBB80E788BB89EF90E001974D
:1001F000F1F700C0000029B3809122019091230102
:1002000030E02817390709F4C0C02091200130914F
:100210002101232B09F483C099B3891B823009F48F
:1002200045C1843009F434C1813009F457C11092BA
:1002300021011092200189B390E0909331018093C5
:1002400030018FEF8ABB80E788BB13B880E883B9A1
:1002500083EF91E00197F1F700C0000080912E013B
:100260008FB98FB190E09093390180933801779BDB
:10027000FECF80EC83B980E483B981E788BB80E757
:1002800088BB409128015091290150932D01409342
:100290002C01209126013091270130932B012093CE
:1002A0002A018091380190913901BC016370772750
:1002B00070932901609328018C70992796958795F2
:1002C00096958795909327018093260146175707A7
:1002D00041F04130510509F49DC04230510509F407
:1002E00079C02817390751F02130310509F454C07D
:1002F0002230310519F4039709F4ACC0FF91EF9156
:100300009F918F917F916F915F914F913F912F912D
:100310000F900BBE0F900FBE0F901F90189529B332
:10032000409130015091310130E02417350709F434
:1003300082CF29B330E04217530709F47CCF99B339
:10034000891B823009F41FC1843009F40EC1813049
:1003500009F071CF8091340190913501892B09F01A
:1003600042C181E090E09093350180933401809107
:100370002E0190912F01892B09F429C183E090E08F
:1003800090932F0180932E0156CF81E090E09093BF
:1003900021018093200155CF039709F0AFCF8091C1
:1003A0003401909135012091320130913301A9013E
:1003B00048235923452B09F0A1CF892B09F42DC1DE
:1003C0008091360190913701029690933701809386
:1003D000360194CF6330710509F083CF4091340129
:1003E000509135016091320170913301FB01E4239A
:1003F000F523EF2B09F075CF452B09F427C1409168
:1004000036015091370142505109509337014093C2
:10041000360167CF6330710509F063CF4091340135
:10042000509135016091320170913301FB01E42359
:10043000F523EF2B09F055CF452B09F4FAC0409175
:100440003601509137014E5F5F4F50933701409313
:10045000360147CF809134019091350120913201CE
:1004600030913301A90148235923452B09F046CF88
:10047000892B09F070C08091360190913701232BB0
:1004800009F0C5C00197909337018093360136CFAC
:100490008091240190912501892B09F057C081E0BA
:1004A00090E09093250180932401C1CE8091320188
:1004B00090913301892BE9F11092330110923201AE
:1004C00080912E0190912F01029709F487C081E05D
:1004D00090E090932F0180932E01A9CE809134015A
:1004E00090913501892B99F481E090E0909335014A
:1004F0008093340180912E0190912F01892B39F343
:1005000083E090E090932F0180932E0190CE109283
:1005100035011092340180912E0190912F010197A5
:1005200009F45CC082E090E090932F0180932E014B
:100530007ECE81E090E090933301809332018091F0
:100540002E0190912F01892B69F3DACF10922501AA
:10055000109224016CCE8091360190913701029760
:100560009093370180933601C9CE809124019091F8
:100570002501892B09F046C081E090E09093250188
:100580008093240158CE8091320190913301892BC0
:10059000A1F481E090E09093330180933201809147
:1005A0002E0190912F01892B09F0E8CE82E090E096
:1005B00090932F0180932E013ECE10923301109222
:1005C000320180912E0190912F010297B1F081E0CC
:1005D00090E090932F0180932E012DCE10922F0149
:1005E00010922E0124CE1092350110923401809188
:1005F0002E0190912F010197C9F610922F011092B0
:100600002E0119CE109225011092240114CE0497C8
:10061000909337018093360171CE8091360190918D
:100620003701232B01F10496909337018093360113
:1006300065CE4091360150913701672BD1F04C5F68
:100640005F4F50933701409336014BCE40913601B6
:1006500050913701672BA1F0445051095093370155
:10066000409336013ECE0196909337018093360138
:1006700045CE4F5F5F4F509337014093360131CEE7
:100680004150510950933701409336012ACE9FEFD4
:100690009ABB87EF87BB80EC82B980E483B987B7C8
:1006A000816087BF83B7866083BF80E58DB978940A
:1006B0009ABB80E788BB809124019091250181300D
:1006C000910559F00097D9F70E94670080912401A5
:1006D0009091250181309105A9F70E94A900809190
:1006E000240190912501EBCFA29FB001B39FC001DF
:1006F000A39F700D811D1124911DB29F700D811D4E
:0A0700001124911D0895F894FFCF15
:10070A00001030401070C0F9A4B0999283F8809814
:10071A008883C6A1868EC0F9A4B0999283F880987E
:04072A000100FF00CB
:00000001FF
