S00C00006C6162342E73726563B5
S11300000C9418020C9437020C9437020C943702A7
S11300100C9437020C9437020C9437020C94370278
S11300200C9439020C9437020C9421060C94370278
S11300300C946B060C9437020C9437020C94370220
S11300400C94AA060C9437020C942B060C943702D9
S11300500C9437020C9459060C9437020C94370212
S11300600C9437020C9437020C9437020C94370228
S11300700C9437020C9437020C9437020C94370218
S11300800C9437020C940D0A0C9437024E0A250A7C
S1130090250A250A250A250A250A250A4E0A250ABB
S11300A0250A250A250A250A250A250A580A250AA1
S11300B0250A250A250A250A250A250A250A250AC4
S11300C0250A250A250A250A250A250A580A250A81
S11300D0250A250A250A250A250A250A250A250AA4
S11300E0250A250A250A250A250A250A6F0A250A4A
S11300F0250A250A250A250A250A250A730A250A36
S1130100250A250A250A250A250A250A250A250A73
S1130110250A250A250A250A250A250A810A250A07
S1130120250A250A250A250A250A250A3F0A550E05
S11301305F0E690E730E7E0E890E940E410E4B0EE9
S1130140EA0FE20FDD0F0710FA0F0210F20FBB0FD8
S1130150B30FAE0FA60F0F10C30F990F810F2F10FF
S1130160D80FD00FC80F4F10890F3F10910F5C109C
S113017027104710A10F1F10171037107C0F4A0FBC
S1130180420F520F5410350F2D0F570F100F740FCD
S11301903D0F200F180F640F280F5C0F080FEE0E91
S11301A06C0FDE0ED60EFB0EF30E000FD10EE60E14
S11301B0B90EC90EB40EAC0EA40E9F0EC10E66117C
S11301C084116011721154115A1154115A118A1167
S11301D066118411601172116C114E116C114E1163
S11301E0B411F011A8112012A811E411DE114E115E
S11301F0BA114E11CC1178110E1254110212901131
S1130200081296111412D8117E117811C0119C1184
S1130210661184116011721154115A1154115A113A
S11302208A116611EA117E1160116C114E116C1164
S11302304E11B411F611C6118A11FC11BA119011A4
S1130240961178117E111A129C1138125C12321216
S11302505612DA12D41232125C1262123E12E612F2
S113026032123812561232129E1232124A123812B6
S11302707A1262123E127412F8124A1268120413AD
S1130280B6126812CE123212381256123212981264
S11302903E125C1232124A1238127A1262123E1262
S11302A0F2128C128612501280126E125012C21266
S11302B0C812BC128C128612501280126E12E012F6
S11302C0EC127412A412AA12B417A817A217961744
S11302D0901784177E17781772176C1760175A17C0
S11302E05417481742173617301724171E171217BA
S11302F00C1706170017FA16EE16E816E216DC16A7
S1130300D616CA16C416B816B216AC16A6169A167F
S11303109416881682167616701664165E16521691
S11303204C1640163A1634162E1628161C16161697
S113033010160A160416F815F215E615E015DA1566
S1130340D415C815C215BC15B615B015A4159E153F
S113035092158C158615801574156E156815621521
S1130360561550154A1544153E1532152C152015F1
S11303701A150E150815FC14F614EA14E414DE1408
S1130380D814D214C614C014B414AE14A814A214ED
S1130390961490148A1484147814721466146014D5
S11303A054144E1442143C1430142A141E141814F9
S11303B00C1406140014FA13F413E813E213DC13F8
S11303C0D013CA13BE13B813AC13A6139A13941301
S11303D08E1388137C1376136A1364135813521301
S11303E0461340133A1334132E1322131C131613FB
S11303F0BA17E417D217E417D217E417D21708185C
S1130400D2170818F017DE172018DE170E18FC177D
S1130410EA17D217EA17D217EA17D2170218D21717
S11304200218F01714181A18D217DE172618FC171A
S113043011241FBECFEFD0E1DEBFCDBF12E0A0E09C
S1130440B1E0ECE1F5E300E00BBF02C007900D92D0
S1130450A634B107D9F723E0A6E4B2E001C01D92A7
S1130460A737B207E1F70E9476180C948C1A0C9403
S113047000001F920F920FB60F9211248F9381E008
S1130480809391028F910F900FBE0F901F9018953B
S113049087B3876087BB8DB180658DB9709A0895E5
S11304A00E94F00B8BE291E00E94200C8CE892E019
S11304B00E94200C10927502089542E065E773E0F3
S11304C080E90E94B10AE5E7F3E0808190E0982F8B
S11304D088272181822B90937B0280937A0260E8A3
S11304E070E00E9496199B016093AE027093AF0274
S11304F08093B0029093B1024AE067E972E0C901C7
S11305000E94271A8091B0029091B10260E870E0D5
S113051024E6AC01249FC001259F900D11240E9464
S113052096199B01609392027093930280939402B4
S1130530909395024AE06FE772E0C9010E94271A7E
S11305400895CF93109251028FEF8ABB8BBBE09139
S11305502901F0912A01F0937302E0937202109240
S11305608602CFEF9F01ADECBCEC0E94D219AC0126
S1130570569547955695479556954795CA01880FC0
S1130580991F440F551F440F551F440F551F480F03
S1130590591FE41BF50BE093960218BA98B3E09147
S11305A05102F0E0E050FF4F8081892B88BBCBBB28
S11305B0E0919602F0E0EA5EFE4F80818BBB81EE13
S11305C094E00197F1F700C00000809151028F5F21
S11305D08093510220917202309173020E94D219C9
S11305E0FC01F695E795F695E795F695E795F09372
S11305F07302E0937202809186028F5F8093860279
S1130600843008F4AFCF8091240190E0909373027A
S11306108093720280E688BBCF910895CF931092A5
S113062051028FEF8ABB8BBBE0912301F0E0F09382
S11306307302E093720210928602CFEF9F01ADEC39
S1130640BCEC0E94D219AC01569547955695479536
S113065056954795CA01880F991F440F551F440F9B
S1130660551F440F551F480F591FE41BF50BE0930A
S1130670960218BA98B3E0915102F0E0E050FF4FAF
S11306808081892B88BBCBBBE0919602F0E0EA5EC7
S1130690FE4F80818BBB81EE94E00197F1F700C09F
S11306A00000809151028F5F809351022091720269
S11306B0309173020E94D219FC01F695E795F695E4
S11306C0E795F695E795F0937302E09372028091B3
S11306D086028F5F80938602823008F4AFCF409108
S11306E0240150E05093730240937202CFEF9A01B9
S11306F0ADECBCEC0E94D21996958795969587959A
S1130700969587959C01220F331F880F991F880F98
S1130710991F880F991F820F931F481B590B4093F1
S1130720960218BA98B3E0915102F0E0E050FF4FFE
S11307308081892B88BBCBBBE0919602F0E0EA5E16
S1130740FE4F80818BBB81EE94E00197F1F700C0EE
S11307500000809151028F5F8093510220917202B8
S1130760309173020E94D219AC0156954795569563
S113077047955695479550937302409372024115DD
S1130780510509F0B4CF80E688BBCF910895CF938B
S1130790109251028FEF8ABB8BBBE0915302F0E0C1
S11307A0F0937302E093720210928602CFEF9F01DE
S11307B0ADECBCEC0E94D219AC0156954795569508
S11307C0479556954795CA01880F991F440F551FA1
S11307D0440F551F440F551F480F591FE41BF50BB9
S11307E0E093960218BA98B3E0915102F0E0E05019
S11307F0FF4F8081892B88BBCBBBE0919602F0E050
S1130800EA5EFE4F80818BBB81EE94E00197F1F7A5
S113081000C00000809151028F5F809351022091AB
S11308207202309173020E94D219FC01F695E79589
S1130830F695E795F695E795F0937302E0937202C7
S1130840809186028F5F80938602823008F4AFCF56
S11308504091250150E05093730240937202CFEF10
S11308609A01ADECBCEC0E94D219969587959695A9
S11308708795969587959C01220F331F880F991FA2
S1130880880F991F880F991F820F931F481B590BBC
S11308904093960218BA98B3E0915102F0E0E05008
S11308A0FF4F8081892B88BBCBBBE0919602F0E09F
S11308B0EA5EFE4F80818BBB81EE94E00197F1F7F5
S11308C000C00000809151028F5F809351022091FB
S11308D07202309173020E94D219AC015695479569
S11308E056954795569547955093730240937202D7
S11308F04115510509F0B4CF80E688BBCF91089526
S113090099B380912701891B883009F45FC0A8F04E
S1130910803209F44FC0A0F1803461F1803809F0CD
S113092060C090914A0281E0892780934A028091B5
S113093059028058809359020895823079F18430A5
S113094069F08130C9F79091AC0298279093AC027A
S113095090915902892780935902089520917E022B
S113096091E0922790937E02909159028927809377
S113097059020895809153028F5F80935302089522
S1130980803181F520914C0291E0922790934C02A2
S113099090915902892780935902089520917402F5
S11309A091E0922790937402909159028927809341
S11309B05902089520914B0291E0922790934B02A3
S11309C090915902892780935902089590912301A7
S11309D09B5F909323019091590289278093590238
S11309E00895089508953091560230935802209145
S11309F055022093570280918A0290918B02482FCE
S1130A004370409356028C709927969587959695D6
S1130A108795982F80935502341721F0313041F196
S1130A20323049F0291731F02130B1F0223011F47D
S1130A30933071F108954330A9F780914A028111EE
S1130A4031C08091AC02882309F442C08091250111
S1130A50815080932501E6CF933061F78091860021
S1130A6090918700C29690938700809386000895A2
S1130A704330C1F680914A0281111FC08091AC02BB
S1130A80882389F1809125018F5F80932501CACF46
S1130A908091860090918700C297909387008093FD
S1130AA0860008954091290150912A014451510929
S1130AB050932A0140932901B5CF409129015091C7
S1130AC02A014C5E5F4F50932A0140932901AACF1B
S1130AD080917402882309F4A5CF80915302815038
S1130AE0809353029FCF80917402882309F49ACF94
S1130AF0809153028F5F8093530294CF809154026C
S1130B008C33B1F0809153028C33D9F0809125015C
S1130B108D3001F18091200190912101813D974018
S1130B2030F080ED97E090932101809320010895A7
S1130B3010925402809153028F5F809353028C333E
S1130B4029F710925302809125018F5F809325012C
S1130B508D3001F781E080932501DCCF9091250150
S1130B6080912401981719F01092520208959091DF
S1130B705302809123019813F7CF81E080935202AE
S1130B80089580914C02811109C06CE972E082E6FB
S1130B9092E00E94171A892BD9F5089580914B028F
S1130BA08823A9F0809175028130B9F76CE872E06E
S1130BB082E692E00E94201A6CE972E082E692E0FA
S1130BC00E94171A892B81F510927502089567E91E
S1130BD072E082E692E00E94201A6CE972E082E6FA
S1130BE092E00E94171A892BC1F262E672E08CE946
S1130BF092E00E94201A0E94F00B82E692E00E948A
S1130C00200C8EE20E941C0C8FE792E00C94200CC6
S1130C1062E672E08CE992E00E94201A0E94F00BD6
S1130C2082E692E00C94200C62E672E08CE992E099
S1130C300E94201A0E94F00B82E692E00E94200C8F
S1130C40C3CF1F920F920FB60F9211240F900FBEB5
S1130C500F901F9018951F920F920FB60F921124A8
S1130C600BB60F928F939F93EF93FF938CB1809366
S1130C70AD02E0915D0291E09E0F90935D02F0E081
S1130C80E457FD4F8083811109C081E08093750290
S1130C9080E280838183828310925D02FF91EF91D1
S1130CA09F918F910F900BBE0F900FBE0F901F90CE
S1130CB018951F920F920FB60F9211248F939F9342
S1130CC084B195B1809322019F918F910F900FBEB3
S1130CD00F901F9018951F920F920FB60F92112428
S1130CE00BB60F922F933F934F935F936F937F9322
S1130CF08F939F93AF93BF93EF93FF9382B38058E7
S1130D0082BB209184023091850280917C02909173
S1130D107D022817390758F0809176028F5F8093FF
S1130D20760260917602809177020E942C18FF91DE
S1130D30EF91BF91AF919F918F917F916F915F914F
S1130D404F913F912F910F900BBE0F900FBE0F90BC
S1130D501F9018951F920F920FB60F9211240BB685
S1130D600F922F933F934F935F936F937F938F9340
S1130D709F93AF93BF93EF93FF9380915C028F5F38
S1130D8080935C02982F977051F4209184023091E3
S1130D9085022F5F3F4F3093850220938402982F62
S1130DA09F7709F46FC091E0843808F490E02CE751
S1130DB0929F800D1124811101C0369A1ABA8FEFC7
S1130DC08BBB80E788BB89EF90E00197F1F700C007
S1130DD0000089B390E02091270130912801821707
S1130DE0930709F464C080912601811164C089B31A
S1130DF020915A0230915B0290E08217930739F0F8
S1130E0089B390E02817390711F00E94800489B350
S1130E1090E090935B0280935A028FEF8ABB80E745
S1130E2088BB13B880E883B983EF91E00197F1F7A9
S1130E3000C00000809159028FB98FB190E0909367
S1130E408B0280938A02779BFECF80EC83B980E487
S1130E5083B981E788BB80E788BB0E94F304FF91D4
S1130E60EF91BF91AF919F918F917F916F915F911E
S1130E704F913F912F910F900BBE0F900FBE0F908B
S1130E801F9018950E945D028091040188BB8CEF2D
S1130E908BBB87EA91E60197F1F700C000008091CF
S1130EA054028F5F8093540280915C027CCF81E076
S1130EB080932601B2CF0E94800410922601A7CF0E
S1130EC084E18093DD0241E06DED72E082E20E94F4
S1130ED0A00A0E949C0A8111FCCF8FEA94E001973A
S1130EE0F1F700C0000041E06FE273E082E20E948B
S1130EF0B10A0E949C0A8111FCCF80912F030895AE
S1130F0080E28093DD021092DE02809129019091AB
S1130F102A019093DF028093E0021092E102109282
S1130F20910245E06DED72E082E20E94A00A809198
S1130F3091028823E1F3089580E48093DD02109206
S1130F40DE0280910103909102039093DF0280936B
S1130F50E0021092E1021092E2021092910246E045
S1130F606DED72E082E20E94A00A809191028823D2
S1130F70E1F30895EDEDF2E080E480831182809145
S1130F8003039091040392838383148281E0858315
S1130F9046E0BF0182E20E94A00A2FEF87EE93E0B1
S1130FA0215080409040E1F700C0000008958091F6
S1130FB05E0290915F028130910551F100F1029738
S1130FC041F460910303709104038DE293E00E9465
S1130FD0771A6091F00282EB92E00E946A1A81E132
S1130FE08093DD0241E06DED72E082E20E94A00A8E
S1130FF087ED94E00197F1F700C000000895609137
S1131000290170912A0183EB92E00E94771AE1CFC3
S113101060910103709102038EEE92E00E94771AB0
S1131020D8CF83E28093DD0281E08093DE0242E048
S11310306DED72E082E20E94A00A0E949C0A811176
S1131040FCCF8FEA94E00197F1F700C0000048E07C
S113105066EE72E082E20E94B10A0E949C0A81114B
S1131060FCCF089582E28093DD0281E08093DE026A
S113107042E06DED72E082E20E94A00A0E949C0AA6
S11310808111FCCF8FEA94E00197F1F700C00000D2
S113109048E066EE72E082E20E94B10A0E949C0A75
S11310A08111FCCF089582E48093DD0281E0809376
S11310B0DE0242E06DED72E082E20E94A00A0E942C
S11310C09C0A8111FCCF8FEA94E00197F1F700C0EC
S11310D0000048E066EE72E082E20C94B10A83E418
S11310E08093DD0281E08093DE0242E06DED72E0E8
S11310F082E20E94A00A0E949C0A8111FCCF8FEA1E
S113110094E00197F1F700C0000048E066EE72E059
S113111082E20C94B10AEDEDF2E022E12083118227
S1131120928383837483658346E0BF0182E20E94D5
S1131130A00A8FE39CE90197F1F700C0000008952D
S113114083EB92E00E94641A90932A018093290110
S113115082EB92E00E945C1A8093F002EDEDF2E0E3
S113116081E0808380E5818385E0828343E0BF0161
S113117082E20E94A00A2FEF8BED95E0215080407F
S11311809040E1F700C0000061E070E081E090E091
S11311900C948B088EEE92E00E94641A90930203E2
S11311A08093010382EB92E00E945C1A8093F00228
S11311B0EDEDF2E081E0808381E5818385E0828347
S11311C043E0BF0182E20E94A00A2FEF8BED95E07D
S11311D0215080409040E1F700C0000061E070E0E1
S11311E081E090E00C948B088DE293E00E94641AF5
S11311F0909304038093030382EB92E00E945C1AB1
S11312008093F002EDEDF2E081E0808381E581835B
S113121085E0828343E0BF0182E20E94A00A2FEFAF
S11312208BED95E0215080409040E1F700C0000034
S113123060E070E082E093E30E948B0861E071E07B
S113124082E091E30E948B0861E070E081E090E02D
S11312500C948B0880E18093DD0241E06DED72E037
S113126082E20E94A00A0E949C0A8111FCCF8FEAAC
S113127094E00197F1F700C0000048E061EF72E0EC
S113128082E20E94B10A0E949C0A8111FCCF88E488
S113129091E00E94D10A81E891E00E94D10A8AEB90
S11312A091E00E94D10A8091F2024AE065EB72E07B
S11312B090E00E94271A85EB92E00E94D10A87EC05
S11312C091E00E94D10A8091F3024AE065EB72E05A
S11312D090E00E94271A85EB92E00E94D10A87EBE6
S11312E091E00C94D10AFF920F931F93CF93DF9355
S11312F0CDB7DEB7A8970FB6F894DEBF0FBECDBF4B
S113130085ED91E00E94D10A85EE91E00E94D10A18
S113131006EE12E0F801808140E165EB72E090E0B6
S11313200E94271A85EB92E00E94D10A87EB91E094
S11313300E94D10A85EF91E00E94D10AF8018181CF
S11313404AE065EB72E090E00E94271A85EB92E098
S11313500E94D10A87EB91E00E94D10AF801F38040
S113136085E092E00E94D10A4AE065EB72E08F2D9D
S113137090E00E94271A85EB92E00E94D10A87EB45
S113138091E00E94D10A85E192E00E94D10AF8011D
S1131390828140E1BE016F5F7F4F90E00E94271A77
S11313A0CE0101960E94D10A87EB91E00E94D10AF6
S11313B085E292E00E94D10AF801838140E1BE01F6
S11313C06F5F7F4F90E00E94271ACE0101960E9422
S11313D0D10A87EB91E00E94D10A85E392E00E9452
S11313E0D10AF801848140E165EB72E090E00E944B
S11313F0271A85EB92E00E94D10A87EB91E00E94C4
S1131400D10AA8960FB6F894DEBF0FBECDBFDF9108
S1131410CF911F910F91FF9008951F920F920FB6D5
S11314200F9211240BB60F922F933F938F939F9398
S1131430AF93BF93EF93FF93E09171008E2F90E0F1
S1131440FC013897E135F105B0F08091710080938B
S11314503E0384E080937400FF91EF91BF91AF91BC
S11314609F918F913F912F910F900BBE0F900FBEC4
S11314700F901F901895EA5BFF4F0C94C919809147
S11314806002E0913F03F0914003E80FF11D809169
S11314907300808384E980937400DECF80914103DC
S11314A0809373001092600285E880937400D4CF17
S11314B08091600290914203891760F7E0913F03A5
S11314C0F091400391E0980F90936002E80FF11DB2
S11314D080818093730085E880937400BDCF85EA92
S11314E080937400B9CF209160028091420330E070
S11314F090E0019728173907DCF485EC8093740099
S1131500ABCFE0913F03F09140038091600221E072
S1131510280F20936002E80FF11D809173008083EF
S11315208091420330E090E00197281739072CF3AB
S113153085E88093740090CF809174008170089541
S11315409091740090FDFCCF8E7F80934103709343
S1131550400360933F034093420385EA8093740001
S113156008959091740090FDFCCF816080934103B5
S11315707093400360933F034093420385EA809352
S1131580740008958FEF80937300109271008CE0C3
S11315908093700008955D9BFECF8CB95D9BFECF58
S11315A00895FC019081992349F031965D9BFECF0B
S11315B09CB95D9BFECF91919111F8CF08959C0148
S11315C0FC014491442369F00196F90124915D9B47
S11315D0FECF2CB95D9BFECF9C01FC0144914111CF
S11315E0F3CF08958AB188698AB9E5E9F0E080818A
S11315F0866080831092900087E689B9089580E818
S11316009EE302C0019721F05F9BFCCF8CB108954B
S113161080E0089591E0811101C090E09FB9779B2B
S1131620FECF6FB9779BFECF809162008860809374
S1131630620080916200877F809362000895CF9357
S1131640C09161028C0F911DFC01608181E00E94B8
S11316500A0B81E08C0F80936102803189F0803223
S113166011F0CF91089585ED8A95F1F7000060E8B7
S113167080E00E940A0B1092610280E0CF910895ED
S1131680F5EDFA95F1F7000060EC80E00E940A0B9A
S113169080916102E4CFEF92FF920F931F93CF9357
S11316A0DF931F92CDB7DEB7182F660F660F660F54
S11316B0605C80E099830E940A0B85ED8A95F1F7BE
S11316C00000E12E9981F92E8701085F1F4FF70171
S11316D061917F0181E00E940A0BF5EDFA95F1F723
S11316E00000E016F10699F70F90DF91CF911F915A
S11316F00F91FF90EF90089590E4899F600D11245D
S1131700605C80E00C940A0BCF938823B9F1C82F56
S1131710843698F48A30D8F48DECC89F812D112436
S11317208695869586956C2F2AE0829F60191124F0
S1131730605D81E0CF910C940A0B69E2869F612D74
S1131740112462956F70605D81E00E940A0B89E24A
S1131750C89F812D112482958F709C2F24E6829F2F
S1131760901911246DEC969F612D11246695669550
S11317706695605D81E00E940A0BCECF60E381E054
S1131780CF910C940A0BCF9387FD03C0CF910C9497
S1131790840BC82F6DE281E00E940A0B85ED8A95C7
S11317A0F1F700008C2F8195CF910C94840B6EE09F
S11317B080E00C940A0B6CE080E00C940A0B6EE160
S11317C080E00C940A0B68E180E00C940A0BE2E6DA
S11317D0F0E08081886080838081877F80830895A2
S11317E061E080E00E940A0B8FE19CE10197F1F730
S11317F000C00000089562E080E00E940A0B8FE6BA
S113180097E10197F1F700C00000089560EC80E0D3
S11318100C940A0B60E880E00C940A0BCF93C0E1AF
S113182060E281E00E940A0B85ED8A95F1F70000E1
S1131830C150B1F7CF910895682F81E00C940A0B41
S11318400F931F93CF938C0140E050E0C0E0F80168
S1131850E40FF51F608181E00E940A0B85ED8A95F3
S1131860F1F70000CF5F4C2F50E0F8010190002009
S1131870E9F79F01201B310B22503109241735074A
S113188030F7CF911F910F9108958FEF99EF019742
S1131890F1F700C0000088E08093610060E380E01D
S11318A00E940A0B8FE59DE60197F1F700C0000046
S11318B060E380E00E940A0B8FE59DE60197F1F753
S11318C000C0000060E380E00E940A0B8FE59DE603
S11318D00197F1F700C0000068E380E00E940A0B62
S11318E08FE19EE40197F1F700C0000068E080E01A
S11318F00E940A0B8FE19EE40197F1F700C00000FB
S113190061E080E00E940A0B8FE19EE40197F1F709
S113191000C0000066E080E00E940A0B8FE19EE4B4
S11319200197F1F700C000006CE080E00E940A0B10
S11319308FE19EE40197F1F700C0000008958F92B3
S11319409F92AF92BF92CF92DF92EF92FF920F934A
S11319501F93CF93DF93CDB7DEB769970FB6F89493
S1131960DEBF0FBECDBFF42E122F002359F04B0162
S11319705C018824B7FC83949924AA24BB24082DF1
S113198097FD8FC0112309F484C09E012F5F3F4F40
S11319906901590188248A94810E912C3FEF831A9E
S11319A0930A8C0C9D1C2AE030E040E050E00E9439
S11319B0AA19E62F2A8B3B8B4C8B5D8B6A897B891A
S11319C08C899D8920E32E0FF50121935F01E81591
S11319D0F90549F7BB24B394B10EF601E10FF11DEB
S11319E02EE220832AE030E040E050E00E94AA1971
S11319F0E62F2A8B3B8B4C8B5D8B6E8B7F8B888F7A
S1131A00998F6A897B898C899D8911E01B0DD60188
S1131A10AB0DB11DE05DEC93B12E6115710581052F
S1131A20910501F7FF2061F0E11039C080E21F1534
S1131A3038F4F601E10FF11D80831F5F1F11F9CF08
S1131A40002331F0F601E10FF11D8DE280831F5F69
S1131A501150F601E10FF11D608181E00E940A0B33
S1131A6035ED3A95F1F700001111F2CF69960FB6F2
S1131A70F894DEBF0FBECDBFDF91CF911F910F91C0
S1131A80FF90EF90DF90CF90BF90AF909F908F909A
S1131A900895B12C9E012F5F3F4F6901A3CF80E3CE
S1131AA0C6CF90958095709561957F4F8F4F9F4FCE
S1131AB069CF5F926F927F928F929F92AF92BF9203
S1131AC0CF92DF92EF92FF920F931F93CF93DF9306
S1131AD0CDB7DEB761970FB6F894DEBF0FBECDBFAA
S1131AE0A62E542E622E792E771C7724771CB72CC1
S1131AF0C72CD12CEE27FF27EC19FD098E279F2731
S1131B00FC01EC0DFD1D442309F48EC0CE010196A9
S1131B107C018C0188248A94840E912C9FEF891A6D
S1131B20990A8E0C9F1C6AE070E0CF010E949619FE
S1131B30262FE22FF72F805DD8018D938D01A815F4
S1131B40B90589F701E0050DD701A50DB11D8EE298
S1131B508C936AE070E0CF010E949619262FE22F41
S1131B60F72F11E0100FD701A00FB11D805D8C93EA
S1131B70012F309771F7611015C0772039F011E00B
S1131B80100FF701E00FF11D8DE28083AA2041F1CF
S1131B90812F90E02A2D30E0821793070CF5B12CA9
S1131BA040E20CC0AA20A1F0812F90E02A2D30E061
S1131BB02C193D09821793075CF440E31F5FF7017A
S1131BC0E80FF91F4083812F90E082179307B4F345
S1131BD0BB2031F0F701E10FF11D8DE280831F5F1F
S1131BE01150F701E10FF11D608181E00E940A0BA1
S1131BF095ED9A95F1F700001111F2CF61960FB6A9
S1131C00F894DEBF0FBECDBFDF91CF911F910F912E
S1131C10FF90EF90DF90CF90BF90AF909F908F9008
S1131C207F906F905F90089500E0CE0101967C0153
S1131C3090CF929A109285021092840290E0909331
S1131C407D0280937C020895582F92981092850209
S1131C501092840230E030937D0220937C02842F22
S1131C6090E08930910518F01BBC1ABC0895895680
S1131C709F4FFC01852F550F990BAA0BBB0B0C949E
S1131C80C919FC01E154F109E730F10578F7E05690
S1131C90FF4F0C94C919FC01E154F109E730F10537
S1131CA028F7E955FF4F0C94C919FC01E154F109D7
S1131CB0E730F105D8F6E255FF4F0C94C919FC0141
S1131CC0E154F109E730F10588F6EB54FF4F0C9429
S1131CD0C919FC01E154F109E730F10538F6E4547F
S1131CE0FF4F0C94C919FC01E154F109E730F105E7
S1131CF008F0BCCFED53FF4F0C94C919FC01E1541B
S1131D00F109E730F10508F0B1CFE653FF4F0C9429
S1131D10C919FC01E154F109E730F10508F0A6CF37
S1131D20EF52FF4F0C94C919FC01E154F109E7305B
S1131D30F10508F09BCFE852FF4F0C94C91988E5D0
S1131D4090E09BBD8ABD0895662309F40FC283E623
S1131D5090E09BBD8ABD0895662309F411C28FE605
S1131D6090E09BBD8ABD089586E790E09BBD8ABD47
S1131D700895662309F4FFC18AE490E09BBD8ABDFF
S1131D800895662309F401C283E590E09BBD8ABDF2
S1131D900895662309F4B8C182E490E09BBD8ABD2E
S1131DA0089581EB90E09BBD8ABD0895662309F4F4
S1131DB0D3C185E890E09BBD8ABD0895662309F4EC
S1131DC0C1C185E990E09BBD8ABD0895662309F4ED
S1131DD0BEC187EA90E09BBD8ABD089584E691E088
S1131DE09BBD8ABD0895662309F4BBC180EE90E0D3
S1131DF09BBD8ABD08958DEE90E09BBD8ABD08957C
S1131E00662309F48BC187EC90E09BBD8ABD0895DD
S1131E10662309F474C180E991E09BBD8ABD0895ED
S1131E20662309F4CBC184E893E09BBD8ABD089581
S1131E30662309F4AFC18BE291E09BBD8ABD08958E
S1131E40662309F4B1C182EA92E09BBD8ABD08957C
S1131E508CED91E09BBD8ABD0895662309F459C1B8
S1131E6087E192E09BBD8ABD0895662309F4B0C161
S1131E7088E592E09BBD8ABD08958AEC92E09BBD03
S1131E808ABD0895662309F435C186E496E09BBDB6
S1131E908ABD0895662309F482C18AE097E09BBD58
S1131EA08ABD089586E995E09BBD8ABD08958AEBB5
S1131EB093E09BBD8ABD0895662309F47AC181EC41
S1131EC091E09BBD8ABD0895662309F47CC18BE033
S1131ED091E09BBD8ABD0895662309F47EC180E527
S1131EE091E09BBD8ABD0895662309F4ADC182E2E9
S1131EF093E09BBD8ABD089586E797E09BBD8ABDAC
S1131F000895662309F40FC18EEC92E19BBD8ABD4E
S1131F100895662309F47AC18DE195E19BBD8ABDDC
S1131F200895662309F4DCC080E698E09BBD8ABD71
S1131F300895662309F492C180E190E09BBD8ABDB7
S1131F4008958EE29BE09BBD8ABD0895662309F443
S1131F5049C18BE190E09BBD8ABD08958CE190E07E
S1131F609BBD8ABD0895662309F441C187E090E0D2
S1131F709BBD8ABD0895662309F4DAC08BE090E026
S1131F809BBD8ABD089582E190E09BBD8ABD089502
S1131F90662309F49BC089E199E19BBD8ABD08953C
S1131FA0662309F429C180E39CE19BBD8ABD0895A1
S1131FB08CED9DE19BBD8ABD08958AE390E09BBDB5
S1131FC08ABD0895662309F435C180E290E09BBD83
S1131FD08ABD0895662309F432C184E290E09BBD72
S1131FE08ABD0895662309F476C089E290E09BBD1A
S1131FF08ABD0895662309F478C081E390E09BBD0F
S11320008ABD08958BE290E09BBD8ABD0895662346
S113201009F493C087E390E09BBD8ABD08956623CD
S113202009F44FC088E190E09BBD8ABD0895662302
S113203009F4F6C082EB94E09BBD8ABD0895662343
S113204009F416C18DE89AE09BBD8ABD0895662304
S113205009F4D7C086E19EE09BBD8ABD089566233E
S113206009F4F7C080EC90E19BBD8ABD0895662316
S113207009F4D1C08FE294E09BBD8ABD0895662324
S113208009F4F1C087E699E09BBD8ABD08956623F3
S113209009F4CBC08DE89CE09BBD8ABD08958DE515
S11320A096E19BBD8ABD0895662309F4E6C086E4E3
S11320B095E09BBD8ABD08958DEE9EE09BBD8ABDD3
S11320C0089585E190E09BBD8ABD089582EB97E178
S11320D09BBD8ABD089586E290E09BBD8ABD0895AC
S11320E087EE97E09BBD8ABD08958EE290E09BBD8C
S11320F08ABD08958BEE95E09BBD8ABD08958AE75D
S113210091E09BBD8ABD08958EE390E09BBD8ABD9E
S1132110089589EF91E09BBD8ABD08958CEB90E012
S11321209BBD8ABD089580EC91E19BBD8ABD089555
S113213089E090E09BBD8ABD089584E390E09BBD57
S11321408ABD08958DE890E09BBD8ABD08958EE90F
S113215090E09BBD8ABD08958DE790E09BBD8ABD4C
S1132160089583ED90E09BBD8ABD08958DE590E0D0
S11321709BBD8ABD089586E490E09BBD8ABD089509
S113218089E690E09BBD8ABD08958EE490E09BBDF6
S11321908ABD08958BE191E09BBD8ABD089585EACF
S11321A096E09BBD8ABD08958CE792E09BBD8ABDF5
S11321B0089588EA91E09BBD8ABD089582E593E085
S11321C09BBD8ABD08958CEF90E09BBD8ABD0895A8
S11321D087E392E09BBD8ABD08958DE391E09BBDAA
S11321E08ABD089589E190E09BBD8ABD089585E08C
S11321F090E09BBD8ABD08958AE99AE19BBD8ABDA2
S113220008958CE49DE09BBD8ABD08958DEE93E115
S11322109BBD8ABD089583EF93E09BBD8ABD08955D
S11322208FE694E09BBD8ABD089588ED9BE09BBD3D
S11322308ABD08958EE190E09BBD8ABD089582E237
S113224090E09BBD8ABD089585EF92E09BBD8ABD59
S1132250089580ED9FE09BBD8ABD08958DE090E0D8
S11322609BBD8ABD08958FED98E09BBD8ABD0895FE
S113227086EF99E09BBD8ABD08958AEF94E09BBDEB
S11322808ABD08958634910520F08FEF80937602FD
S11322900895FC01E152FF4F0C94C91922E044E077
S11322A060E081E40C94240E26E044E060E081E4E4
S11322B00C94240E22E044E061E081E40C94240EAA
S11322C028E044E060E084E40C94240E28E044E038
S11322D060E086E40C94240E26E044E061E082E4AD
S11322E00C94240E28E044E060E083E40C94240E73
S11322F028E044E060E081E40C94240E28E044E00B
S113230060E087E40C94240E28E044E060E085E477
S11323100C94240E20E144E060E081E40C94240E4B
S113232024E045E060E083E40C94240E24E045E0DE
S113233060E084E40C94240E929A10928502109228
S1132340840288E090E090937D0280937C0208955B
S1132350929A109285021092840281E090E0909308
S11323607D0280937C02089520E144E061E082E4F0
S11323700C94240E28E044E061E082E40C94240EE2
S113238028E144E060E087E40C94240E20E145E079
S113239060E084E40C94240E929A109285021092C8
S11323A0840282E090E090937D0280937C02089501
S11323B024E044E060E081E40C94240E26E044E050
S11323C060E087E40C94240E24E044E061E087E4B8
S11323D00C94240E28E044E061E087E40C94240E7D
S11323E023E044E060E087E40C94240E20E144E020
S11323F060E084E40C94240E20E145E060E083E492
S11324000C94240E22E044E061E082E40C94240E57
S113241024E045E061E084E40C94240E24E044E0EC
S113242061E081E40C94240E28E044E060E082E45E
S11324300C94240E28E144E060E086E40C94240E1D
S113244027E044E060E087E40C94240E8F33910588
S113245020F08FEF809376020895FC01EB5DFE4F30
S11324600C94C91924E044E060E083E40C94240E45
S113247028E044E060E085E40C94240E929A1092E3
S113248085021092840281E090E090937D02809313
S11324907C02089528E044E060E084E40C94240E77
S11324A020E143E060E083E40C94240E24E044E063
S11324B060E084E40C94240E24E043E060E082E4D1
S11324C00C94240E27E043E060E081E40C94240E95
S11324D024E044E060E086E40C94240E20E142E031
S11324E060E082E40C94240E20E143E060E081E4A7
S11324F00C94240E28E044E060E083E40C94240E61
S113250020E143E060E084E40C94240E20E143E005
S113251060E085E40C94240E929A10928502109245
S1132520840288E090E090937D0280937C02089579
S113253027E043E060E082E40C94240E2CE043E0C6
S113254060E082E40C94240E20E143E061E081E445
S11325500C94240E929A109285021092840280E1C7
S113256090E090937D0280937C02089524E044E0FF
S113257060E087E40C94240E28E042E060E082E40A
S11325800C94240E20E142E060E081E40C94240EDB
S113259020E142E061E081E40C94240E2CE044E06C
S11325A060E085E40C94240E22E044E060E084E4DE
S11325B00C94240E22E044E060E085E40C94240EA4
S11325C028E043E060E083E40C94240E24E043E03C
S11325D060E081E40C94240E28E043E060E085E4AC
S11325E00C94240E28E043E060E081E40C94240E73
S11325F0929A109285021092840284E090E0909363
S11326007D0280937C02089528E044E060E081E448
S11326100C94240E8539910520F08FEF8093760277
S11326200895FC01EC59FE4F0C94C91924E043E0D1
S113263060E087E40C94240E22E043E060E081E44F
S11326400C94240E929A109285021092840282E0D5
S113265090E090937D0280937C02089522E044E010
S113266060E083E40C94240E22E044E060E085E41E
S11326700C94240E24E044E060E084E40C94240EE2
S113268022E044E060E083E40C94240E929A1092D9
S113269085021092840282E090E090937D02809300
S11326A07C02089522E044E060E083E40C94240E6C
S11326B0929A109285021092840282E090E09093A4
S11326C07D0280937C02089522E044E060E083E48C
S11326D00C94240E929A109285021092840281E046
S11326E090E090937D0280937C02089522E044E080
S11326F060E083E40C94240E929A10928502109266
S1132700840280E190E090937D0280937C0208959E
S113271022E044E060E085E40C94240E22E044E0EE
S113272060E084E40C94240E22E044E060E083E45E
S11327300C94240E929A109285021092840282E0E4
S113274090E090937D0280937C02089522E044E01F
S113275060E083E40C94240E929A10928502109205
S1132760840282E090E090937D0280937C0208953D
S113277022E044E060E083E40C94240E929A1092E8
S113278085021092840281E090E090937D02809310
S11327907C02089522E044E060E083E40C94240E7B
S11327A0929A109285021092840284E090E09093B1
S11327B07D0280937C02089524E043E060E087E496
S11327C00C94240E22E043E060E081E40C94240E97
S11327D0929A109285021092840282E090E0909383
S11327E07D0280937C02089522E044E060E083E46B
S11327F00C94240E22E044E060E085E40C94240E62
S113280024E044E060E084E40C94240E22E044E0FC
S113281060E083E40C94240E929A10928502109244
S1132820840282E090E090937D0280937C0208957C
S113283022E044E060E083E40C94240E929A109227
S113284085021092840282E090E090937D0280934E
S11328507C02089522E044E060E083E40C94240EBA
S1132860929A109285021092840281E090E09093F3
S11328707D0280937C02089522E044E060E083E4DA
S11328800C94240E929A10928502109284028AE08B
S113289090E090937D0280937C02089524E044E0CC
S11328A060E083E40C94240E929A109285021092B4
S11328B0840284E090E090937D0280937C020895EA
S11328C022E044E060E084E40C94240E929A109296
S11328D085021092840282E090E090937D028093BE
S11328E07C02089524E044E061E085E40C94240E25
S11328F0929A109285021092840284E090E0909360
S11329007D0280937C02089522E044E060E084E448
S11329100C94240E22E044E060E083E40C94240E42
S113292022E043E060E081E40C94240E929A109239
S113293085021092840282E090E090937D0280935D
S11329407C02089522E044E060E083E40C94240EC9
S113295022E043E060E081E40C94240E22E043E0B2
S113296061E081E40C94240E929A109285021092F4
S1132970840282E090E090937D0280937C0208952B
S113298022E044E060E085E40C94240E929A1092D4
S113299085021092840282E090E090937D028093FD
S11329A07C02089522E044E061E085E40C94240E66
S11329B022E044E060E086E40C94240E22E044E04B
S11329C061E087E40C94240E22E044E060E087E4B4
S11329D00C94240E929A109285021092840288E03C
S11329E090E090937D0280937C02089524E044E07B
S11329F060E087E40C94240E929A1092850210925F
S1132A00840281E090E090937D0280937C0208959B
S1132A1021E044E060E087E40C94240E929A109242
S1132A2085021092840282E090E090937D0280936C
S1132A307C02089522E044E060E087E40C94240ED4
S1132A40929A109285021092840282E090E0909310
S1132A507D0280937C02089522E043E060E085E4F7
S1132A600C94240E929A109285021092840282E0B1
S1132A7090E090937D0280937C02089522E043E0ED
S1132A8061E085E40C94240E22E043E060E086E4F7
S1132A900C94240E22E043E061E087E40C94240EBD
S1132AA022E043E060E087E40C94240E929A1092B2
S1132AB085021092840284E090E090937D028093DA
S1132AC07C02089522E044E060E084E40C94240E47
S1132AD022E044E060E083E40C94240E22E043E02E
S1132AE060E081E40C94240E929A10928502109274
S1132AF0840282E090E090937D0280937C020895AA
S1132B0022E044E060E083E40C94240E22E043E0FD
S1132B1060E081E40C94240E22E043E061E081E46F
S1132B200C94240E929A109285021092840282E0F0
S1132B3090E090937D0280937C02089522E044E02B
S1132B4060E085E40C94240E929A1092850210920F
S1132B50840282E090E090937D0280937C02089549
S1132B6022E044E061E085E40C94240E22E044E099
S1132B7060E086E40C94240E22E044E061E087E403
S1132B800C94240E22E044E060E087E40C94240ECC
S1132B90929A109285021092840288E090E09093B9
S1132BA07D0280937C02089522E043E060E082E4A9
S1132BB00C94240E22E044E060E084E40C94240E9F
S1132BC022E044E060E083E40C94240E929A109294
S1132BD085021092840282E090E090937D028093BB
S1132BE07C02089522E044E060E085E40C94240E25
S1132BF0929A109285021092840282E090E090935F
S1132C007D0280937C02089522E044E060E087E442
S1132C100C94240E22E044E060E086E40C94240E3C
S1132C2024E044E060E081E40C94240E22E044E0DB
S1132C3060E087E40C94240E929A1092850210921C
S1132C40840281E090E090937D0280937C02089559
S1132C5022E044E060E085E40C94240E23E043E0A9
S1132C6060E087E40C94240E24E043E060E081E417
S1132C700C94240E22E043E061E082E40C94240EE0
S1132C80929A109285021092840282E090E09093CE
S1132C907D0280937C02089522E043E060E082E4B8
S1132CA00C94240E929A109285021092840282E06F
S1132CB090E090937D0280937C02089522E043E0AB
S1132CC060E081E40C94240E929A10928502109292
S1132CD0840282E090E090937D0280937C020895C8
S1132CE024E043E060E085E40C94240E929A109270
S1132CF085021092840283E090E090937D02809399
S1132D007C02089522E043E060E087E40C94240E02
S1132D10929A109285021092840282E090E090933D
S1132D207D0280937C02089525E044E060E083E422
S1132D300C94240E929A109285021092840284E0DC
S1132D4090E090937D0280937C02089522E043E01A
S1132D5060E082E40C94240E22E044E060E084E429
S1132D600C94240E22E044E060E083E40C94240EEE
S1132D70929A109285021092840282E090E09093DD
S1132D807D0280937C02089522E044E060E085E4C3
S1132D900C94240E929A109285021092840282E07E
S1132DA090E090937D0280937C02089522E044E0B9
S1132DB060E087E40C94240E22E044E060E086E4C2
S1132DC00C94240E24E044E060E081E40C94240E8E
S1132DD022E044E060E087E40C94240E929A10927E
S1132DE085021092840281E090E090937D028093AA
S1132DF07C02089522E044E060E085E40C94240E13
S1132E0023E043E060E087E40C94240E24E043E0F4
S1132E1060E081E40C94240E22E043E061E082E46B
S1132E200C94240E929A109285021092840282E0ED
S1132E3090E090937D0280937C02089522E043E029
S1132E4060E082E40C94240E929A1092850210920F
S1132E50840282E090E090937D0280937C02089546
S1132E6022E043E060E081E40C94240E929A1092F4
S1132E7085021092840282E090E090937D02809318
S1132E807C02089524E043E060E085E40C94240E81
S1132E90929A109285021092840284E090E09093BA
S1132EA07D0280937C02089522E043E060E087E4A1
S1132EB00C94240E25E044E060E083E40C94240E9A
S1132EC0929A109285021092840288E090E0909386
S1132ED07D0280937C02089528E042E060E087E46C
S1132EE00C94240E28E044E060E087E40C94240E63
S1132EF024E044E060E085E40C94240E22E044E005
S1132F0060E083E40C94240E929A1092850210924D
S1132F10840282E090E090937D0280937C02089585
S1132F2022E044E060E085E40C94240E929A10922E
S1132F3085021092840281E090E090937D02809358
S1132F407C02089523E044E060E085E40C94240EC0
S1132F50929A109285021092840281E090E09093FC
S1132F607D0280937C02089521E044E060E085E4E2
S1132F700C94240E929A109285021092840288E096
S1132F8090E090937D0280937C0208958F319105A7
S1132F9020F08FEF809376020895FC01E750FE4FF6
S1132FA00C94C919929A109285021092840281E0BD
S1132FB090E090937D0280937C02089524E045E0A4
S1132FC060E085E40C94240E27E044E060E085E4AE
S1132FD00C94240E27E044E061E085E40C94240E74
S1132FE0929A109285021092840285E090E0909368
S1132FF07D0280937C02089528E045E060E085E44A
S11330000C94240E23E044E061E085E40C94240E47
S113301023E044E060E085E40C94240E28E045E0DD
S113302060E087E40C94240E24E045E061E085E44C
S11330300C94240E23E045E060E085E40C94240E17
S113304024E045E061E087E40C94240E28E045E0A8
S113305061E087E40C94240E813089F060F08230C2
S113306031F0833041F4862F90E00C94C617862FFC
S113307090E00C940A13862F90E00C944211862F52
S113308090E00C942612109276028EB58C7F8EBD41
S1133090929A0895109276028EB583608EBD9298AE
S11330A060917602809177020C942C1887B7806126
S11330B087BF1FBC8EB588608EBD10927A0081E3F5
S11330C090E09BBD8ABD109276028EB58C7F8EBD3A
S11330D0929A109285021092840210927D021092AC
S11330E07C0210927602109277020895809161001A
S11330F08860809361000E94F20A87B3876087BB6F
S11331008DB180658DB9709A0E94F00B0E94FB0B03
S11331100E94C20A139A1B9A129A1A9A8AB7816851
S11331208ABF89B7806889BF1F98179A1A9A82E460
S11331308A95F1F700C01A989AE09A95F1F71798D2
S113314080E98093730342E063E773E00E94A00A7E
S113315083EF91E00197F1F700C00000CFEFCABB05
S113316087EF87BB80EC82B990E493B987B781601D
S113317087BF83B7816083BF80B7886080BF85B510
S11331808B6685BD8091610081608093610081E0E0
S11331908093620097B98FE886B980E58DB9C1BB89
S11331A086E097E290937902809378020E94561801
S11331B0139A80918B00826880938B0080918A009F
S11331C08A6080938A0080918C0080938C0088EEC2
S11331D093E090938700809386000E94450C0E94A0
S11331E0F00B8DE291E00E94200C7894CABB80E73A
S11331F088BB7894D1E001E010E08CE0D82E98E010
S1133200B92E2CEBE22E22E0F22E3AE0C32E39C086
S1133210C1E0809147028111C0E091110AC0CC2322
S113322041F00E94D7071092490210924802D093AD
S1133230470280917E02811142C080915202811125
S11332405AC080914A02813009F46DC00E94C703BC
S1133250E9ECF1E0A2E6B2E08D2D01900D928A95A1
S1133260E1F70E94431810924D020E94C10590910B
S11332702501809124019817A9F1109252020E940D
S11332807E0590914A02C1E02091480230914902A2
S1133290232B09F0C0E081E0913009F080E0C823DD
S11332A009F4B6CF0E94A0080E9480071093490237
S11332B0009348021092470290914A02AECF0E94B6
S11332C00E03E6E3F1E0A2E6B2E08C2D01900D924C
S11332D08A95E1F70E94C10590912501809124010E
S11332E09813CBCF90915302809123019813C5CFAB
S11332F0D0935202C4CF0E94C703E0E4F1E0A2E6F7
S1133300B2E08B2D01900D928A95E1F7F0922101A4
S1133310E092200180914D028111A7CF0E944A18AA
S1133320D0934D02A2CF0E94A1029FCF97FB072EFC
S113333016F4009407D077FD09D00E94E11907FC28
S113334005D03EF4909581959F4F089570956195B1
S11333507F4F0895052E97FB1EF400940E94C11917
S113336057FD07D00E94F51907FC03D04EF40C94C6
S1133370C11950954095309521953F4F4F4F5F4F60
S1133380089590958095709561957F4F8F4F9F4FCD
S11333900895EE0FFF1F0024001C0BBE0790F6914A
S11333A0E02D0994A29FB001B39FC001A39F700DAB
S11333B0811D1124911DB29F700D811D1124911D39
S11333C00895AA1BBB1B51E107C0AA1FBB1FA61768
S11333D0B70710F0A61BB70B881F991F5A95A9F7BA
S11333E080959095BC01CD010895A1E21A2EAA1BE7
S11333F0BB1BFD010DC0AA1FBB1FEE1FFF1FA217A1
S1133400B307E407F50720F0A21BB30BE40BF50B9D
S1133410661F771F881F991F1A9469F76095709526
S1133420809590959B01AC01BD01CF010895FB01EE
S1133430DC018D91019080190110D9F3990B089545
S1133440FB01DC0101900D920020E1F70895BB27F8
S11334504A3031F4992322F4BDE2909581959F4F2F
S11334600C94331ABB27FB015527AA27880F991FF1
S1133470AA1FA41710F0A41B83955051B9F7A05D9F
S1133480AA3308F0A95DA193009779F7B111B1931C
S11334901192CB010C944C1ADC01FC01672F719141
S11334A07723E1F7329704C07C916D937083629126
S11334B0AE17BF07C8F30895E199FECF9FBB8EBB3B
S11334C0E09A99278DB30895A8E1B0E042E050E076
S11334D00C947E1A262FE199FECF9FBB8EBB2DBB89
S11334E00FB6F894E29AE19A0FBE019608950E94ED
S11334F06A1A272F0C946B1ADC01CB01FC01E199A9
S1133500FECF06C0FFBBEEBBE09A31960DB20D9222
S10F351041505040B8F70895F894FFCFE4
S113351C001030402070C0F9A4B0999283F88098C0
S113352C8883C6A1868EC0F9A4B0999283F880983A
S113353C64006E140C0C01FF00062761004D6F68CB
S113354C616D6D65640073657420616C61726D00EE
S113355C57616B652055500053693437333420520E
S113356C65763A20206C6173742032206469676933
S113357C7473206F662070617274206E6F2E20201D
S113358C20636869702072657620202020200A0D43
S113359C00202020202020202020202020202D2D21
S11335AC2D2D2D2D2D2D2D2D2D2D2D2D2D2D2D2D3B
S11335BC2D2D2D2D2D2D2D2020202D2D2D2D2D2D52
S11335CC2D2D20202020200A0D002020202020201A
S11335DC20202020202020202020202020202020DB
S11335EC2020202000464D5F5253515F53544154C8
S11335FC55533A2000737461747573206279746541
S113360C2020203A00726573703120202020202065
S113361C2020203A00667265712020202020202072
S113362C2020203A00667265712068696768202042
S113363C2020203A0066726571206C6F7720202060
S113364C2020203A0072737369202020202020202F
S109365C2020203A0000CA
S9030000FC
