S00C00006C6162342E73726563B5
S11300000C9418020C9437020C9437020C943702A7
S11300100C9437020C9437020C9437020C94370278
S11300200C9439020C9437020C9408060C94370291
S11300300C9452060C9437020C9437020C94370239
S11300400C9491060C9437020C9412060C9437020B
S11300500C9437020C9440060C9437020C9437022B
S11300600C9437020C9437020C9437020C94370228
S11300700C9437020C9437020C9437020C94370218
S11300800C9437020C94F4090C943702350A0C0AC8
S11300900C0A0C0A0C0A0C0A0C0A0C0A350A0C0A83
S11300A00C0A0C0A0C0A0C0A0C0A0C0A3F0A0C0A69
S11300B00C0A0C0A0C0A0C0A0C0A0C0A0C0A0C0A8C
S11300C00C0A0C0A0C0A0C0A0C0A0C0A3F0A0C0A49
S11300D00C0A0C0A0C0A0C0A0C0A0C0A0C0A0C0A6C
S11300E00C0A0C0A0C0A0C0A0C0A0C0A560A0C0A12
S11300F00C0A0C0A0C0A0C0A0C0A0C0A5A0A0C0AFE
S11301000C0A0C0A0C0A0C0A0C0A0C0A0C0A0C0A3B
S11301100C0A0C0A0C0A0C0A0C0A0C0A680A0C0ACF
S11301200C0A0C0A0C0A0C0A0C0A0C0A260A3C0ECD
S1130130460E500E5A0E650E700E7B0E280E320EB1
S1130140D10FC90FC40FEE0FE10FE90FD90FA20FA2
S11301509A0F950F8D0FF60FAA0F800F680F1610C8
S1130160BF0FB70FAF0F3610700F2610780F431064
S11301700E102E10880F0610FE0F1E10630F310F85
S1130180290F390F3B101C0F140F3E0FF70E5B0F96
S1130190240F070FFF0E4B0F0F0F430FEF0ED50E5B
S11301A0530FC50EBD0EE20EDA0EE70EB80ECD0EDD
S11301B0A00EB00E9B0E930E8B0E860EA80E4D1144
S11301C06B11471159113B1141113B11411171112F
S11301D04D116B114711591153113511531135112B
S11301E09B11D7118F1107128F11CB11C511351126
S11301F0A1113511B3115F11F5113B11E9117711FB
S1130200EF117D11FB11BF1165115F11A71183114E
S11302104D116B11471159113B1141113B11411102
S113022071114D11D111651147115311351153112C
S113023035119B11DD11AD117111E311A11177116C
S11302407D115F116511011283111F1243121912DE
S11302503D12C112BB121912431249122512CD12BA
S113026019121F123D1219128512191231121F127E
S11302706112491225125B12DF1231124F12EB1276
S11302809D124F12B51219121F123D1219127F122C
S113029025124312191231121F126112491225122A
S11302A0D91273126D123712671255123712A9122E
S11302B0AF12A31273126D12371267125512C712BE
S11302C0D3125B128B1291129B178F1789177D170C
S11302D077176B1765175F17591753174717411788
S11302E03B172F1729171D1717170B170517F91683
S11302F0F316ED16E716E116D516CF16C916C31672
S1130300BD16B116AB169F16991693168D16811647
S11303107B166F1669165D1657164B164516391659
S11303203316271621161B1615160F160316FD1560
S1130330F715F115EB15DF15D915CD15C715C11531
S1130340BB15AF15A915A3159D1597158B15851507
S1130350791573156D1567155B1555154F154915E9
S11303603D15371531152B152515191513150715B9
S11303700115F514EF14E314DD14D114CB14C514D2
S1130380BF14B914AD14A7149B1495148F148914B5
S11303907D14771471146B145F1459144D1447149D
S11303A03B14351429142314171411140514FF13C2
S11303B0F313ED13E713E113DB13CF13C913C313C3
S11303C0B713B113A5139F1393138D1381137B13C9
S11303D075136F1363135D1351134B133F133913C9
S11303E02D13271321131B13151309130313FD12C4
S11303F0A117CB17B917CB17B917CB17B917EF1725
S1130400B917EF17D717C5170718C517F517E31747
S1130410D117B917D117B917D117B917E917B917E0
S1130420E917D717FB170118B917C5170D18E317E4
S113043011241FBECFEFD0E1DEBFCDBF12E0A0E09C
S1130440B1E0E0ECF4E300E00BBF02C007900D92D2
S1130450A434B107D9F723E0A4E4B2E001C01D92AB
S1130460A437B207E1F70E945D180C945E1A0C944D
S113047000001F920F920FB60F9211248F9381E008
S113048080938C028F910F900FBE0F901F90189540
S113049087B3876087BB8DB180658DB9709A0895E5
S11304A00E94D70B89E291E00E94070C87E892E052
S11304B00E94070C10927202089542E062E773E012
S11304C080E90E94980AE2E7F3E0808190E0982FA7
S11304D088272181822B909376028093750260E8AD
S11304E070E00E9468199B016093A9027093AA02AC
S11304F08093AB029093AC024AE062E972E0C901D6
S11305000E94F9198091AB029091AC0260E870E00E
S113051024E6AC01249FC001259F900D11240E9464
S113052068199B0160938D0270938E0280938F02F1
S1130530909390024AE06AE772E0C9010E94F919B7
S11305400895CF9310924E028FEF8ABB8BBBE0913C
S1130550FE02F091FF02F0937002E0936F0210929A
S11305608102CFEF9F01ADECBCEC0E94A419AC0159
S1130570569547955695479556954795CA01880FC0
S1130580991F440F551F440F551F440F551F480F03
S1130590591FE41BF50BE093910218BA98B3E0914C
S11305A04E02F0E0E050FF4F8081892B88BBCBBB2B
S11305B0E0919102F0E0EA5EFE4F80818BBB81EE18
S11305C094E00197F1F700C0000080914E028F5F24
S11305D080934E0220916F02309170020E94A41900
S11305E0FC01F695E795F695E795F695E795F09372
S11305F07002E0936F02809181028F5F8093810289
S1130600843008F4AFCF8091240190E0909370027D
S113061080936F0280E688BBCF910895CF931092A8
S11306204E028FEF8ABB8BBBE0912301F0E0F09385
S11306307002E0936F0210928102CFEF9F01ADEC44
S1130640BCEC0E94A419AC01569547955695479564
S113065056954795CA01880F991F440F551F440F9B
S1130660551F440F551F480F591FE41BF50BE0930A
S1130670910218BA98B3E0914E02F0E0E050FF4FB7
S11306808081892B88BBCBBBE0919102F0E0EA5ECC
S1130690FE4F80818BBB81EE94E00197F1F700C09F
S11306A0000080914E028F5F80934E0220916F0272
S11306B0309170020E94A419FC01F695E795F69515
S11306C0E795F695E795F0937002E0936F028091B9
S11306D081028F5F80938102823008F4AFCF409112
S11306E0240150E05093700240936F02CFEF9A01BF
S11306F0ADECBCEC0E94A4199695879596958795C8
S1130700969587959C01220F331F880F991F880F98
S1130710991F880F991F820F931F481B590B4093F1
S1130720910218BA98B3E0914E02F0E0E050FF4F06
S11307308081892B88BBCBBBE0919102F0E0EA5E1B
S1130740FE4F80818BBB81EE94E00197F1F700C0EE
S1130750000080914E028F5F80934E0220916F02C1
S1130760309170020E94A419AC0156954795569594
S11307704795569547955093700240936F024115E3
S1130780510509F0B4CF80E688BBCF910895CF938B
S113079010924E028FEF8ABB8BBBE0915002F0E0C7
S11307A0F0937002E0936F0210928102CFEF9F01E9
S11307B0ADECBCEC0E94A419AC0156954795569536
S11307C0479556954795CA01880F991F440F551FA1
S11307D0440F551F440F551F480F591FE41BF50BB9
S11307E0E093910218BA98B3E0914E02F0E0E05021
S11307F0FF4F8081892B88BBCBBBE0919102F0E055
S1130800EA5EFE4F80818BBB81EE94E00197F1F7A5
S113081000C0000080914E028F5F80934E022091B1
S11308206F02309170020E94A419FC01F695E795BD
S1130830F695E795F695E795F0937002E0936F02CD
S1130840809181028F5F80938102823008F4AFCF60
S11308504091250150E05093700240936F02CFEF16
S11308609A01ADECBCEC0E94A419969587959695D7
S11308708795969587959C01220F331F880F991FA2
S1130880880F991F880F991F820F931F481B590BBC
S11308904093910218BA98B3E0914E02F0E0E05010
S11308A0FF4F8081892B88BBCBBBE0919102F0E0A4
S11308B0EA5EFE4F80818BBB81EE94E00197F1F7F5
S11308C000C0000080914E028F5F80934E02209101
S11308D06F02309170020E94A419AC01569547959D
S11308E056954795569547955093700240936F02DD
S11308F04115510509F0B4CF80E688BBCF91089526
S113090099B380912701891B883009F45FC0A8F04E
S1130910803209F44FC0A0F1803461F1803809F0CD
S113092060C09091470281E08927809347028091BB
S113093056028058809356020895823079F18430AB
S113094069F08130C9F79091A70298279093A70284
S11309509091560289278093560208952091790236
S113096091E092279093790290915602892780937F
S113097056020895809150028F5F8093500208952B
S1130980803181F52091490291E0922790934902A8
S113099090915602892780935602089520917102FE
S11309A091E0922790937102909156028927809347
S11309B0560208952091480291E0922790934802AC
S11309C090915602892780935602089590912301AD
S11309D09B5F90932301909156028927809356023E
S11309E0089508950895309153023093550220914B
S11309F05202209354028091850290918602482FDE
S1130A004370409353028C709927969587959695D9
S1130A108795982F80935202341721F0313041F199
S1130A20323049F0291731F02130B1F0223011F47D
S1130A30933079F108954330A9F78091A70230915A
S1130A407102432F482371F7882369F180912501AE
S1130A50815080932501E6CF933061F78091860021
S1130A6090918700C29690938700809386000895A2
S1130A704330C1F68091A70230917102432F48237D
S1130A8089F68823C9F0809125018F5F8093250121
S1130A90C9CF8091860090918700C2979093870078
S1130AA0809386000895332309F4BCCF80915002CB
S1130AB0815080935002B6CF332309F4B3CF809191
S1130AC050028F5F80935002ADCF809151028C33DE
S1130AD0B1F0809150028C33D9F0809125018D3092
S1130AE001F18091200190912101813D974030F0E6
S1130AF080ED97E090932101809320010895109256
S1130B005102809150028F5F809350028C3329F7F9
S1130B1010925002809125018F5F809325018D30C2
S1130B2001F781E080932501DCCF9091250180912C
S1130B302401981719F010924F02089590915002D1
S1130B40809123019813F7CF81E080934F02089599
S1130B5080914902811109C067E972E08FE592E052
S1130B600E94E919892BD9F50895809148028823B8
S1130B70A9F0809172028130B9F767E872E08FE5DD
S1130B8092E00E94F21967E972E08FE592E00E9418
S1130B90E919892B81F510927202089562E972E0D5
S1130BA08FE592E00E94F21967E972E08FE592E026
S1130BB00E94E919892BC1F26FE572E087E992E09E
S1130BC00E94F2190E94D70B8FE592E00E94070C55
S1130BD08EE20E94030C8AE792E00C94070C6FE506
S1130BE072E087E992E00E94F2190E94D70B8FE528
S1130BF092E00C94070C6FE572E087E992E00E94A2
S1130C00F2190E94D70B8FE592E00E94070CC3CF24
S1130C101F920F920FB60F9211240F900FBE0F90D8
S1130C201F9018951F920F920FB60F9211240BB6B6
S1130C300F928F939F93EF93FF938CB18093A802AD
S1130C40E0915A0291E09E0F90935A02F0E0E95726
S1130C50FD4F8083811109C081E08093720280E29C
S1130C6080838183828310925A02FF91EF919F9136
S1130C708F910F900BBE0F900FBE0F901F90189581
S1130C801F920F920FB60F9211248F939F9384B1EA
S1130C9095B1809322019F918F910F900FBE0F9079
S1130CA01F9018951F920F920FB60F9211240BB636
S1130CB00F922F933F934F935F936F937F938F93F1
S1130CC09F93AF93BF93EF93FF9382B3805882BBFC
S1130CD020917F0230918002809177029091780276
S1130CE02817390758F0809173028F5F809373023D
S1130CF060917302809174020E941318FF91EF9126
S1130D00BF91AF919F918F917F916F915F914F911F
S1130D103F912F910F900BBE0F900FBE0F901F901D
S1130D2018951F920F920FB60F9211240BB60F92C3
S1130D302F933F934F935F936F937F938F939F93DF
S1130D40AF93BF93EF93FF93809159028F5F80938A
S1130D505902982F977051F420917F0230918002AC
S1130D602F5F3F4F3093800220937F02982F9F770D
S1130D7009F46FC091E0843808F490E02CE7929F66
S1130D80800D1124811101C0369A1ABA8FEF8BBBE2
S1130D9080E788BB89EF90E00197F1F700C000007D
S1130DA089B390E02091270130912801821793079D
S1130DB009F464C080912601811164C089B3209133
S1130DC057023091580290E08217930739F089B3A3
S1130DD090E02817390711F00E94800489B390E04D
S1130DE090935802809357028FEF8ABB80E788BBA9
S1130DF013B880E883B983EF91E00197F1F700C05D
S1130E000000809156028FB98FB190E090938602D2
S1130E1080938502779BFECF80EC83B980E483B90D
S1130E2081E788BB80E788BB0E94F304FF91EF91C0
S1130E30BF91AF919F918F917F916F915F914F91EE
S1130E403F912F910F900BBE0F900FBE0F901F90EC
S1130E5018950E945D028091040188BB8CEF8BBBC6
S1130E6087EA91E60197F1F700C0000080915102F2
S1130E708F5F80935102809159027CCF81E08093EF
S1130E802601B2CF0E94800410922601A7CF84E1EC
S1130E908093D80241E068ED72E082E20E94870A02
S1130EA00E94830A8111FCCF8FEA94E00197F1F745
S1130EB000C0000041E06CE273E082E20E94980A04
S1130EC00E94830A8111FCCF80912C03089580E253
S1130ED08093D8021092D9028091FE029091FF0271
S1130EE09093DA028093DB021092DC0210928C025F
S1130EF045E068ED72E082E20E94870A80918C02EC
S1130F008823E1F3089580E48093D8021092D902F3
S1130F108091FC029091FD029093DA028093DB02AF
S1130F201092DC021092DD0210928C0246E068ED11
S1130F3072E082E20E94870A80918C028823E1F3A6
S1130F400895E8EDF2E080E480831182809100034B
S1130F509091010392838383148281E0858346E028
S1130F60BF0182E20E94870A2FEF87EE93E02150AF
S1130F7080409040E1F700C00000089580915B023A
S1130F8090915C028130910551F100F1029741F496
S1130F9060910003709101038AE293E00E94491A70
S1130FA06091EB028DEA92E00E943C1A81E1809309
S1130FB0D80241E068ED72E082E20E94870A87ED80
S1130FC094E00197F1F700C0000008956091FE02DB
S1130FD07091FF028EEA92E00E94491AE1CF60917B
S1130FE0FC027091FD0289EE92E00E94491AD8CF6A
S1130FF083E28093D80281E08093D90242E068EDD5
S113100072E082E20E94870A0E94830A8111FCCF67
S11310108FEA94E00197F1F700C0000048E061EE28
S113102072E082E20E94980A0E94830A8111FCCF36
S1131030089582E28093D80281E08093D90242E04D
S113104068ED72E082E20E94870A0E94830A81119D
S1131050FCCF8FEA94E00197F1F700C0000048E06C
S113106061EE72E082E20E94980A0E94830A811172
S1131070FCCF089582E48093D80281E08093D90262
S113108042E068ED72E082E20E94870A0E94830ACD
S11310908111FCCF8FEA94E00197F1F700C00000C2
S11310A048E061EE72E082E20C94980A83E4809353
S11310B0D80281E08093D90242E068ED72E082E2D6
S11310C00E94870A0E94830A8111FCCF8FEA94E070
S11310D00197F1F700C0000048E061EE72E082E29F
S11310E00C94980AE8EDF2E022E1208311829283C5
S11310F083837483658346E0BF0182E20E94870A8A
S11311008FE39CE90197F1F700C0000008958EEA8F
S113111092E00E94361A9093FF028093FE028DEAB9
S113112092E00E942E1A8093EB02E8EDF2E081E057
S1131130808380E5818385E0828343E0BF0182E28E
S11311400E94870A2FEF8BED95E02150804090405C
S1131150E1F700C0000061E070E081E090E00C94F1
S1131160720889EE92E00E94361A9093FD028093F1
S1131170FC028DEA92E00E942E1A8093EB02E8EDC5
S1131180F2E081E0808381E5818385E0828343E02E
S1131190BF0182E20E94870A2FEF8BED95E0215078
S11311A080409040E1F700C0000061E070E081E021
S11311B090E00C9472088AE293E00E94361A9093AD
S11311C00103809300038DEA92E00E942E1A80931B
S11311D0EB02E8EDF2E081E0808381E5818385E044
S11311E0828343E0BF0182E20E94870A2FEF8BEDE6
S11311F095E0215080409040E1F700C0000060E09D
S113120070E082E093E30E94720861E071E082E0A2
S113121091E30E94720861E070E081E090E00C9438
S1131220720880E18093D80241E068ED72E082E2C6
S11312300E94870A0E94830A8111FCCF8FEA94E0FE
S11312400197F1F700C0000048E06CEE72E082E222
S11312500E94980A0E94830A8111FCCF86E491E0DF
S11312600E94B80A8FE791E00E94B80A88EB91E0E7
S11312700E94B80A8091ED024AE060EB72E090E0CF
S11312800E94F91980EB92E00E94B80A85EC91E083
S11312900E94B80A8091EE024AE060EB72E090E0AE
S11312A00E94F91980EB92E00E94B80A85EB91E064
S11312B00C94B80AFF920F931F93CF93DF93CDB78B
S11312C0DEB7A8970FB6F894DEBF0FBECDBF83ED8F
S11312D091E00E94B80A83EE91E00E94B80A01EE00
S11312E012E0F801808140E160EB72E090E00E943E
S11312F0F91980EB92E00E94B80A85EB91E00E9414
S1131300B80A83EF91E00E94B80AF80181814AE0AB
S113131060EB72E090E00E94F91980EB92E00E9489
S1131320B80A85EB91E00E94B80AF801F38083E0E3
S113133092E00E94B80A4AE060EB72E08F2D90E0E0
S11313400E94F91980EB92E00E94B80A85EB91E0C3
S11313500E94B80A83E192E00E94B80AF8018281EF
S113136040E1BE016F5F7F4F90E00E94F919CE010A
S113137001960E94B80A85EB91E00E94B80A83E2C4
S113138092E00E94B80AF801838140E1BE016F5FD8
S11313907F4F90E00E94F919CE0101960E94B80A8D
S11313A085EB91E00E94B80A83E392E00E94B80AB8
S11313B0F801848140E160EB72E090E00E94F91949
S11313C080EB92E00E94B80A85EB91E00E94B80A93
S11313D0A8960FB6F894DEBF0FBECDBFDF91CF91B4
S11313E01F910F91FF9008951F920F920FB60F92C5
S11313F011240BB60F922F933F938F939F93AF9328
S1131400BF93EF93FF93E09171008E2F90E0FC0166
S11314103897E135F105B0F08091710080933B037A
S113142084E080937400FF91EF91BF91AF919F91FD
S11314308F913F912F910F900BBE0F900FBE0F9085
S11314401F901895EA5BFF4F0C949B1980915D02E5
S1131450E0913C03F0913D03E80FF11D809173008E
S1131460808384E980937400DECF80913E0380936F
S1131470730010925D0285E880937400D4CF80914C
S11314805D0290913F03891760F7E0913C03F0916E
S11314903D0391E0980F90935D02E80FF11D808168
S11314A08093730085E880937400BDCF85EA8093B0
S11314B07400B9CF20915D0280913F0330E090E049
S11314C0019728173907DCF485EC80937400ABCFBF
S11314D0E0913C03F0913D0380915D0221E0280FEF
S11314E020935D02E80FF11D809173008083809149
S11314F03F0330E090E00197281739072CF385E883
S11315008093740090CF80917400817008959091BD
S1131510740090FDFCCF8E7F80933E0370933D0357
S113152060933C0340933F0385EA809374000895DD
S11315309091740090FDFCCF816080933E03709382
S11315403D0360933C0340933F0385EA809374001A
S113155008958FEF80937300109271008CE0809354
S1131560700008955D9BFECF8CB95D9BFECF0895FE
S1131570FC019081992349F031965D9BFECF9CB983
S11315805D9BFECF91919111F8CF08959C01FC01D0
S11315904491442369F00196F90124915D9BFECFA7
S11315A02CB95D9BFECF9C01FC0144914111F3CF0A
S11315B008958AB188698AB9E5E9F0E08081866096
S11315C080831092900087E689B9089580E89EE3AD
S11315D002C0019721F05F9BFCCF8CB1089580E09D
S11315E0089591E0811101C090E09FB9779BFECFEF
S11315F06FB9779BFECF8091620088608093620010
S113160080916200877F809362000895CF93C09198
S11316105E028C0F911DFC01608181E00E94F10A41
S113162081E08C0F80935E02803189F0803211F06A
S1131630CF91089585ED8A95F1F7000060E880E088
S11316400E94F10A10925E0280E0CF910895F5EDB8
S1131650FA95F1F7000060EC80E00E94F10A8091B5
S11316605E02E4CFEF92FF920F931F93CF93DF9329
S11316701F92CDB7DEB7182F660F660F660F605C3A
S113168080E099830E94F10A85ED8A95F1F70000C4
S1131690E12E9981F92E8701085F1F4FF7016191AF
S11316A07F0181E00E94F10AF5EDFA95F1F700005F
S11316B0E016F10699F70F90DF91CF911F910F91EA
S11316C0FF90EF90089590E4899F600D1124605C71
S11316D080E00C94F10ACF938823B9F1C82F8436A3
S11316E098F48A30D8F48DECC89F812D1124869506
S11316F0869586956C2F2AE0829F60191124605D7F
S113170081E0CF910C94F10A69E2869F612D112446
S113171062956F70605D81E00E94F10A89E2C89F62
S1131720812D112482958F709C2F24E6829F90191D
S113173011246DEC969F612D11246695669566952E
S1131740605D81E00E94F10ACECF60E381E0CF9139
S11317500C94F10ACF9387FD03C0CF910C946B0BCB
S1131760C82F6DE281E00E94F10A85ED8A95F1F7B8
S113177000008C2F8195CF910C946B0B6EE080E070
S11317800C94F10A6CE080E00C94F10A6EE180E0C4
S11317900C94F10A68E180E00C94F10AE2E6F0E0CE
S11317A08081886080838081877F8083089561E061
S11317B080E00E94F10A8FE19CE10197F1F700C0FB
S11317C00000089562E080E00E94F10A8FE697E14C
S11317D00197F1F700C00000089560EC80E00C94DC
S11317E0F10A60E880E00C94F10ACF93C0E160E272
S11317F081E00E94F10A85ED8A95F1F70000C1505D
S1131800B1F7CF910895682F81E00C94F10A0F93FA
S11318101F93CF938C0140E050E0C0E0F801E40F47
S1131820F51F608181E00E94F10A85ED8A95F1F748
S11318300000CF5F4C2F50E0F80101900020E9F741
S11318409F01201B310B225031092417350730F733
S1131850CF911F910F9108958FEF99EF0197F1F7B1
S113186000C0000088E08093610060E380E00E9493
S1131870F10A8FE59DE60197F1F700C0000060E3EF
S113188080E00E94F10A8FE59DE60197F1F700C020
S1131890000060E380E00E94F10A8FE59DE6019775
S11318A0F1F700C0000068E380E00E94F10A8FE1D4
S11318B09EE40197F1F700C0000068E080E00E9418
S11318C0F10A8FE19EE40197F1F700C0000061E0A6
S11318D080E00E94F10A8FE19EE40197F1F700C0D5
S11318E0000066E080E00E94F10A8FE19EE4019727
S11318F0F1F700C000006CE080E00E94F10A8FE183
S11319009EE40197F1F700C0000008958F929F9222
S1131910AF92BF92CF92DF92EF92FF920F931F93F9
S1131920CF93DF93CDB7DEB769970FB6F894DEBFD8
S11319300FBECDBFF42E122F002359F04B015C01D2
S11319408824B7FC83949924AA24BB24082D97FDEA
S11319508FC0112309F484C09E012F5F3F4F69019A
S1131960590188248A94810E912C3FEF831A930A9B
S11319708C0C9D1C2AE030E040E050E00E947C1971
S1131980E62F2A8B3B8B4C8B5D8B6A897B898C89F8
S11319909D8920E32E0FF50121935F01E815F905D8
S11319A049F7BB24B394B10EF601E10FF11D2EE209
S11319B020832AE030E040E050E00E947C19E62FCA
S11319C02A8B3B8B4C8B5D8B6E8B7F8B888F998F97
S11319D06A897B898C899D8911E01B0DD601AB0D29
S11319E0B11DE05DEC93B12E611571058105910582
S11319F001F7FF2061F0E11039C080E21F1538F4CF
S1131A00F601E10FF11D80831F5F1F11F9CF002341
S1131A1031F0F601E10FF11D8DE280831F5F11505B
S1131A20F601E10FF11D608181E00E94F10A35EDBC
S1131A303A95F1F700001111F2CF69960FB6F894B8
S1131A40DEBF0FBECDBFDF91CF911F910F91FF90ED
S1131A50EF90DF90CF90BF90AF909F908F900895BC
S1131A60B12C9E012F5F3F4F6901A3CF80E3C6CF06
S1131A7090958095709561957F4F8F4F9F4F69CF5B
S1131A805F926F927F928F929F92AF92BF92CF920A
S1131A90DF92EF92FF920F931F93CF93DF93CDB713
S1131AA0DEB761970FB6F894DEBF0FBECDBFA62E8A
S1131AB0542E622E792E771C7724771CB72CC72CD2
S1131AC0D12CEE27FF27EC19FD098E279F27FC0157
S1131AD0EC0DFD1D442309F48EC0CE0101967C015A
S1131AE08C0188248A94840E912C9FEF891A990A78
S1131AF08E0C9F1C6AE070E0CF010E946819262FAB
S1131B00E22FF72F805DD8018D938D01A815B905BB
S1131B1089F701E0050DD701A50DB11D8EE28C9367
S1131B206AE070E0CF010E946819262FE22FF72F98
S1131B3011E0100FD701A00FB11D805D8C93012F10
S1131B40309771F7611015C0772039F011E0100F4C
S1131B50F701E00FF11D8DE28083AA2041F1812F6E
S1131B6090E02A2D30E0821793070CF5B12C40E267
S1131B700CC0AA20A1F0812F90E02A2D30E02C196E
S1131B803D09821793075CF440E31F5FF701E80FF8
S1131B90F91F4083812F90E082179307B4F3BB2091
S1131BA031F0F701E10FF11D8DE280831F5F1150C9
S1131BB0F701E10FF11D608181E00E94F10A95EDCA
S1131BC09A95F1F700001111F2CF61960FB6F894CF
S1131BD0DEBF0FBECDBFDF91CF911F910F91FF905C
S1131BE0EF90DF90CF90BF90AF909F908F907F90B9
S1131BF06F905F90089500E0CE0101967C0190CF34
S1131C00929A1092800210927F0290E09093780250
S1131C10809377020895582F929810928002109220
S1131C207F0230E03093780220937702842F90E093
S1131C308930910518F01BBC1ABC089589569F4F32
S1131C40FC01852F550F990BAA0BBB0B0C949B1908
S1131C50FC01E154F109E730F10578F7E056FF4F54
S1131C600C949B19FC01E154F109E730F10528F7C4
S1131C70E955FF4F0C949B19FC01E154F109E7303D
S1131C80F105D8F6E255FF4F0C949B19FC01E15481
S1131C90F109E730F10588F6EB54FF4F0C949B19DA
S1131CA0FC01E154F109E730F10538F6E454FF4F43
S1131CB00C949B19FC01E154F109E730F10508F09B
S1131CC0BCCFED53FF4F0C949B19FC01E154F10977
S1131CD0E730F10508F0B1CFE653FF4F0C949B19A0
S1131CE0FC01E154F109E730F10508F0A6CFEF5209
S1131CF0FF4F0C949B19FC01E154F109E730F10505
S1131D0008F09BCFE852FF4F0C949B1988E590E0B4
S1131D109BBD8ABD0895662309F40FC283E690E053
S1131D209BBD8ABD0895662309F411C28FE690E035
S1131D309BBD8ABD089586E790E09BBD8ABD08954A
S1131D40662309F4FFC18AE490E09BBD8ABD08952F
S1131D50662309F401C283E590E09BBD8ABD089522
S1131D60662309F4B8C182E490E09BBD8ABD08955E
S1131D7081EB90E09BBD8ABD0895662309F4D3C12D
S1131D8085E890E09BBD8ABD0895662309F4C1C12E
S1131D9085E990E09BBD8ABD0895662309F4BEC120
S1131DA087EA90E09BBD8ABD089584E691E09BBDDF
S1131DB08ABD0895662309F4BBC180EE90E09BBD03
S1131DC08ABD08958DEE90E09BBD8ABD089566237B
S1131DD009F48BC187EC90E09BBD8ABD089566230E
S1131DE009F474C180E991E09BBD8ABD089566231E
S1131DF009F4CBC184E893E09BBD8ABD08956623B2
S1131E0009F4AFC18BE291E09BBD8ABD08956623BE
S1131E1009F4B1C182EA92E09BBD8ABD08958CEDBC
S1131E2091E09BBD8ABD0895662309F459C187E1F9
S1131E3092E09BBD8ABD0895662309F4B0C188E58C
S1131E4092E09BBD8ABD08958AEC92E09BBD8ABD59
S1131E500895662309F435C186E496E09BBD8ABDE6
S1131E600895662309F482C18AE097E09BBD8ABD88
S1131E70089586E995E09BBD8ABD08958AEB93E0B9
S1131E809BBD8ABD0895662309F47AC181EC91E073
S1131E909BBD8ABD0895662309F47CC18BE091E063
S1131EA09BBD8ABD0895662309F47EC180E591E057
S1131EB09BBD8ABD0895662309F4ADC182E293E017
S1131EC09BBD8ABD089586E797E09BBD8ABD0895B2
S1131ED0662309F40FC18EEC92E19BBD8ABD08957F
S1131EE0662309F47AC18DE195E19BBD8ABD08950D
S1131EF0662309F4DCC080E698E09BBD8ABD0895A2
S1131F00662309F492C180E190E09BBD8ABD0895E7
S1131F108EE29BE09BBD8ABD0895662309F449C106
S1131F208BE190E09BBD8ABD08958CE190E09BBD60
S1131F308ABD0895662309F441C187E090E09BBD02
S1131F408ABD0895662309F4DAC08BE090E09BBD56
S1131F508ABD089582E190E09BBD8ABD0895662301
S1131F6009F49BC089E199E19BBD8ABD089566236C
S1131F7009F429C180E39CE19BBD8ABD08958CEDE1
S1131F809DE19BBD8ABD08958AE390E09BBD8ABD17
S1131F900895662309F435C180E290E09BBD8ABDB3
S1131FA00895662309F432C184E290E09BBD8ABDA2
S1131FB00895662309F476C089E290E09BBD8ABD4A
S1131FC00895662309F478C081E390E09BBD8ABD3F
S1131FD008958BE290E09BBD8ABD0895662309F4C1
S1131FE093C087E390E09BBD8ABD0895662309F4FE
S1131FF04FC088E190E09BBD8ABD0895662309F433
S1132000F6C082EB94E09BBD8ABD0895662309F473
S113201016C18DE89AE09BBD8ABD0895662309F434
S1132020D7C086E19EE09BBD8ABD0895662309F46E
S1132030F7C080EC90E19BBD8ABD0895662309F446
S1132040D1C08FE294E09BBD8ABD0895662309F454
S1132050F1C087E699E09BBD8ABD0895662309F423
S1132060CBC08DE89CE09BBD8ABD08958DE596E1CB
S11320709BBD8ABD0895662309F4E6C086E495E015
S11320809BBD8ABD08958DEE9EE09BBD8ABD0895DB
S113209085E190E09BBD8ABD089582EB97E19BBDED
S11320A08ABD089586E290E09BBD8ABD089587EEBF
S11320B097E09BBD8ABD08958EE290E09BBD8ABDEA
S11320C008958BEE95E09BBD8ABD08958AE791E063
S11320D09BBD8ABD08958EE390E09BBD8ABD0895A3
S11320E089EF91E09BBD8ABD08958CEB90E09BBD88
S11320F08ABD089580EC91E19BBD8ABD089589E075
S113210090E09BBD8ABD089584E390E09BBD8ABDA9
S113211008958DE890E09BBD8ABD08958EE990E016
S11321209BBD8ABD08958DE790E09BBD8ABD08954F
S113213083ED90E09BBD8ABD08958DE590E09BBD45
S11321408ABD089586E490E09BBD8ABD089589E622
S113215090E09BBD8ABD08958EE490E09BBD8ABD4E
S113216008958BE191E09BBD8ABD089585EA96E0D0
S11321709BBD8ABD08958CE792E09BBD8ABD0895FE
S113218088EA91E09BBD8ABD089582E593E09BBDFA
S11321908ABD08958CEF90E09BBD8ABD089587E3C6
S11321A092E09BBD8ABD08958DE391E09BBD8ABDFD
S11321B0089589E190E09BBD8ABD089585E090E093
S11321C09BBD8ABD08958AE99AE19BBD8ABD0895A5
S11321D08CE49DE09BBD8ABD08958DEE93E19BBD8B
S11321E08ABD089583EF93E09BBD8ABD08958FE671
S11321F094E09BBD8ABD089588ED9BE09BBD8ABD9C
S113220008958EE190E09BBD8ABD089582E290E03E
S11322109BBD8ABD089585EF92E09BBD8ABD08955C
S113222080ED9FE09BBD8ABD08958DE090E09BBD4D
S11322308ABD08958FED98E09BBD8ABD089586EF11
S113224099E09BBD8ABD08958AEF94E09BBD8ABD49
S113225008958634910520F08FEF809373020895DA
S1132260FC01E152FF4F0C949B1922E044E060E032
S113227081E40C940B0E26E044E060E081E40C94CD
S11322800B0E22E044E061E081E40C940B0E28E0A4
S113229044E060E084E40C940B0E28E044E060E049
S11322A086E40C940B0E26E044E061E082E40C9496
S11322B00B0E28E044E060E083E40C940B0E28E06D
S11322C044E060E081E40C940B0E28E044E060E01C
S11322D087E40C940B0E28E044E060E085E40C9461
S11322E00B0E20E144E060E081E40C940B0E24E04A
S11322F045E060E083E40C940B0E24E045E060E0EC
S113230084E40C940B0E929A1092800210927F0235
S113231088E090E090937802809377020895929AEF
S11323201092800210927F0281E090E090937802F4
S113233080937702089520E144E061E082E40C9404
S11323400B0E28E044E061E082E40C940B0E28E1DB
S113235044E060E087E40C940B0E20E145E060E08B
S113236084E40C940B0E929A1092800210927F02D5
S113237082E090E09093780280937702089524E0BD
S113238044E060E081E40C940B0E26E044E060E05D
S113239087E40C940B0E24E044E061E087E40C94A1
S11323A00B0E28E044E061E087E40C940B0E23E07C
S11323B044E060E087E40C940B0E20E144E060E02C
S11323C084E40C940B0E20E145E060E083E40C947B
S11323D00B0E22E044E061E082E40C940B0E24E056
S11323E045E061E084E40C940B0E24E044E061E0F9
S11323F081E40C940B0E28E044E060E082E40C9449
S11324000B0E28E144E060E086E40C940B0E27E018
S113241044E060E087E40C940B0E8F33910520F0C8
S11324208FEF809373020895FC01EB5DFE4F0C94D3
S11324309B1924E044E060E083E40C940B0E28E054
S113244044E060E085E40C940B0E929A10928002B2
S113245010927F0281E090E090937802809377025B
S1132460089528E044E060E084E40C940B0E20E13D
S113247043E060E083E40C940B0E24E044E060E06D
S113248084E40C940B0E24E043E060E082E40C94BA
S11324900B0E27E043E060E081E40C940B0E24E093
S11324A044E060E086E40C940B0E20E142E060E03E
S11324B082E40C940B0E20E143E060E081E40C9490
S11324C00B0E28E044E060E083E40C940B0E20E162
S11324D043E060E084E40C940B0E20E143E060E010
S11324E085E40C940B0E929A1092800210927F0253
S11324F088E090E09093780280937702089527E033
S113250043E060E082E40C940B0E2CE043E060E0D6
S113251082E40C940B0E20E143E061E081E40C942E
S11325200B0E929A1092800210927F0280E190E04A
S11325309093780280937702089524E044E060E069
S113254087E40C940B0E28E042E060E082E40C94F3
S11325500B0E20E142E060E081E40C940B0E20E1DC
S113256042E061E081E40C940B0E2CE044E060E076
S113257085E40C940B0E22E044E060E084E40C94C7
S11325800B0E22E044E060E085E40C940B0E28E09E
S113259043E060E083E40C940B0E24E043E060E04D
S11325A081E40C940B0E28E043E060E085E40C9495
S11325B00B0E28E043E060E081E40C940B0E929A49
S11325C01092800210927F0284E090E0909378024F
S11325D080937702089528E044E060E081E40C945D
S11325E00B0E8539910520F08FEF809373020895C7
S11325F0FC01EC59FE4F0C949B1924E043E060E08D
S113260087E40C940B0E22E043E060E081E40C9438
S11326100B0E929A1092800210927F0282E090E058
S11326209093780280937702089522E044E060E07A
S113263083E40C940B0E22E044E060E085E40C9407
S11326400B0E24E044E060E084E40C940B0E22E0E2
S113265044E060E083E40C940B0E929A10928002A2
S113266010927F0282E090E0909378028093770248
S1132670089522E044E060E083E40C940B0E929A07
S11326801092800210927F0282E090E09093780290
S113269080937702089522E044E060E083E40C94A0
S11326A00B0E929A1092800210927F0281E090E0C9
S11326B09093780280937702089522E044E060E0EA
S11326C083E40C940B0E929A1092800210927F0273
S11326D080E190E09093780280937702089522E05D
S11326E044E060E085E40C940B0E22E044E060E0FA
S11326F084E40C940B0E22E044E060E083E40C9448
S11327000B0E929A1092800210927F0282E090E067
S11327109093780280937702089522E044E060E089
S113272083E40C940B0E929A1092800210927F0212
S113273082E090E09093780280937702089522E0FB
S113274044E060E083E40C940B0E929A10928002B1
S113275010927F0281E090E0909378028093770258
S1132760089522E044E060E083E40C940B0E929A16
S11327701092800210927F0284E090E0909378029D
S113278080937702089524E043E060E087E40C94AA
S11327900B0E22E043E060E081E40C940B0E929A6D
S11327A01092800210927F0282E090E0909378026F
S11327B080937702089522E044E060E083E40C947F
S11327C00B0E22E044E060E085E40C940B0E24E060
S11327D044E060E084E40C940B0E22E044E060E00A
S11327E083E40C940B0E929A1092800210927F0252
S11327F082E090E09093780280937702089522E03B
S113280044E060E083E40C940B0E929A10928002F0
S113281010927F0282E090E0909378028093770296
S1132820089522E044E060E083E40C940B0E929A55
S11328301092800210927F0281E090E090937802DF
S113284080937702089522E044E060E083E40C94EE
S11328500B0E929A1092800210927F028AE090E00E
S11328609093780280937702089524E044E060E036
S113287083E40C940B0E929A1092800210927F02C1
S113288084E090E09093780280937702089522E0A8
S113289044E060E084E40C940B0E929A109280025F
S11328A010927F0282E090E0909378028093770206
S11328B0089524E044E061E085E40C940B0E929AC0
S11328C01092800210927F0284E090E0909378024C
S11328D080937702089522E044E060E084E40C945D
S11328E00B0E22E044E060E083E40C940B0E22E043
S11328F043E060E081E40C940B0E929A1092800203
S113290010927F0282E090E09093780280937702A5
S1132910089522E044E060E083E40C940B0E22E08E
S113292043E060E081E40C940B0E22E043E061E0BC
S113293081E40C940B0E929A1092800210927F0202
S113294082E090E09093780280937702089522E0E9
S113295044E060E085E40C940B0E929A109280029D
S113296010927F0282E090E0909378028093770245
S1132970089522E044E061E085E40C940B0E22E02B
S113298044E060E086E40C940B0E22E044E061E055
S113299087E40C940B0E22E044E060E087E40C949E
S11329A00B0E929A1092800210927F0288E090E0BF
S11329B09093780280937702089524E044E060E0E5
S11329C087E40C940B0E929A1092800210927F026C
S11329D081E090E09093780280937702089521E05B
S11329E044E060E087E40C940B0E929A109280020B
S11329F010927F0282E090E09093780280937702B5
S1132A00089522E044E060E087E40C940B0E929A6F
S1132A101092800210927F0282E090E090937802FC
S1132A2080937702089522E043E060E085E40C940B
S1132A300B0E929A1092800210927F0282E090E034
S1132A409093780280937702089522E043E061E056
S1132A5085E40C940B0E22E043E060E086E40C94E1
S1132A600B0E22E043E061E087E40C940B0E22E0BD
S1132A7043E060E087E40C940B0E929A109280027B
S1132A8010927F0284E090E0909378028093770222
S1132A90089522E044E060E084E40C940B0E22E00C
S1132AA044E060E083E40C940B0E22E043E060E039
S1132AB081E40C940B0E929A1092800210927F0281
S1132AC082E090E09093780280937702089522E068
S1132AD044E060E083E40C940B0E22E043E060E009
S1132AE081E40C940B0E22E043E061E081E40C9459
S1132AF00B0E929A1092800210927F0282E090E074
S1132B009093780280937702089522E044E060E095
S1132B1085E40C940B0E929A1092800210927F021C
S1132B2082E090E09093780280937702089522E007
S1132B3044E061E085E40C940B0E22E044E060E0A4
S1132B4086E40C940B0E22E044E061E087E40C94EC
S1132B500B0E22E044E060E087E40C940B0E929AA2
S1132B601092800210927F0288E090E090937802A5
S1132B7080937702089522E043E060E082E40C94BD
S1132B800B0E22E044E060E084E40C940B0E22E09F
S1132B9044E060E083E40C940B0E929A109280025D
S1132BA010927F0282E090E0909378028093770203
S1132BB0089522E044E060E085E40C940B0E929AC0
S1132BC01092800210927F0282E090E0909378024B
S1132BD080937702089522E044E060E087E40C9457
S1132BE00B0E22E044E060E086E40C940B0E24E03B
S1132BF044E060E081E40C940B0E22E044E060E0E9
S1132C0087E40C940B0E929A1092800210927F0229
S1132C1081E090E09093780280937702089522E017
S1132C2044E060E085E40C940B0E23E043E060E0B4
S1132C3087E40C940B0E24E043E060E081E40C9400
S1132C400B0E22E043E061E082E40C940B0E929AB6
S1132C501092800210927F0282E090E090937802BA
S1132C6080937702089522E043E060E082E40C94CC
S1132C700B0E929A1092800210927F0282E090E0F2
S1132C809093780280937702089522E043E060E015
S1132C9081E40C940B0E929A1092800210927F029F
S1132CA082E090E09093780280937702089524E084
S1132CB043E060E085E40C940B0E929A109280023B
S1132CC010927F0283E090E09093780280937702E1
S1132CD0089522E043E060E087E40C940B0E929A9E
S1132CE01092800210927F0282E090E0909378022A
S1132CF080937702089525E044E060E083E40C9437
S1132D000B0E929A1092800210927F0284E090E05F
S1132D109093780280937702089522E043E060E084
S1132D2082E40C940B0E22E044E060E084E40C9412
S1132D300B0E22E044E060E083E40C940B0E929AC4
S1132D401092800210927F0282E090E090937802C9
S1132D5080937702089522E044E060E085E40C94D7
S1132D600B0E929A1092800210927F0282E090E001
S1132D709093780280937702089522E044E060E023
S1132D8087E40C940B0E22E044E060E086E40C94AB
S1132D900B0E24E044E060E081E40C940B0E22E08E
S1132DA044E060E087E40C940B0E929A1092800247
S1132DB010927F0281E090E09093780280937702F2
S1132DC0089522E044E060E085E40C940B0E23E0D7
S1132DD043E060E087E40C940B0E24E043E060E001
S1132DE081E40C940B0E22E043E061E082E40C9455
S1132DF00B0E929A1092800210927F0282E090E071
S1132E009093780280937702089522E043E060E093
S1132E1082E40C940B0E929A1092800210927F021C
S1132E2082E090E09093780280937702089522E004
S1132E3043E060E081E40C940B0E929A10928002BD
S1132E4010927F0282E090E0909378028093770260
S1132E50089524E043E060E085E40C940B0E929A1C
S1132E601092800210927F0284E090E090937802A6
S1132E7080937702089522E043E060E087E40C94B5
S1132E800B0E25E044E060E083E40C940B0E929A70
S1132E901092800210927F0288E090E09093780272
S1132EA080937702089528E042E060E087E40C9480
S1132EB00B0E28E044E060E087E40C940B0E24E061
S1132EC044E060E085E40C940B0E22E044E060E012
S1132ED083E40C940B0E929A1092800210927F025B
S1132EE082E090E09093780280937702089522E044
S1132EF044E060E085E40C940B0E929A10928002F8
S1132F0010927F0281E090E09093780280937702A0
S1132F10089523E044E060E085E40C940B0E929A5B
S1132F201092800210927F0281E090E090937802E8
S1132F3080937702089521E044E060E085E40C94F6
S1132F400B0E929A1092800210927F0288E090E019
S1132F50909378028093770208958F31910520F041
S1132F608FEF809373020895FC01E750FE4F0C9499
S1132F709B19929A1092800210927F0281E090E055
S1132F809093780280937702089524E045E060E00E
S1132F9085E40C940B0E27E044E060E085E40C9497
S1132FA00B0E27E044E061E085E40C940B0E929A4A
S1132FB01092800210927F0285E090E09093780254
S1132FC080937702089528E045E060E085E40C945E
S1132FD00B0E23E044E061E085E40C940B0E23E047
S1132FE044E060E085E40C940B0E28E045E060E0EA
S1132FF087E40C940B0E24E045E061E085E40C9436
S11330000B0E23E045E060E085E40C940B0E24E015
S113301045E061E087E40C940B0E28E045E061E0B4
S113302087E40C940B0E813089F060F0823031F02B
S1133030833041F4862F90E00C94AD17862F90E0F6
S11330400C94F112862F90E00C942911862F90E0B5
S11330500C940D12109273028EB58C7F8EBD929AD1
S11330600895109273028EB583608EBD929860911C
S11330707302809174020C94131887B7806187BF20
S11330801FBC8EB588608EBD10927A0081E390E0FB
S11330909BBD8ABD109273028EB58C7F8EBD929AB1
S11330A01092800210927F0210927802109277029E
S11330B010927302109274020895809161008860E6
S11330C0809361000E94D90A87B3876087BB8DB162
S11330D080658DB9709A0E94D70B0E94E20B0E9402
S11330E0A90A139A1B9A129A1A9A8AB781688ABFF4
S11330F089B7806889BF1F98179A1A9A82E48A95BB
S1133100F1F700C01A989AE09A95F1F7179880E9B8
S11331108093700342E060E773E00E94870A83EFC4
S113312091E00197F1F700C00000CFEFCABB87EF31
S113313087BB80EC82B990E493B987B7816087BF7D
S113314083B7816083BF80B7886080BF85B58B6695
S113315085BD8091610081608093610081E08093EE
S1133160620097B98FE886B980E58DB9C1BB0E942A
S11331703D18139A80918B00826880938B00809114
S11331808A008A6080938A0080918C0080938C00EE
S113319088EE93E090938700809386000E942C0C25
S11331A00E94D70B8BE291E00E94070C7894CABB73
S11331B080E788BB789406E017E2C1E0D0E08CE0B9
S11331C0D82E98E0B92E2CEBE22E22E0F22EAA247F
S11331D0A3943AE0C32E22C090914F0291115DC096
S11331E0813009F472C00E94C703E7ECF1E0AFE557
S11331F0B2E08D2D01900D928A95E1F70E942A1874
S113320010924A020E94A805909125018091240100
S11332109817D1F110924F020E94650580914702E0
S11332202091450230914602232B81F4813071F4C0
S11332300E9487081093FF020093FE020E94670712
S1133240D0934602C093450280914702811104C085
S1133250109246021092450290917902992309F442
S1133260BBCF0E940E03E4E3F1E0AFE5B2E08C2DA6
S113327001900D928A95E1F70E94A805909125018D
S1133280809124019813C6CF90915002809123011C
S11332909813C0CFA0924F02BFCF0E94C703EEE3A2
S11332A0F1E0AFE5B2E08B2D01900D928A95E1F744
S11332B0F0922101E092200180914A028111A2CF73
S11332C00E943118A0924A029DCF0E94A1029ACF77
S11332D097FB072E16F4009407D077FD09D00E94BF
S11332E0B31907FC05D03EF4909581959F4F08953E
S11332F0709561957F4F0895052E97FB1EF40094F9
S11333000E94931957FD07D00E94C71907FC03D0E8
S11333104EF40C94931950954095309521953F4F58
S11333204F4F5F4F089590958095709561957F4FAD
S11333308F4F9F4F0895EE0FFF1F0024001C0BBEFC
S11333400790F691E02D0994A29FB001B39FC001AC
S1133350A39F700D811D1124911DB29F700D811DBD
S11333601124911D0895AA1BBB1B51E107C0AA1F7C
S1133370BB1FA617B70710F0A61BB70B881F991F12
S11333805A95A9F780959095BC01CD010895A1E2C5
S11333901A2EAA1BBB1BFD010DC0AA1FBB1FEE1FCB
S11333A0FF1FA217B307E407F50720F0A21BB30B16
S11333B0E40BF50B661F771F881F991F1A9469F792
S11333C060957095809590959B01AC01BD01CF01EE
S11333D00895FB01DC018D91019080190110D9F34E
S11333E0990B0895FB01DC0101900D920020E1F797
S11333F00895BB274A3031F4992322F4BDE2909515
S113340081959F4F0C94051ABB27FB015527AA27CA
S1133410880F991FAA1FA41710F0A41B839550515D
S1133420B9F7A05DAA3308F0A95DA193009779F7D5
S1133430B111B1931192CB010C941E1ADC01FC0161
S1133440672F71917723E1F7329704C07C916D93D4
S113345070836291AE17BF07C8F30895E199FECF58
S11334609FBB8EBBE09A99278DB30895A8E1B0E085
S113347042E050E00C94501A262FE199FECF9FBBF6
S11334808EBB2DBB0FB6F894E29AE19A0FBE01965B
S113349008950E943C1A272F0C943D1ADC01CB019D
S11334A0FC01E199FECF06C0FFBBEEBBE09A31966A
S11334B00DB20D9241505040B8F70895F894FFCFE3
S11334C0001030402070C0F9A4B0999283F880981D
S11334D08883C6A1868EC0F9A4B0999283F8809897
S11334E064006E140C0C01FF0061004D6F68616D87
S11334F06D65640073657420616C61726D00576161
S11335006B65205550005369343733342052657647
S11335103A20206C61737420322064696769747383
S1133520206F662070617274206E6F2E20202063DD
S11335306869702072657620202020200A0D002002
S11335402020202020202020202020202D2D2D2D43
S11335502D2D2D2D2D2D2D2D2D2D2D2D2D2D2D2D97
S11335602D2D2D2D2D2020202D2D2D2D2D2D2D2DAE
S113357020202020200A0D00202020202020202090
S11335802020202020202020202020202020202037
S1133590202000464D5F5253515F535441545553BC
S11335A03A20007374617475732062797465202005
S11335B0203A0072657370312020202020202020C2
S11335C0203A0066726571202020202020202020CF
S11335D0203A00667265712068696768202020209F
S11335E0203A0066726571206C6F772020202020BD
S11335F0203A00727373692020202020202020208C
S1073600203A000068
S9030000FC
